:020000040800F2
:1000000000000320DD2700080D0700081507000881
:10001000190700081D07000821070008000000005C
:10002000000000000000000000000000250700089C
:1000300029070008000000002D070008310700080C
:100040002D2800082D2800082D2800082D2800083C
:100050002D2800082D2800082D2800082D2800082C
:100060002D2800082D2800082D2800082D2800081C
:100070002D2800082D2800082D2800082D2800080C
:100080002D2800082D2800082D2800082D280008FC
:100090002D2800082D2800082D2800082D280008EC
:1000A0002D2800082D2800082D2800082D280008DC
:1000B0002D2800082D2800082D2800082D280008CC
:1000C0002D2800082D2800082D2800082D280008BC
:1000D0002D2800082D2800082D2800082D280008AC
:1000E0002D2800082D2800082D2800082D2800089C
:1000F0002D2800082D2800082D2800082D2800088C
:100100002D2800082D2800082D2800082D2800087B
:100110002D2800082D2800082D2800082D2800086B
:1001200035070008410700084D0700082D28000882
:100130002D2800082D2800082D2800082D2800084B
:100140002D2800082D2800082D2800082D2800083B
:100150002D2800082D2800082D2800082D2800082B
:100160002D2800082D2800082D2800082D2800081B
:100170002D2800082D2800082D2800080000000068
:100180002D2800082D2800082D2800082D280008FB
:100190002D2800082D2800082D2800082D280008EB
:0C01A0002D2800082D2800082D2800083C
:1001AC0053B94AB9002908BF00281CBF4FF0FF31D2
:1001BC004FF0FF3000F00CB8ADF1080C6DE904CE37
:1001CC0003F09CF9DDF804E0DDE9022304B070478C
:1001DC00704700BF10B5054C237833B9044B13B1ED
:1001EC000448AFF300800123237010BD10000020E1
:1001FC0000000000C437000808B5034B1BB10349CD
:10020C000348AFF3008008BD00000000140000207C
:10021C00C437000810B5002394B0CDE90A33CDE9FA
:10022C000C33CDE90333CDE9053322490193079310
:10023C00086C214A40F080500864096C01F0805130
:10024C00019101990293136843F4404313601368BE
:10025C0001204FF4A02103F44043CDE9080102939F
:10026C004FF480010224CDE90E41029804210220B2
:10027C00CDE912010422A82308A81092119300F0D2
:10028C007FFD08B172B6FEE70F220346CDE90324C9
:10029C004FF4A05C4FF4805203A80521CDE9053C36
:1002AC00079200F08DFF08B172B6FEE700F04EFF2A
:1002BC0014B010BD00380240007000402DE9F0432E
:1002CC00A1B001F09DFBDFEDB60A9FEDB60AB64872
:1002DC00B7EE001A022100F09FFB9FEDB41AB24852
:1002EC008DED091AB6EE000AF0EE411AF0EE410A55
:1002FC00012100248DED080A8DED0A1A8DED0B1AE3
:10030C0000F0F6FBFFF786FFA94B0294196B41F046
:10031C0080011963186B00F080000290029803941E
:10032C00186B40F001001863186B00F0010003908B
:10033C0003980494186B022108431863186B084047
:10034C00049004980594186B40F004001863186B23
:10035C0000F00400059005980194186B40F480009F
:10036C0018631B6B03F48003224601933820019B16
:10037C0001F0BEFA382001F0F7FA224602213920AA
:10038C0001F0B6FA392001F0EFFA224602213A20A8
:10039C0001F0AEFA3A2001F0E7FA864A864B18943F
:1003AC00CDE919444FF4803594601461147682F8C9
:1003BC002040D4601B944FF0606601244FF08057AE
:1003CC001046C2E90035C2E90A67D46182F83040B0
:1003DC00546101F0A9FF08B172B6FEE74FF00409B1
:1003EC00002201237348CDF8689018A9CDE9182391
:1003FC0002F038F900BBDFF8D481704BC8F810005C
:10040C00CDE91800CDE91A00C8E9015088F81800A8
:10041C0088F82000C8F80C004046C8E90A67C8F8FC
:10042C001C4088F83040C8F81440C8F8003001F07F
:10043C007BFF18B172B6FEE772B6FEE7012201230C
:10044C00404618A9CDE91823CDF8689002F00AF9B6
:10045C0000BBDFF87C815A4BC8F81000CDE91800BE
:10046C00CDE91A00C8E9015088F8180088F8200076
:10047C00C8F80C004046C8E90A67C8F81C4088F860
:10048C003040C8F81440C8F8003001F04DFF18B1E6
:10049C0072B6FEE772B6FEE702220123404618A9A7
:1004AC00CDE91823CDF8689002F0DCF8044608B1C9
:1004BC0072B6FEE710AE4FF020080CAF414D0C9019
:1004CC00C7E90100C6E90100C6E90300C6E9050059
:1004DC000690109007900146F860424618A802F06A
:1004EC00A0F9394B2B6043F24533EB60284680234F
:1004FC00C5E90148C5E90444AB6101F00FFD08B141
:10050C0072B6FEE74FF48053394628460C9301F03F
:10051C00EBFB08B172B6FEE7284601F02DFD08B1E1
:10052C0072B6FEE72022002306A92846CDE9062351
:10053C0001F090FE08B172B6FEE700200021002207
:10054C00CDE9140160231F4810933146CDE91122E7
:10055C001392169201F070FD08B172B6FEE71948BD
:10056C000422314601F068FD034608B172B6FEE77D
:10057C004FF400644FF48060CDE91840432200240E
:10058C0010481F9318A94FF40055CDE91C45CDE92F
:10059C001A3201F09FFE0446E0B172B6FEE700BFCE
:1005AC000000C84500004842380000200000000050
:1005BC00003802403043002000200140002101405F
:1005CC00002201403841002000040140E842002094
:1005DC00A0420020114800F0B3F911491148012242
:1005EC0001F04EFF10491148012201F049FF012290
:1005FC000F49104801F044FF2146084801F026FE3F
:10060C000421064801F022FE2146044801F068FB53
:10061C000248042101F064FBFEE700BF38410020D2
:10062C0030410020304300202E410020E8420020C1
:10063C002C410020A042002008B5124B1B68196AFF
:10064C0041F21112114208D1196A40F2444211428E
:10065C0003D15A6C22F400425A640021094801F07B
:10066C00F7FD0421074801F0F3FD0021054801F0D6
:10067C0039FB0448042101F035FB034B01221A70AD
:10068C0008BD00BF384100203400002038B5026896
:10069C00124B9A4200D038BD114B12481249134AE2
:1006AC000088098812881A68114C01321A60206877
:1006BC001D6800F0A7F90F4800F060FA236803F1F9
:1006CC0080732360EB07E6D40B4BF7EE000A186837
:1006DC0043F24531BDE8384000F02CBB002001400E
:1006EC0030000020304100202E4100202C41002001
:1006FC002C000020380000203841002072B6FEE7A4
:10070C0008B500F0FBFDFEE7FEE700BFFEE700BF0B
:10071C00FEE700BFFEE700BF704700BF704700BF99
:10072C00704700BF01F086B9014800F0F9BF00BF67
:10073C0040420020014800F0F3BF00BF8041002080
:10074C00014800F0EDBF00BFE041002082B00C4B2F
:10075C00002100915A6C42F480425A645A6C02F4A3
:10076C0080420092009A01911A6C42F080521A64F5
:10077C001B6C03F080530193019B02B0704700BFC8
:10078C000038024070B50368564A8CB0002493427E
:10079C00CDE90644CDE9084405460A9407D0524AEF
:1007AC00934240D0514A93427AD00CB070BD504B1A
:1007BC0000945A6C4F48504E42F480725A645A6CF2
:1007CC0002F480720092009A01941A6B42F00102BA
:1007DC001A631B6B03F0010301930122032306A987
:1007EC00CDE90623019B00F097FD444A74624FF457
:1007FC008063C6E9002433614FF400624FF4005368
:10080C00C6E9052330464FF480724FF40033C6E935
:10081C000244C6E9072300F0B3FE00283DD1AE63C5
:10082C00B5630CB070BD324B02945A6C3148344EE7
:10083C0042F400725A645A6C02F400720292029AE8
:10084C0003941A6B42F001021A631B6B03F0010351
:10085C0003930222032306A9CDE90623039B00F090
:10086C005BFD284A4FF00073C6E900234FF4806209
:10087C004FF40063C6E904234FF480734FF4005225
:10088C00C6E906234FF40033C6E90244C6E908342E
:10089C00304600F075FE0028C1D0FFF72FFFBEE7F1
:1008AC00134B04945A6C1348174E42F480625A64EA
:1008BC005A6C02F480620492049A05941A6B42F00A
:1008CC0001021A631B6B03F001030593042203233B
:1008DC0006A9CDE90623059B00F01EFD0B4A4FF03F
:1008EC008063C1E70020014000210140002201404B
:1008FC0000380240000002404042002010640240D8
:10090C00E041002040640240804100202864024005
:10091C000A4B02689A4200D0704782B003F59A33B2
:10092C00002201925A6C42F002025A645B6C03F092
:10093C0002030193019B02B0704700BF0004014009
:10094C0070B5274B02688AB000249A42CDE9044462
:10095C00CDE90644089401D00AB070BD03F59A3372
:10096C0001941A6B1F4842F001021A631A6B02F0D1
:10097C0001020192019A02941A6B42F002021A636C
:10098C001A6B02F002020292029A03941A6B42F062
:10099C0004021A631B6B03F00403802203930325E8
:1009AC0004A90223CDE904230226039B089500F039
:1009BC00B3FC012304A90C480895CDE90436CDE914
:1009CC00064400F0A9FCC0230848049304A9CDE90F
:1009DC000564CDE9074500F09FFC0AB070BD00BF6F
:1009EC0000040140000002400004024000080240E4
:1009FC00034AD2F8883043F47003C2F88830704749
:100A0C0000ED00E0034B000D03EB800393ED000AB7
:100A1C00704700BF7C4300202DE9F0412DED048B85
:100A2C00DFF8C88098F80030F0EE408AF0EE609A5B
:100A3C00B0EE419A06460F46BBB92A4D9FED2A8A65
:100A4C00002345F8043B012407EE904AB8EEE70A70
:100A5C00013420EE080A01F011FFB4F5805FA5EC1B
:100A6C00010AF1D1012388F80030012F38BF01278A
:100A7C0007EE907AF8EE677AF7EE006A67EEA97ADD
:100A8C0006F5804387EEA87A002486F8DC404FF404
:100A9C008042214686EEA76AC6EE877ABCEEC77AFC
:100AAC00C6ED388A17EE100A86ED3A9A86ED396A49
:100ABC00A3F8EE00A3F8EC40C3ED3C7A06F1EC0091
:100ACC0001F0AFFE0023304606F1DC0204704360F7
:100ADC008360C36103622C309042F7D1BDEC048B70
:100AEC00BDE8F0817C430020DB0FC93A784300203D
:100AFC0000B590F8DC2085B0042A8DED020ACDED0E
:100B0C00030A8DED001ACDED011A32D803462C20C4
:100B1C0002FB00F007EE901A195404A903EB000C29
:100B2C0011E903000CF10C0E8EE80300DDE9000165
:100B3C000CF1140E8EE80300F8EE677A93ED386A28
:100B4C00D3ED396A9FED0C7A67EE867A002167EE59
:100B5C00A67A013267EE877A0020FCEEE77ACCF8B1
:100B6C002400CCF81C10CCF82010CCED0A7A83F8B9
:100B7C00DC2005B05DF804FB0000804F6A4B1B784D
:100B8C00002B00F0C78000F5804130B4B1F8EC20A8
:100B9C00B1F8EE30D1ED3C7AD31AC3F30B03541CED
:100BAC0000EB830393ED3B7A00EB8202C4F30B035F
:100BBC0082ED3B0AA1F8EC3030EE470A90F8DC30BD
:100BCC0020EE274A002B00F0A880DFED583A584D54
:100BDC0003464FF0000CD3E90942144407EE904A47
:100BEC00F8EE677A93ED026AD3ED015A93ED057A2C
:100BFC0093ED085AFCEEE77A17EE902A120D02F5E7
:100C0C008061C1F30B0105EB820205EB8101D2ED92
:100C1C00006A91ED003AD3ED067A1A78A6EEC46A12
:100C2C00E4EE035A83ED026A65EEA74A67EEC67AD4
:100C3C00E6EE074AE5EE877AC3ED015AD0ED392A84
:100C4C0093ED077AA2EEA45AA2EEA77A83ED085A86
:100C5C0083ED077A90ED3A5AD3ED047AD3ED032A5B
:100C6C005C62B4EEC57AF1EE10FAB1EE450AC8BF7B
:100C7C00B0EE457AB4EEC70A93ED087AC8BF83ED9F
:100C8C00075A67EEC64AF1EE10FA65EEA77AB4EE93
:100C9C00C57AC8BF83ED070AF1EE10FAC8BFB0EEF3
:100CAC00457AE6EE227AB4EEC70AC8BF83ED085A3D
:100CBC00E5EEA24AF1EE10FAC8BFB0EE407A77EE3C
:100CCC00877A93ED076AC8BF83ED080A34EE867AFB
:100CDC0066EEE77AE3EE077A0AB177EEA77A90F838
:100CEC00DC200CF1010C624573EEA73A03F12C03E6
:100CFC003FF771AFF4EEC53AF1EE10FAD8BFB0EE93
:100D0C00635AB4EEC05AF1EE10FA58BFB0EE450A71
:100D1C0030BC70479FED050A704790ED3A5ADFEDF5
:100D2C00033AB1EE450AE5E77843002000000000E5
:100D3C007C430020F7EE007AB4EEE70AF1EE10FAED
:100D4C0003460ADCFFEE007AB4EEE70AF1EE10FA85
:100D5C0058BFF0EE407A60EEA70A07EE901AB7EE95
:100D6C00007A70EE870AFBEEEF7A67EEA07AFCEE63
:100D7C00E77A17EE900A091AC3ED0D7A996370475A
:100D8C00002800F06A812DE9F0410368DD0782B08C
:100D9C0004462FD59F498A6802F00C02042A00F001
:100DAC00EF808A6802F00C02082A00F0E580636884
:100DBC00B3F5803F00F0EE80B3F5A02F00F0798101
:100DCC00944D2A6822F480322A602A6822F4802208
:100DDC002A60002B40F0E38000F038FE064605E068
:100DEC0000F034FE801B642800F203812B689F0303
:100DFC00F6D423689D0728D5864A916811F00C0F0C
:100E0C0000F09280916801F00C01082900F08880B4
:100E1C00E368002B00F010817F4B7E4E01221A609C
:100E2C0000F014FE054605E000F010FE401B022801
:100E3C0000F2DF8033689F07F6D53368226923F010
:100E4C00F80343EAC203336023681A0753D45D07DF
:100E5C0030D5704A136C13F0805300F0818000255C
:100E6C006E4E3368D80540F1B480A368012B00F0B6
:100E7C00C480052B00F02D81664E326F22F00102EA
:100E8C003267326F22F004023267002B40F0BA80D6
:100E9C0000F0DCFD41F28838074605E000F0D6FD95
:100EAC00C01B404500F2A580336F9B07F6D4002D84
:100EBC0040F00981A369D3B1564DAA6802F00C0227
:100ECC00082A00F0CC80022B534B4FF000021A661C
:100EDC0000F0098100F0BAFD044605E000F0B6FD13
:100EEC00001B022800F285802B689B01F6D40020A1
:100EFC0002B0BDE8F08163690BB3474B454E01224C
:100F0C00C3F8802E00F0A2FD054604E000F09EFD23
:100F1C00401B02286DD8736F9B07F7D5236896E7A3
:100F2C00526851023FF574AF3A4A1268920744D5A1
:100F3C00E268012A41D0012002B0BDE8F081364AB6
:100F4C00344EC2F8803E00F081FD054604E000F00E
:100F5C007DFD401B02284CD8736F9F07F7D4DDE74B
:100F6C000193136C43F080531364136C03F08053A0
:100F7C000193019B012573E74A6851027FF517AF76
:100F8C00244A126892037FF535AF6268002A7FF419
:100F9C0031AFD0E71F4A136843F48033136000F07D
:100FAC0055FD1C4E054604E000F050FD401B642826
:100FBC001FD833689B03F7D51BE7164920690A68CD
:100FCC0022F0F80242EAC0020A601A077FF53FAF2E
:100FDC0091E7336843F48073336000F037FD0746C4
:100FEC003368D9053FF541AF00F030FDC01B022836
:100FFC00F6D9032002B0BDE8F081064A136F43F026
:10100C000103136700F022FD024F064641F28838B7
:10101C000BE000BF00380240000047420070004067
:10102C0000F014FD801B4045E3D83B6F9A07F7D5C1
:10103C00002D3FF43FAF46E0424A434E136000F0B0
:10104C0005FD054604E000F001FD401B0228D0D848
:10105C0033689907F7D42368F7E601207047012B12
:10106C003FF469AF6B68E26903F4800191427FF44D
:10107C0062AF226A03F03F0191427FF45CAF616A78
:10108C0047F6C0721A40B2EB811F7FF454AFA26ACC
:10109C00520803F44031013AB1EB024F7FF44BAFED
:1010AC00E26A03F07063B3EB026F14BF01200020FF
:1010BC001EE7254B1A6842F480221A601A6842F423
:1010CC0080321A606BE7204A136C23F08053136450
:1010DC00F0E61D4B1A6F42F004021A671A6F42F0C9
:1010EC0001021A678EE700F0B1FC064605E000F03D
:1010FC00ADFC801B02283FF67CAF2B689901F6D41F
:10110C00D4E90731626A0B4343EA8213D4E90A201B
:10111C0052080C4943EA0063013A43EA02430122B4
:10112C006B600A6600F092FC074D044605E000F087
:10113C008DFC001B02283FF65CAF2B689A01F6D59C
:10114C00D5E600BF0000474200380240014B0122A7
:10115C00DA64704700004742164908B58B6803F003
:10116C000C03042B1BD0082B01D0134808BD4A6874
:10117C004B68496813F4800302F03F0211D10E480A
:10118C00C1F38811A1FB0001FFF70AF8094B5B685A
:10119C00C3F3014301335B00B0FBF3F008BD074818
:1011AC0008BD0648C1F388110023A1FB0001FEF71E
:1011BC00F7FFEBE7003802400024F40000127A003D
:1011CC00002800F08780484A136803F00F038B4215
:1011DC002DE9F0410D46044609D2CBB213701368C9
:1011EC0003F00F038B4202D00120BDE8F08123688D
:1011FC00980714D5590704D53C498A6842F4E05243
:10120C008A601A0704D539498A6842F460428A60B8
:10121C003649A0688A6822F0F00202438A60DF0730
:10122C0021D56268012A57D0931E012B2F4B1B68C6
:10123C004DD99907D8D52D4EB36823F0030313432A
:10124C00B36000F003FC41F28838074604E000F07C
:10125C00FDFBC01B404544D8B368626803F00C0327
:10126C00B3EB820FF3D1204A136803F00F03AB42A8
:10127C0006D9EBB21370136803F00F03AB42B3D172
:10128C0023685A0706D51949E0688A6822F4E052A7
:10129C0002438A601B0707D5144A2169936823F41B
:1012AC00604343EAC1039360FFF756FF0F4A104CAB
:1012BC0092681049C2F303120346A25C0E48D34055
:1012CC0000680B6000F078FB0020BDE8F08198010D
:1012DC00B1D489E701207047044B1B689E03AAD444
:1012EC0082E7032081E700BF003C02400038024047
:1012FC00DC370008000000200800002010B5054C69
:10130C00E3681B0600D410BDFFF796F98023A37386
:10131C0010BD00BF003802402DE9F04F00230C68CF
:10132C00DFF83CA285B04FF0010B894603E0013396
:10133C00102B00F0A4800BFA03F202EA0408A2437B
:10134C00F5D1D9F8041001F0030C5A0003250CF167
:10135C00FF379540012F6FEA050540F29380BCF1F1
:10136C00030F08D0C76807EA050ED9F80870974034
:10137C0047EA0E07C76007680CFA02F23D402A43A1
:10138C0011F4403F0260D2D000220392DAF84420DC
:10139C0042F48042CAF84420DAF8442002F4804235
:1013AC000392039A23F0030202F1804203F0030735
:1013BC000F2602F59C32BF0006FA07FC654E9568B5
:1013CC00B04225EA0C0531D006F58066B04200F03B
:1013DC009180614EB04200F09380DFF888C1604587
:1013EC0000F09480DFF880C1604500F09580DFF854
:1013FC007CC1604500F09C80DFF874C1604500F052
:10140C009D80DFF870C1604500F08C80DFF868C10A
:10141C00604500F09980DFF864C160450CBF4FF067
:10142C00090C4FF00A0C0CFA07F73D4395604B4A38
:10143C009268CE026FEA0805484E54BF2A4048EA2B
:10144C000202B260F268454E8F0254BF2A4048EA4D
:10145C000202F26072688E03404E54BF2A4048EA82
:10146C00020272603268C90303F101033B4954BFA5
:10147C002A4048EA0202102B0A607FF45CAF05B0E8
:10148C00BDE8F08F876807EA050ED9F80C70974015
:10149C0047EA0E078760476827EA080EC1F3001772
:1014AC009F4047EA0E074760C76807EA050ED9F860
:1014BC000870974047EA0E07BCF1020FC7607FF433
:1014CC005AAFDF0800EB870700973E6AD9F8107017
:1014DC00019603F0070E4FEA8E0E0F2607FA0EF751
:1014EC0006FA0EFE019E26EA0E0E009E47EA0E0735
:1014FC00376240E74FF0010C0CFA07F73D4395E7D4
:10150C004FF0020C0CFA07F73D438FE74FF0030C3A
:10151C000CFA07F73D4389E74FF0040C0CFA07F778
:10152C003D4383E74FF0070C0CFA07F73D437DE78B
:10153C004FF0050C0CFA07F73D4377E74FF0060C1C
:10154C000CFA07F73D4371E74FF0080C0CFA07F75C
:10155C003D436BE70000024000080240003C0140A4
:10156C0000380240000C02400010024000140240FF
:10157C0000180240001C02400020024000240240DF
:10158C0038B5044600F062FA002C6BD023680022B8
:10159C00022184F8351084F834201A6822F00102F4
:1015AC0005461A6005E000F051FA431B052B37D8AD
:1015BC0023681A68D107F6D4D4E90120E168024304
:1015CC000A43D4E90451A0692A430A43E1691D681E
:1015DC0002430A4331492940256A2A430A43616A76
:1015EC00042924D01A605A6922F007021143D8B298
:1015FC002B4A59611038A2FB0052120929496FF38A
:10160C000903895CE1655F2888BF04333F228A4067
:10161C00A36500209A600123606584F8353038BDDD
:10162C0003232022626584F83530184638BDD4E98E
:10163C000B512943114319605969A26A21F0070122
:10164C00114341F00401002DD1D068B9012A21D0F9
:10165C0032F00202CBD1EA01C9D5402201236265E6
:10166C0084F83530012038BDB0F5005F04D0022A73
:10167C00F3D9032AEFD0BAE7032AB8D801A050F85F
:10168C0022F000BF671600086316000867160008F2
:10169C00A1160008B5F1C07FA9D1DEE73F8010F09C
:1016AC00ABAAAAAAEC37000870B490F83440856D48
:1016BC00012C0AD090F835404FF0010C644580F8AD
:1016CC0034C005D0002380F83430022070BC704741
:1016DC00022680F83560046800264665266826F4E4
:1016EC008026266063608368402B0EBFA260A160D9
:1016FC00E260C26D08BFE1603F239340AB6023689A
:10170C00026C43F0160323601AB1236843F00803FC
:10171C002360236843F001030020236070BC7047F2
:10172C00F0B583B0674A876D166800230193C36DCB
:10173C003D6808229A402A42044603D00168086892
:10174C00400778D401229A402A4203D02168496983
:10175C0008066AD404229A402A4203D021680968F8
:10176C0089075CD410229A402A4203D02168086869
:10177C00000741D420229A402A4214D021680868DC
:10178C00C00610D5BA6094F83520052A63D00B68D2
:10179C0013F4802F0B687ED0190340F18980E36B22
:1017AC000BB120469847636D23B3636DDA071AD5E6
:1017BC0022684549052384F835301368A1FB0616C9
:1017CC0023F00103B60A136002E01368DB0704D5AB
:1017DC00019B0133B3420193F7D90122002384F812
:1017EC00352084F83430E36C23B1204603B0BDE8D7
:1017FC00F040184703B0F0BDBA600A6812F4802FAD
:10180C000A6822D1D20503D40A6822F008020A60C1
:10181C00226C002AAED020469047E36DAAE7BA604E
:10182C00626D42F0040262659CE7BA60626D42F040
:10183C00020262658EE7086820F004000860BA6056
:10184C00626D42F0010262657CE71103E0D5A26C87
:10185C00002AE0D18EE70A6822F016020A604A6973
:10186C0022F080024A61226C3AB30A6822F0080224
:10187C000A603F2202FA03F3216DBB6001220023B0
:10188C0084F8352084F834300029B3D0204603B0D6
:10189C00BDE8F040084713F4807380D10A6822F049
:1018AC0010020A60012284F8352084F8343076E77F
:1018BC00636C002B7FF475AF75E7A26C002AD4D152
:1018CC00D7E700BF00000020B5814E1B0749CA684E
:1018DC0003024FF6FF0003F4E0630240134343F0AE
:1018EC00BF6343F40033CB60704700BF00ED00E0F2
:1018FC001B4BDB68C3F3022300B5C3F1070EBEF12B
:10190C00040F03F1040C28BF4FF0040EBCF1060FBA
:10191C001CD9A3F1030C4FF0FF3303FA0CF322EAAA
:10192C0003024FF0FF3303FA0EF321EA030303FA29
:10193C000CF313431B010028DBB20ADB00F16040FF
:10194C0000F5614080F800335DF804FB00229446FA
:10195C00E7E7044A00F00F00024413765DF804FB3D
:10196C0000ED00E0FCEC00E0002807DB044A410934
:10197C00012300F01F00834042F82130704700BF64
:10198C0000E100E00138B0F1807F01D30120704705
:10199C0010B44FF0E023074C58614FF0F00C84F872
:1019AC0023C00022072110469A615DF8044B19618F
:1019BC00704700BF00ED00E038B50E4A0E4B1278B0
:1019CC00054618684FF47A73B3FBF2F3B0FBF3F0EF
:1019DC00FFF7D8FF08B90F2D01D9012038BD0446F7
:1019EC00024629464FF0FF30FFF782FF034B20469B
:1019FC001D6038BD040000200000002008000020FD
:101A0C0008B50B4B1A6842F400721A601A6842F45B
:101A1C0080621A601A6842F480721A600320FFF721
:101A2C0055FF0F20FFF7C8FFFEF790FE002008BD02
:101A3C00003C0240034A044B11681B780B441360B2
:101A4C00704700BF7C83002004000020014B186805
:101A5C00704700BF7C830020036A026A22F00102F7
:101A6C0070B40262446882690D6822F073022A43E2
:101A7C008D6823F002032B430E4DA8420AD005F5C6
:101A8C008065A84206D049684460826170BC41639D
:101A9C0003627047CD6823F008032B43D1E9056539
:101AAC0024F4407446EA050C23F004034CEA0404C5
:101ABC00E9E700BF00000140036A026A22F4807269
:101ACC0070B402624468C2690D6822F073022A4342
:101ADC008D6823F4007343EA05230F4DA8420AD006
:101AEC0005F58065A84206D049684460C26170BCA7
:101AFC00C16303627047CD6823F4006343EA052396
:101B0C00D1E9056524F4405446EA050C23F48063BE
:101B1C0044EA0C14E8E700BF00000140036A026AC3
:101B2C0022F4805230B402624468C2690D6822F417
:101B3C00E64242EA05228D6823F4005343EA05335A
:101B4C00094DA8420AD005F58065A84206D049681F
:101B5C004460C26130BC0164036270474D6924F477
:101B6C00804444EA8514F2E70000014069BB90F818
:101B7C003E30012B35D1022380F83E30036801F052
:101B8C001F01186A01228A4020EA02001862186AB2
:101B9C00254902438B421A6225D0244A934222D013
:101BAC00B3F1804F06D0224A934203D002F58062F3
:101BBC0093422DD19A6802F00702062A03D01A68C4
:101BCC0042F001021A6000207047042910D0082945
:101BDC0016D090F84130012B03D1022380F841300C
:101BEC00CCE7012070475A6C42F400425A64E1E79A
:101BFC0090F83F30012BF4D1022380F83F30BDE741
:101C0C0090F84030012BECD1022380F84030B5E73E
:101C1C00084A9342CED0084A9342CBD0A2F59432D4
:101C2C009342CCD1C6E700BF000001400004014044
:101C3C0000040040000C004000400140036810B458
:101C4C001A6A01F01F044FF0010C0CFA04FC22EA92
:101C5C000C021A62204A1C6A1C62934215D002F5CF
:101C6C008062934211D01C6A41F21112144204D1C9
:101C7C001C6A40F24442144222D00123A1B980F8DC
:101C8C003E305DF8044B002070471C6A41F2111283
:101C9C001442E8D11C6A40F244421442E3D15A6C1B
:101CAC0022F400425A64DEE704290ED008290CBF46
:101CBC0080F8403080F841305DF8044B00207047CC
:101CCC001A6822F001021A60D7E780F83F305DF8FD
:101CDC00044B0020704700BF00000140704700BF5C
:101CEC00FFF744BFFFF7AABF90F83C20012A6ED043
:101CFC000346026830B40120022483F83C0083F8C8
:101D0C003D40946824F47F4424F0770494600C687C
:101D1C00602C76D019D8402C5BD02ED8202C04D037
:101D2C0000F2888034F0100107D1916821F0700125
:101D3C00214341F00701916000200121002283F82A
:101D4C003D1083F83C2030BC7047B4F5805FF3D075
:101D5C00B4F5005F2BD0702CEFD1D1E90150946811
:101D6C002843CD6824F47F4140EA05200843906065
:101D7C00916841F077019160DEE7502CDDD1486825
:101D8C00CC68116A21F00A010843116A21F00101A3
:101D9C001162916921F0F00141EA04119161106224
:101DAC00916821F0700141F057019160C4E7D1E9CD
:101DBC00015094682843CD6824F47F4140EA052003
:101DCC0008439060916841F480419160B4E702202F
:101DDC0070474868CC68116A21F00A010843116AFF
:101DEC0021F001011162916921F0F00141EA041125
:101DFC0091611062916821F0700141F0470191608E
:101E0C009AE74868CC68116A21F0A00141EA0011F8
:101E1C00106A20F010001062906920F4704040EAC3
:101E2C00043090611162916821F0700141F06701FA
:101E3C00916081E7302C3FF478AF7EE770B4344E7C
:101E4C004A6903688D680C68B04245D0B0F1804F88
:101E5C0034D0A6F57C46B04230D006F58066B04250
:101E6C002CD006F58066B04228D006F57846B042F4
:101E7C0032D0284EB04225D006F58066B04221D033
:101E8C0006F58066B0421DD0A6F59836B04233D028
:101E9C0006F58066B04215D006F58066B04211D0CA
:101EAC0023F08003C5621A4384620368012143F066
:101EBC000403036070BC4161026070474E6823F0FC
:101ECC0070033343C968C56223F440730B4323F09A
:101EDC0080031A438462E8E74E6823F070033343AF
:101EEC00CE68C56223F44073334323F080038462CD
:101EFC001A430B690363D8E7C96823F440730B4397
:101F0C0023F080031A43044BDD629C62CDE700BFD3
:101F1C0000000140004001400018004050B310B5D3
:101F2C0090F83D30044603F0FF02F3B12146022342
:101F3C0084F83D3051F8040BFFF780FF012384F83F
:101F4C00463084F83E3084F83F3084F8403084F8D2
:101F5C00413084F8423084F8433084F8443084F8BB
:101F6C00453084F83D30002010BD80F83C20FEF751
:101F7C00CFFCDBE70120704750B310B590F83D3033
:101F8C00044603F0FF02F3B12146022384F83D30EE
:101F9C0051F8040BFFF752FF012384F8463084F804
:101FAC003E3084F83F3084F8403084F8413084F877
:101FBC00423084F8433084F8443084F8453084F857
:101FCC003D30002010BD80F83C20FFF787FEDBE79A
:101FDC0001207047036A026A22F0100270B4026298
:101FEC00446882690D6822F4E64242EA05228D6853
:101FFC0023F0200343EA05130E4DA8420AD005F541
:10200C008065A84206D049684460826170BC8163D7
:10201C0003627047CD6823F0800343EA0513D1E9CE
:10202C00056524F4406446EA050C23F0400344EAB9
:10203C008C04E8E70000014038B590F83C30012BE7
:10204C0057D0012304460D4680F83C300C2A08D8A2
:10205C00DFE802F01E0707072E0707073F070707F1
:10206C000C000120002384F83C3038BD0068FFF7D9
:10207C0055FDC3692A6943F40063C361C36923F442
:10208C008063C361C36943EA0223C3610020E9E7AB
:10209C000068FFF7E1FC83692A6943F00803836158
:1020AC00836923F004038361836913438361EDE740
:1020BC000068FFF78FFF83692A6943F4006383612B
:1020CC00836923F480638361836943EA0223836118
:1020DC00DCE70068FFF7F0FCC3692A6943F00803EA
:1020EC00C361C36923F00403C361C3691343C361B0
:1020FC00CCE7022038BD00BF00293ED190F8423019
:10210C00012B46D1022380F84230036801F00F0105
:10211C00186A04228A4020EA02001862186A2649CA
:10212C0002431A625A6C8B4242F400425A6419D030
:10213C00B3F1804F16D0214A934213D002F580623E
:10214C0093420FD002F5806293420BD002F5784295
:10215C00934207D002F57052934203D0A2F5943209
:10216C00934204D19A6802F00702062A03D01A6837
:10217C0042F001021A600020704704290BD0082994
:10218C0011D090F84530012B03D1022380F8453053
:10219C00BBE70120704790F84330012BF9D10223A3
:1021AC0080F84330B1E790F84430012BF1D1022391
:1021BC0080F84430A9E700BF000001400004004053
:1021CC00036810B41A6A01F00F044FF0040C0CFAF7
:1021DC0004FC22EA0C021A621A6A1A621C6A41F2A4
:1021EC001112144204D11C6A40F24442144222D00F
:1021FC001C6A41F21112144204D11C6A40F244428E
:10220C00144213D0012329B980F842305DF8044BF5
:10221C0000207047042913D008290CBF80F84430E3
:10222C0080F845305DF8044B002070471A6822F0A6
:10223C0001021A60E6E75A6C22F400425A64D7E7AE
:10224C0080F843305DF8044B00207047FFF754BF13
:10225C00FFF7B6BF90F83C20012A37D0034602683E
:10226C00022030B483F83D0050680D68946820F06B
:10227C00700028435060164882421AD0B2F1804F49
:10228C0017D0A0F57C40824213D000F580608242CA
:10229C000FD000F5806082420BD000F5784082426E
:1022AC0007D000F57050824203D0A0F594308242E2
:1022BC0004D1496824F080040C439460002001226E
:1022CC0083F83D2083F83C0030BC704702207047F7
:1022DC000000014090F83C30012B23D010B4D1E920
:1022EC00024323F440730246234348680C6823F4EA
:1022FC008063034323F400630869234323F480536E
:10230C0003434869CC6923F40053034323F480430B
:10231C00106800212343436482F83C1008465DF8A2
:10232C00044B704702207047002800F09E8038B59F
:10233C00056C04463DB1236CDB060CD5002384F8F8
:10234C003C30012038BDFEF71DFA6564236C84F81F
:10235C003C50DB06F2D4236C474A23F4885323F019
:10236C00020343F0020323645168236821F44031D3
:10237C00516051686068014351605A682069A168D6
:10238C0022F480725A605A6842EA00225A605A68F3
:10239C00E06822F040725A605A680A435A609A68A0
:1023AC00A16A22F400629A609A6802439A60334AE6
:1023BC0091429A6851D022F07062E06A9A609A68F1
:1023CC00114399609A6822F040529A609A680243CD
:1023DC009A609A6822F002029A609A68217E42EA18
:1023EC0041029A6094F82020002A40D05A68616A11
:1023FC0042F400625A605A6822F460425A605A6889
:10240C00013942EA41325A60DA6AE16922F4700217
:10241C00DA62DA6A013942EA0152DA629A6861696F
:10242C0022F400729A609A6894F8300042EA4022D2
:10243C009A609A6822F480629A609A68002042EA54
:10244C0081229A606064236C23F0030343F0010340
:10245C002364002384F83C3038BD22F070629A600B
:10246C009A6822F040529A60B3E7012070475A688C
:10247C0022F400625A60C7E7002301400100000FFC
:10248C0070B5054690F83C0082B0002301280193FA
:10249C0000F085802E681346012285F83C20B26836
:1024AC00D40714D4B26842F00102B2603F4A1068FB
:1024BC003F4AA2FB0020800C00EB40000190019AE7
:1024CC002AB1019C013C019401980028F9D1B26811
:1024DC00D00503D5B26822F48072B260B06810F0F7
:1024EC0001004DD0286C20F4E06020F0010040F495
:1024FC00807028647268520505D52A6C22F440520B
:10250C0042F480522A642A6CA86B12F480521CBFCD
:10251C006A6C22F006026A64002285F83C200A46A6
:10252C002449C163244901642449C1646FF0220128
:10253C003160716841F080617160B16841F4807103
:10254C00B16006F14C01FFF7AFF81D4A2B685168DA
:10255C00CC061FD11B498B4209D001F580718B42EF
:10256C0020D019498B4213D15268D20610D49A68E4
:10257C0012F0405F0CD19A6842F080429A6007E0FA
:10258C002B6C43F010032B646B6C43F001036B64F6
:10259C0002B070BD0B4A9342E9D002B070BD02206C
:1025AC0002B070BD5268D106E1D0F1E70000002006
:1025BC0083DE1B4305260008DD250008ED250008F9
:1025CC00002301400020014000220140704700BF61
:1025DC0008B5806BFFF7FAFF08BD00BF704700BF5E
:1025EC00806B08B540230364436C43F004034364DD
:1025FC00FFF7F4FF08BD00BF836B1A6C12F0500F8D
:10260C0010B51A6C23D142F4007219681A648A68E6
:10261C0012F0405F17D11A7EAAB9CA6A12F4700F71
:10262C0002D08A6850050ED44A6822F020024A6013
:10263C001A6C22F480721A641A6CD10403D41A6CCA
:10264C0042F001021A641846FEF720F810BDD206BB
:10265C0004D49B6BBDE81040DB6C18471846FFF7A1
:10266C00BDFF10BD70B590F83C3082B00246012B16
:10267C004FF00000019000F08180012382F83C3083
:10268C000D6813688C68092DA8B228D81E6905EB53
:10269C00450E4FF0070C0CFA0EFC26EA0C061E61D8
:1026AC001E6904FA0EF434431C614C68062C04EBCE
:1026BC0084012AD85C6B05394FF01F0C88400CFA4A
:1026CC0001F124EA01015963596B084358633B49F2
:1026DC008B422BD0002082F83C0002B070BD00EB86
:1026EC00400CDE68ACF11E0C4FF0070E04FA0CF433
:1026FC000EFA0CFC26EA0C06DE60DE683443DC6065
:10270C004C68062C04EB8401D4D90C2C1FD81C6B00
:10271C0023391F26884006FA01F124EA01011963C6
:10272C00196B0843254918638B42D3D1122D1BD04A
:10273C00234B9D4225D0112DCCD1224B596821F42D
:10274C0080015960596841F400015960C2E7DC6AA4
:10275C0041391F26884006FA01F124EA0101D962A9
:10276C00D96A0843D862B2E7164B596821F40001C4
:10277C005960596841F480015960ABE7022002B0FE
:10278C0070BD104B104C5968104821F480015960F1
:10279C00596841F4000159602368A0FB03039B0CAA
:1027AC0003EB83035B000193019B002B92D0019BF5
:1027BC00013B0193019B002BF9D18BE700200140D9
:1027CC0012000010002301400000002083DE1B4398
:1027DC00DFF834D0FEF70CF90C480D490D4A0023F4
:1027EC0002E0D458C4500433C4188C42F9D30A4ABA
:1027FC000A4C002301E013600432A242FBD300F028
:10280C0019F8FDF75BFD7047000003200000002065
:10281C000C000020D43B0008100000208083002016
:10282C00FEE702440346934200D1704703F8011BB4
:10283C00F9E7000070B50D4B0D4D5B1B9C1000268D
:10284C00A64209D100F0B8FF0A4D0B4B5B1B9C1044
:10285C000026A64205D170BD55F8043B98470136B9
:10286C00EEE755F8043B98470136F2E7CC3B0008FD
:10287C00CC3B0008CC3B0008D03B000810EE103AD3
:10288C00194923F000428A421BD9B2F1FF4F02D3FF
:10289C0030EE400A704700B583B0684600F0F2F89D
:1028AC0000F0030001289DED000ADDED010A13D0B4
:1028BC0002280BD098B9012000F09CF803B05DF809
:1028CC0004FBDFED0A0A002000F094B8012000F0B0
:1028DC0091F8B1EE400AF1E700F00AF8EEE700F0EB
:1028EC0007F8B1EE400AE9E7D80F493F00000000B5
:1028FC0010EE103A23F00043B3F1485F2CD2FDEEFA
:10290C00C07A17EE903A002B60D060EE007A9FED03
:10291C00317A9FED315ADFED315A9FED316ADFED9F
:10292C00316AA7EE875A9FED307AE7EE855AA7EE0B
:10293C00A56AA7EE867AE7EE876A67EEA66A60EE6E
:10294C00C00AB6EE007AE7EEA60AB7EE000AD7EE9A
:10295C00870A30EE600A704760EE007A9FED1D7AB0
:10296C009FED1D5ADFED1D5A9FED1D6ADFED1D6AAF
:10297C001E4AA7EE875A93429FED1B7AE5EE275A23
:10298C00A5EEA76AA6EE277AE7EE276A66EEA76A97
:10299C00D5D9174A934214D803F17F4307EE103A66
:1029AC00B7EE006A36EE476A60EEC00AF6EE005AE1
:1029BC0097EEA57AE7EEA60A37EE607A36EE470A6E
:1029CC007047B6EE076AB5EE027AEDE7B7EE000A8D
:1029DC00704700BF4ED747ADF6740F317CF293B4FD
:1029EC00010DD037ABAA2A3D610BB6BA9999993E25
:1029FC000000483F10EE103A23F00043B3F1485F5B
:102A0C0004D2FDEEC07A17EE903A5BB360EE007A1A
:102A1C009FED157ADFED155A9FED156ADFED156AFE
:102A2C00E7EE875A9FED147AA5EEA76A20EE275A97
:102A3C00E6EE276AA6EEA77A30B9DFED106AE7EE6C
:102A4C00876AA6EE850A704727EE457AF6EE006A8D
:102A5C00A0EEA67ADFED0A6AD7EE270AE5EE260A83
:102A6C0030EE600A704700BFD3C92E2F342FD7B277
:102A7C001BEF3836010D50B98988083CABAA2ABE29
:102A8C00ABAA2A3E70B510EE103A8B4A23F00044E4
:102A9C00944286B0054671D9884A94421E4624D881
:102AAC0023F00042002BDFED867A864922F00F02DC
:102ABC00B0EE407A40F3E6808A4270EE677A09BF46
:102ACC009FED817ADFED816ADFED816A77EEC77A5F
:102ADC0037EEE67A77EEC77A80ED007A77EEE67A13
:102AEC00C0ED017A012006B070BD7A4A944253D9E8
:102AFC00B4F1FF4F49D2E215863AA4EBC25307EE6C
:102B0C00903ABDEEE77ADFED746AB8EEC77A77EEED
:102B1C00C77A8DED037A67EEA67ABDEEE77AB8EE4A
:102B2C00C77A77EEC77A8DED047A67EEA67AF5EE62
:102B3C00407AF1EE10FACDED057A40F08E80B5EECC
:102B4C00407AF1EE10FA40F08A800123634901913A
:102B5C000221009103A8294600F0D2F8002EC2DA17
:102B6C0095ED007AD5ED017AB1EE477AF1EE677A00
:102B7C0085ED007AC5ED017A4042B4E7002285ED7F
:102B8C00000A4260002006B070BD70EE407AC0EDC5
:102B9C00017AC0ED007AF5E700F0AAF89FED507AC3
:102BAC009FED476AF6EE007AE0EE077A9FED477AE2
:102BBC00FDEEE77AF8EEE76A17EE900AA6EEC60A83
:102BCC001F2866EE877AB1EE666A30EE677A1EDCF5
:102BDC00444A411E26F0004352F8212023F0FF0303
:102BEC00934214D085ED007A30EE470A002E30EE79
:102BFC00670A85ED010ABFF676AFB1EE477AB1EE02
:102C0C00400A85ED007A85ED010A40426BE717EE2C
:102C1C00103AC3F3C753C3EBD453082B4FEAE45217
:102C2C00E0DD9FED297A9FED2A5AF0EE405AE6EE50
:102C3C00075A70EE657AE6EE077AD6EE857A35EEAF
:102C4C00E77A17EE103AC3F3C753D21A192A08DCE5
:102C5C00B0EE650A85ED007AC6E7032376E702231A
:102C6C0074E79FED217A9FED215AB0EE650AA6EE2E
:102C7C00070A75EEC07AE6EE077AD6EE857A30EE64
:102C8C00677AAFE78A4270EE277A09BF9FED0E7A1A
:102C9C00DFED0E6ADFED0E6A77EE877A37EEA67AF5
:102CAC0077EEC77A80ED007A77EEA67AC0ED017ADE
:102CBC004FF0FF3017E700BFD80F493FE3CB16406A
:102CCC00800FC93FD00FC93F0044353743443537D7
:102CDC0008A3852E800F49430000804374380008F8
:102CEC0084F9223FF437000800A3852E32318D245D
:102CFC0010EE103A23F0004300EE103A704700BF7C
:102D0C002DE9F04F2DED048BDBB01C46944603935C
:102D1C000A46BA4B68991CF1040F53F8217082468D
:102D2C0004F1FF39C0F25682BCF1030348BF0CF129
:102D3C000403DB10029301334FEAC30EACEB0E031A
:102D4C000593029B17EB0900A3EB090316D4013082
:102D5C009FEDAB7A699C18441EA9002BA4BF54F8B4
:102D6C00235007EE905A03F10103ACBFF8EEE77A5B
:102D7C00F0EE477A8342E1EC017AEED1002FC0F2FB
:102D8C00E28203991EA800EB81004FEA81087E18AD
:102D9C00002346AD4C460AEB8101B9F1000F80F2DD
:102DAC00C8800134B44245F8043B00F10400F4D16E
:102DBC000DF1280B0BEB8703CDE9062E043B9FEDA1
:102DCC00929ADFED908A059804930AEB080446AEBC
:102DDC000BEB87080097CDF820C00DEB8703002F75
:102DEC0093ED460A4FEA870515DD73195A4660EED6
:102DFC00097AB0EE407AFDEEE77A73ED016AF8EEEF
:102E0C00E77AB342A7EEE87A37EEA60ABDEEC77AA8
:102E1C00A2EC017AEBD1019000F0B8FAF4EE007A52
:102E2C00B0EE408A20EE270A00F01EFBF2EE007A8C
:102E3C00A0EE678A01980028FDEEC89AF8EEE97AB0
:102E4C0038EE678A40F38280791EC0F108035BF884
:102E5C0021E04EFA03FC0CFA03F3AEEB030EC0F1C7
:102E6C00070219EE903A4EFA02F26344002A09EE78
:102E7C00903A4BF821E000F3AF80B5EE408AF1EECA
:102E8C0010FA74D1009B9F420ADD5D44002355F873
:102E9C00041D454543EA0103F9D1002B40F00281A2
:102EAC00009B013B5BF823207B1C9C46002A40F0D6
:102EBC00F780049A012152F8045D0131002DFAD0FB
:102ECC003944029D039A05EB030E0EF1804E699D69
:102EDC000EF1FF3E3A4405EB8E0E1EAD06EB83075A
:102EEC0005EB8205DEED017AF8EEE77AB9F1000F19
:102EFC000EF1040EE5EC017ADFED417A09DB2A468E
:102F0C005346F3EC016A32ED017AA342E6EE877A7E
:102F1C00F7D10CF1010C8C45E7EC017AE2DD0F46A0
:102F2C005BE70134B442E5EC017A00F104003FF4B4
:102F3C003FAFDFED337A83465346F3EC016A3BED4A
:102F4C00017A8B42E6EE877AF7D1EAE700F09180BE
:102F5C00F6EE007AB4EEE78AF1EE10FA80F22981EF
:102F6C00B5EE408AF1EE10FA4FF000028AD092468C
:102F7C00DDE9062EDDF820C00197AEEB0C00B0EEBB
:102F8C00480A009F009200F001FADFED1E6AB4EED1
:102F9C00E60AF1EE10FADDE90023F0EE407AC0F219
:102FAC009C819FED197A059920EE077A0831BDEEC8
:102FBC00C77A0591B8EEC77A5C1CE7EE667ABDEE6F
:102FCC00C77AFDEEE77A17EE901A4BF8231017EE3E
:102FDC00103A4BF824307EE00133002F09EE903A82
:102FEC0040F39D8159464FF0000E51F8043B002BE5
:102FFC0039D0C3F5807341F8043C0CE0B83B0008B1
:10300C0000000000000080430000803B0B68C3F10F
:10301C00FF0341F8043B0EF1010E7745F6DC01236A
:10302C009E4600280BDD012800F0BB80022806D14B
:10303C00791E5BF8213003F03F0C4BF821C0022ABB
:10304C007FF41BAFB7EE000A734630EE488A002BB4
:10305C003FF413AF0992019000F098F90198099A86
:10306C0038EE408A09E70EF1010E7745BDDC9E462D
:10307C00D7E77B1E5BF82320D211002A7FF7FDAE29
:10308C0019EE903A002F03F1010309EE903AA9DCF6
:10309C00022A7FF4F2AEF7EE007A37EEC88AECE63D
:1030AC0019460EE73B469246DDE905125C1EA1F17E
:1030BC0008005BF82410009F059061B903F1804370
:1030CC00013B0BEB8303014653F8040D013C08391B
:1030DC000028F9D0059105980092B7EE000A00F08F
:1030EC0055F9002C009AB0EE407AC0F22281601C97
:1030FC0046AD5FED3B6A81000BEB800305EB800076
:10310C0073ED017AF8EEE77A5B4567EE877A27EE86
:10311C00267A60ED017AF3D10DF1C8080E1F2E440A
:10312C00C646A4460025002F7DDBDFF85C92DFED60
:10313C00957A3046002307E0F9EC016AB0EC017A8D
:10314C009F42E6EE877A03DBAB4203F10103F3DD2A
:10315C000CF1FF3CBCF1FF3FEEEC017A05F10105EF
:10316C00A6F10406E1D1689B022B6ADC002B36DC4D
:10317C000ED1DFED847A414431ED017A414577EE91
:10318C00877AF9D15346002B40F0C680C2ED007A05
:10319C0019EE903A03F007005BB0BDEC048BBDE870
:1031AC00F08F791E5BF8213003F07F0C4BF821C0B7
:1031BC0045E719EE903A002F03F1010309EE903A1E
:1031CC00C8BF02223FF70EAFF7EE007A37EEC88A7F
:1031DC00022252E600234FF0080E0293AEE5DDED1D
:1031EC00327A9FED687A414471ED016A414537EEC0
:1031FC00267AF9D15346002B40F0848077EEC77ABB
:10320C0082ED007A64B133A90123B1EC017A013368
:10321C009C4277EE877AF8DA53460BB1F1EE677A77
:10322C00C2ED017AB4E70CF1FF3C0023BCF1FF3F87
:10323C004EF8043B05F10105A6F104067FF473AFCB
:10324C0091E7689B032BA3D1002C00F08C8008EB3A
:10325C00840595ED007AA0002B46294671ED017A84
:10326C00F0EE476A37EE277A414577EEC77A81ED63
:10327C00007A77EEA67AC1ED017AEFD1012C72D0EB
:10328C0095ED007A08F1040173ED017AF0EE476ACE
:10329C0037EE277A994277EEC77A83ED007A77EE8C
:1032AC00A67AC3ED017AEFD1031DDFED367A4344E4
:1032BC0008F1080833ED017A984577EE877AF9D151
:1032CC005346DDED326A9DED337A73B9C2ED006A77
:1032DC0082ED017AC2ED027A5AE7FDEEC07A1C4605
:1032EC0017EE901A4BF82310F5E6F1EE666AB1EE84
:1032FC00477AF1EE677AC2ED006A82ED017AC2ED8F
:10330C00027A45E7F1EE476A77EEC77AC2ED006ABA
:10331C00002C7FF478AF81E7F1EE677A36E701286D
:10332C0015D002287FF4B4AE0EF03F034BF82130D9
:10333C00AEE6689B022B12DC002B17DC7FF428AF67
:10334C00DFED107A1EE7039B4FEA830830E50EF0A1
:10335C007F03022A4BF821307FF48FAD9BE6689BEC
:10336C00032B7FF415AFDFED077AA9E75346DDEDAC
:10337C00327A1BB14FF0004313604FE70023136008
:10338C004EE700BF000000008C3B000810EE103A26
:10339C0033F000411A4625D0B1F1FF4F1FD213F084
:1033AC00FF4F20D1DFED297A294A60EE277A90422F
:1033BC0017EE903A31DB4CF2503CC3F3C7516045E9
:1033CC001A46A1F1190114DD002BDFED227A9FEDD5
:1033DC00210AB8BFDFED207A27EE800A704730EE65
:1033EC00000A704770474CF2503C60454FEAD1518F
:1033FC00EADC0144FE29E7DC002915DC11F1160F8B
:10340C0019DB193122F0FF4242EAC15207EE902A31
:10341C009FED120A27EE800A7047DFED117A07EE56
:10342C00103A27EE270A704722F0FF4242EAC153B6
:10343C0000EE103A7047002BDFED097A9FED080A79
:10344C00B8BFDFED087A27EE800A70470000004C09
:10345C00B03CFFFFCAF24971CAF249F100000033D7
:10346C006042A20D6042A28D10EE102AC2F3C75327
:10347C007F3B162B22F000411BDC002B10461EDB81
:10348C001A4919410A4223D0DFED197A70EE277AD6
:10349C00F5EEC07AF1EE10FA1ADD002A04DA4FF4D8
:1034AC00000242FA03F3184420EA010300EE103A3A
:1034BC007047B1F1FF4F0BD330EE000A7047DFEDD0
:1034CC000C7A70EE277AF5EEC07AF1EE10FA00DC89
:1034DC007047002A02DB9FED070A704711B99FED78
:1034EC00060A7047BFEE000AF2E700BFFFFF7F003D
:1034FC00CAF2497100000000000000802DE9F0477D
:10350C008C468E46089E154604461946002B40F004
:10351C00D080724547D9B2FA82F74FB1C7F1200378
:10352C000EFA07FC20FA03F3BD4043EA0C0CBC4036
:10353C004FEA154EA8B2BCFBFEF8230C0EFB18CCC0
:10354C0008FB00F943EA0C43994528D9EB1808F11C
:10355C00FF3204D2994502D9A8F102022B44A3EB05
:10356C000903A4B2B3FBFEFC0EFB1C330CFB00F0F6
:10357C0044EA0344A04214D92C190CF1FF3304D2B1
:10358C00A04202D9ACF102032C44241A43EA0240B3
:10359C001EB1FC40002334607360BDE8F0874246E6
:1035AC00DDE76346F1E7002A79D0B2FA82F3002B0B
:1035BC003FD01946C1F1200302FA01F52EFA03F2AD
:1035CC000EFA01FE20FA03F343EA0E034FEA154EFE
:1035DC0000FA01F4B2FBFEFCAFB20EFB1C201A0C7D
:1035EC000CFB07F842EA004290455AD9AA180CF194
:1035FC00FF3004D2904502D9ACF102002A44A2EB70
:10360C0008029BB2B2FBFEFC0EFB1C220CFB07F764
:10361C0043EA02439F4246D9EB180CF1FF3204D225
:10362C009F4202D9ACF102022B44DB1B42EA00425E
:10363C0002E0AEEB020301224FEA154EAFB2B3FB30
:10364C00FEFC200C0EFB1C330CFB07F840EA03437A
:10365C0098452AD9EB180CF1FF3004D2984502D9C1
:10366C00ACF102002B44A3EB0803A4B2B3FBFEFCA9
:10367C000EFB1C330CFB07F744EA0344A74216D994
:10368C002C190CF1FF3304D2A74202D9ACF102037E
:10369C002C44E41B43EA00400F46114678E71F21F7
:1036AC0088E76046ABE76246BFE76046DBE7634608
:1036BC00EFE7734506D916B9002108466DE7C6E950
:1036CC00000EF9E7B3FA83F787B9734501D3824249
:1036DC0007D8841A6EEB030301209C461EB9002107
:1036EC005BE73846FAE7C6E9004CF8E7C7F1200C6F
:1036FC00BB4022FA0CF51D4320FA0CF12EFA0CF308
:10370C000EFA07FE41EA0E014FEA154900FA07F4DA
:10371C00B3FBF9F81FFA85FE09FB18300B0C08FBFC
:10372C000EFA43EA00439A4502FA07F240D9EB1825
:10373C0008F1FF3004D29A4502D9A8F102002B44BB
:10374C00A3EB0A0389B2B3FBF9F809FB183308FBA6
:10375C000EFE41EA03418E452CD9691808F1FF335E
:10376C0004D28E4502D9A8F10203294443EA004051
:10377C00A0FB0298A1EB0E014145CE46434602D375
:10378C0006D14C4504D2B9EB020E68EB05030138A7
:10379C00002EA4D0B4EB0E0261EB030101FA0CFC79
:1037AC0022FA07F34CEA0303F940C6E9003196E725
:1037BC004046C5E74346D9E7F8B500BFF8BC08BC9E
:1037CC009E467047F8B500BFF8BC08BC9E467047D3
:1037DC0000000000000000000102030406070809B5
:1037EC000006101600061016000FC93F000F4940C6
:1037FC0000CB9640000FC9400053FB4000CB164154
:10380C0000ED2F41000F49410031624100537B41D3
:10381C00003A8A4100CB9641005CA34100EDAF41D8
:10382C00007EBC41000FC94100A0D5410031E241EE
:10383C0000C2EE410053FB4100F20342003A0A423F
:10384C000083104200CB164200141D42005C234240
:10385C0000A5294200ED2F4200363642007E3C4244
:10386C0000C74242000F4942A2000000F9000000CC
:10387C00830000006E0000004E00000044000000B9
:10388C001500000029000000FC00000027000000CB
:10389C0057000000D1000000F500000034000000CB
:1038AC00DD000000C0000000DB0000006200000032
:1038BC0095000000990000003C000000430000004F
:1038CC009000000041000000FE00000051000000CC
:1038DC0063000000AB000000DE000000BB00000035
:1038EC00C500000061000000B700000024000000CB
:1038FC006E0000003A000000420000004D00000085
:10390C00D2000000E00000000600000049000000AA
:10391C002E000000EA00000009000000D1000000A9
:10392C00920000001C000000FE0000001D000000C2
:10393C00EB0000001C000000B1000000290000009A
:10394C00A70000003E000000E8000000820000001C
:10395C0035000000F50000002E000000BB00000048
:10396C004400000084000000E90000009C000000FE
:10397C007000000026000000B40000005F00000092
:10398C007E000000410000003900000091000000A2
:10399C00D600000039000000830000005300000036
:1039AC0039000000F40000009C00000084000000BE
:1039BC005F0000008B000000BD000000F90000005B
:1039CC00280000003B0000001F000000F800000071
:1039DC0097000000FF000000DE0000000500000062
:1039EC00980000000F000000EF0000002F00000006
:1039FC00110000008B0000005A0000000A000000BB
:103A0C006D0000001F0000006D000000360000007B
:103A1C007E000000CF00000027000000CB0000005B
:103A2C0009000000B70000004F0000004600000035
:103A3C003F000000660000009E0000005F000000D8
:103A4C00EA0000002D0000007500000027000000B7
:103A5C00BA000000C7000000EB000000E500000009
:103A6C00F10000007B0000003D000000070000009A
:103A7C0039000000F70000008A000000520000002E
:103A8C0092000000EA0000006B000000FB00000048
:103A9C005F000000B10000001F0000008D0000005E
:103AAC005D0000000800000056000000030000004C
:103ABC003000000046000000FC0000007B0000000D
:103ACC006B000000AB000000F0000000CF00000015
:103ADC00BC000000200000009A000000F400000070
:103AEC00360000001D000000A9000000E3000000EB
:103AFC0091000000610000005E000000E600000084
:103B0C001B00000008000000650000009900000088
:103B1C00850000005F00000014000000A000000001
:103B2C0068000000400000008D000000FF00000055
:103B3C00D8000000800000004D0000007300000061
:103B4C002700000031000000060000000600000005
:103B5C001500000056000000CA00000073000000B1
:103B6C00A8000000C900000060000000E200000096
:103B7C007B000000C00000008C0000006B00000007
:103B8C000000C93F0000F0390000DA370000A23312
:103B9C000000842E0000502B0000C2270000D02211
:103BAC000000C41F0000C61B0000441704000000E6
:083BBC000700000009000000F1
:083BC40044F9FF7F010000003D
:043BCC0005020008E6
:043BD000E101000807
:0C3BD4000024F4000100000010000000BC
:04000005080027DDEB
:00000001FF
