:020000040800F2
:100000000000022075220008850700088D070008FF
:100010008F07000891070008930700080000000000
:10002000000000000000000000000000950700082C
:100030009707000800000000990700089B070008C8
:10004000C5220008C5220008C5220008C5220008F4
:10005000C5220008C5220008C5220008C5220008E4
:10006000C5220008C5220008C5220008C5220008D4
:10007000C5220008C5220008C5220008C5220008C4
:10008000C5220008C5220008C5220008C5220008B4
:10009000C5220008C5220008C5220008C5220008A4
:1000A000C5220008C5220008C5220008C522000894
:1000B000C5220008C5220008C5220008C522000884
:1000C000C5220008C5220008C5220008C522000874
:1000D000C5220008C5220008C5220008C522000864
:1000E000C5220008C5220008C5220008C522000854
:1000F000A5070008C5220008C5220008C52200087F
:10010000C5220008C5220008C5220008C522000833
:10011000C5220008C5220008C5220008C522000823
:10012000C5220008C5220008C5220008C522000813
:10013000C5220008C5220008C5220008C522000803
:10014000C5220008C5220008C5220008C5220008F3
:10015000C5220008C5220008C5220008C5220008E3
:10016000C5220008C5220008C5220008C5220008D3
:10017000C5220008C5220008C5220008C5220008C3
:10018000C5220008C5220008C5220008C5220008B3
:10019000C522000800000000C5220008C522000892
:1001A000C5220008C5220008C5220008C522000893
:1001B000C5220008C5220008C5220008C522000883
:1001C000C5220008C5220008C5220008C522000873
:0801D000C5220008C522000849
:1001D80010B5054C237833B9044B13B10448AFF379
:1001E80000800123237010BD0C00002000000000D7
:1001F8008030000808B5034B1BB103490348AFF32F
:10020800008008BD000000001000002080300008B9
:1002180084B0134BDA6C42F00402DA64DA6C02F050
:1002280004020092009ADA6C42F02002DA64DA6C76
:1002380002F020020192019ADA6C42F00102DA64BB
:10024800DA6C02F001020292029ADA6C42F00202BF
:10025800DA64DB6C03F002030393039B04B070477A
:100268000010024008B52DED068B9B4BD3ED007AAC
:10027800B2EE047AF4EEC77AF1EE10FA00F1E880F3
:100288009FED969AB1EE008A29EE088ADFED947AFE
:1002980068EE277A934B93ED007A77EE877AC3ED71
:1002A800007A9FED917AF4EEC77AF1EE10FA03DD49
:1002B80077EEC77AC3ED007A8A4BD3ED007AF5EE74
:1002C800C07AF1EE10FA00F1D780B0EEC88ADFEDFF
:1002D800877A28EE278AF6EE007A38EE278ADFED4D
:1002E800847AB4EEE78AF1EE10FA01DDB0EE678A9F
:1002F800794B93ED007AF7EE007AB4EEE77AF1EEF7
:1003080010FA00F1C080B0EE48AADFED7A9A754B7A
:10031800D3ED008AB0EE680A02F036F8F0EE40AA93
:10032800B0EE680A01F0F8FF29EE807A6AEE2A7AC0
:1003380037EE677A69EEAA9A2AEE00AA79EE8A9AC7
:10034800FEEE007A67EE277ADFED6B6A69EEA69A11
:1003580077EEA96A77EEE97AB4EEE67AF1EE10FA6A
:1003680000F19680B0EE476AB4EEE76AF1EE10FA53
:1003780001D5B0EE676AB4EEE67AF1EE10FA00F352
:100388008A80F0EE475AF4EEE75AF1EE10FA01DDF2
:10039800F0EE675A36EE256AFEEE005A26EE256A1A
:1003A80037EE067ADFED555A27EE257A76EE866A1D
:1003B80066EEA56A77EE867A67EEA57AB7EE006AEA
:1003C800B4EEC67AF1EE10FA68DDB7EE007AB7EE51
:1003D800006A37EE067ADFED4A5A27EE257ABCEE38
:1003E800C77A484B83ED0D7AF4EEC66AF1EE10FA3F
:1003F8005EDDF7EE006AB7EE007A76EE876A9FED6B
:10040800406A66EE866AFCEEE66A3E4BC3ED0E6A0B
:10041800F4EEC77AF1EE10FA54DDF7EE007AB7EE93
:10042800007A77EE877A9FED367A67EE877AFCEE68
:10043800E77A344BC3ED0F7A334BC3ED008A334B65
:1004480083ED009A324B83ED008ABDEC068B08BD24
:10045800B7EE007AF4EEC77AF1EE10FA7FF710AF34
:100468009FED2C9A27EE899A9FED1D7A77EE877A71
:10047800194BC3ED007A05E79FED1B7A77EE877A73
:10048800C3ED007A21E79FED1BAAF3EE0E9A3EE733
:10049800B0EE666A68E7F0EE665A74E7BFEE006A87
:1004A800B4EEC67AF1EE10FA91D5BFEE007A8EE777
:1004B800BFEE007AF4EEC76AF1EE10FA9BD5FFEEB4
:1004C800006A98E7BFEE007AF4EEC77AF1EE10FA08
:1004D800A5D5FFEE007AA2E72C000020000000421C
:1004E80017B7513828000020DB0FC9408195C33D5C
:1004F8000000964300000000D7B35D3F0D68D33B72
:1005080000CC8445003401403C0000203800002025
:1005180034000020CDCC4C4010B5174B1A68136A34
:1005280003F0113323F0885343B9116A44F244436A
:10053800194203D1536C23F4004353640E4C002139
:10054800204601F093FD0421204601F08FFD08218B
:10055800204601F08BFD0021204601F097FC042184
:10056800204601F093FC0821204601F08FFC034B44
:1005780001221A7010BD00BF40000020300000208A
:1005880008B50268034B9A4200D008BDFFF76AFE1F
:10059800FBE700BF0034014072B6FEE710B598B023
:1005A80000241594169417940E940F941094119493
:1005B8001294139414943422214601A801F07FFE6A
:1005C8003048314B036044606023836042F2331348
:1005D800C360046144618023836101F075FA0028D7
:1005E80044D1202315931690179015A9254801F09A
:1005F8007BFD00283CD160230E9302460F9010909B
:1006080011901290139014900EA91E4801F0E2FA6E
:1006180000282FD104220EA91A4801F0DBFA58BB92
:1006280008220EA9174801F0D5FA38BB4FF4006329
:1006380001934FF4806302930390C02204920590C3
:100648004FF4005206920790089009904FF00072FC
:100658000A920B900C900D9001A90A4801F09CFD9C
:1006680070B9084800F0D4F818B010BDFFF794FF2F
:10067800FFF792FFFFF790FFFFF78EFFFFF78CFF62
:10068800FFF78AFF400000200034014010B594B005
:1006980006AC38220021204601F011FE002001900E
:1006A800029003900490059000F018FE0123069331
:1006B8004FF48033079302230D9303220E920622F0
:1006C8000F9255221092119312931393204600F023
:1006D80067F980B90F2301930323029303900490D1
:1006E800059004210DEB010000F0F2FB28B900F0A1
:1006F800E3FC14B010BDFFF74FFFFFF74DFF0000FC
:1007080008B500F0FFF8FFF7C1FFFFF781FDFFF71D
:1007180045FF184B41F29A025A639A63DA63164C02
:100728000021204601F002FB0421204601F0FEFAD8
:100738000821204601F0FAFA0021204601F01CFCAD
:100748000421204601F018FC0821204601F014FC81
:1007580023686FF001021A61DA6842F00102DA6078
:10076800002211462C2000F09BFE2C2000F0A8FE51
:10077800FEE700BF003401404000002008B500F04B
:10078800A3FCFEE7FEE7FEE7FEE7FEE770477047DB
:10079800704708B500F0C6F808BD000008B5024863
:1007A80001F026F808BD00BF4000002000B583B066
:1007B8000B4B1A6E42F001021A661A6E02F0010221
:1007C8000092009A9A6D42F080529A659B6D03F0F0
:1007D80080530193019B00F005FE03B000BD00BFEC
:1007E800001002400268094B9A4200D0704782B05C
:1007F80003F55C431A6E42F400521A661B6E03F44A
:1008080000530193019B02B0704700BF00340140C0
:1008180070B588B000230393049305930693079358
:100828000268224B9A4201D008B070BD03F55C43C0
:10083800DA6C42F00102DA64DA6C02F0010200922A
:10084800009ADA6C42F00202DA64DA6C02F0020210
:100858000192019ADA6C42F00402DA64DB6C03F06C
:1008680004030293029B8023039302250495042624
:10087800079603A94FF0904000F036FC032303933A
:100888000495002405940694079603A9084800F0E7
:100898002BFC4FF4E0730393049505940694079694
:1008A80003A9044800F020FCBEE700BF0034014063
:1008B80000040048000800480F4B1B680BB90120D2
:1008C800704710B504460D4A10684FF47A72B2FBAF
:1008D800F3F3B0FBF3F000F0F7FD08B1012010BD11
:1008E8000F2CFBD8024621464FF0FF3000F0D8FD10
:1008F800034B1C600020F2E70000002008000020E5
:100908000400002010B5032000F0B8FD0020FFF718
:10091800D3FF18B101231C46204610BD0446FFF73B
:1009280045FFF9E7034A1368034909680B44136054
:10093800704700BF8C00002000000020014B1868A1
:10094800704700BF8C000020124BDA6802F00302E7
:10095800DB68C3F303130133032A11D00E48B0FB3D
:10096800F3F00C4BDB68C3F3062303FB00F0094BE1
:10097800DB68C3F3416301335B00B0FBF3F07047FE
:100988000648B0FBF3F0034BDB68C3F3062303FB15
:1009980000F0ECE7001002400024F40000366E017D
:1009A800002800F0488270B582B00446036813F04E
:1009B800010F37D0A14A936803F00C03D26802F004
:1009C80003020C2B24D0082B24D06368B3F5803F96
:1009D8004DD0B3F5A02F50D0984B1A6822F480322E
:1009E8001A601A6822F480221A606368002B51D0BA
:1009F800FFF7A4FF0546914B1B6813F4003F11D184
:100A0800FFF79CFF401B6428F5D984E0012083E0B0
:100A1800032AD8D1894B1B6813F4003F02D06368BE
:100A2800002BF3D0236813F0020F59D0834A936840
:100A380003F00C03D26802F003020C2B38D0042B0D
:100A480038D0E368002B72D07C4A136843F4807373
:100A58001360FFF773FF0546784B1B6813F4806F2C
:100A68005CD1FFF76BFF401B0228F5D953E0734AAE
:100A7800136843F480331360B7E703F18043A3F5A9
:100A88003C331A6842F480221A601A6842F48032B1
:100A98001A60AAE7FFF752FF0546684B1B6813F474
:100AA800003FBFD0FFF74AFF401B6428F5D932E06A
:100AB800022AC4D1614B1B6813F4806F02D0E3682B
:100AC800002BA3D05D4A536823F0FE43216943EA13
:100AD800016353605A4B1868FFF7EEFE002895D162
:100AE800236813F0080F4BD063699BB3534AD2F8BD
:100AF800943043F00103C2F89430FFF71FFF054616
:100B08004E4BD3F8943013F0020F39D1FFF716FF8C
:100B1800401B0228F4D9032002B070BD474A53682D
:100B280023F0FE43216943EA01635360D8E7434A4F
:100B3800136823F480731360FFF700FF05463F4BEB
:100B48001B6813F4806FCBD0FFF7F8FE401B022818
:100B5800F5D9E0E7394AD2F8943023F00103C2F816
:100B68009430FFF7EBFE0546344BD3F8943013F07E
:100B7800020F05D0FFF7E2FE401B0228F4D9CAE7AE
:100B8800236813F0040F7FD02C4B9B6D13F0805F0C
:100B980036D12A4B9A6D42F080529A659B6D03F0CC
:100BA80080530193019B01231E46264B1B6813F4B7
:100BB800807F28D0A368012B38D0052B44D01F4B49
:100BC800D3F8902022F00102C3F89020D3F89020A7
:100BD80022F00402C3F89020A368002B42D0FFF74C
:100BE800ADFE0546154BD3F8903013F0020F4AD1ED
:100BF800FFF7A4FE401B41F288339842F2D98AE7F6
:100C080000231E46D1E70F4A136843F4807313602C
:100C1800FFF794FE05460B4B1B6813F4807FC9D180
:100C2800FFF78CFE401B0228F5D974E7034AD2F877
:100C3800903043F00103C2F89030CDE70010024035
:100C480004000020007000407C4BD3F8902042F054
:100C58000402C3F89020D3F8902042F00102C3F8B0
:100C68009020B9E7FFF76AFE0546744BD3F8903039
:100C780013F0020F07D0FFF761FE401B41F28833E3
:100C88009842F2D947E7DEB9236813F0200F33D032
:100C9800A369DBB1694AD2F8983043F00103C2F87E
:100CA8009830FFF74BFE0546644BD3F8983013F0A5
:100CB800020F21D1FFF742FE401B0228F4D92AE790
:100CC8005E4A936D23F080539365DDE75B4AD2F863
:100CD800983023F00103C2F89830FFF72FFE05463D
:100CE800564BD3F8983013F0020F05D0FFF726FEC5
:100CF800401B0228F4D90EE7E369002B63D04F4A62
:100D0800926802F00C020C2A5FD0022B12D04B4AD8
:100D1800136823F080731360FFF710FE0446474BF7
:100D28001B6813F0007F49D0FFF708FE001B02285C
:100D3800F5D9F0E6414A136823F080731360FFF792
:100D4800FDFD05463D4B1B6813F0007F05D0FFF7FE
:100D5800F5FD401B0228F5D9DDE6384AD368384945
:100D68001940236A606A013843EA0013A06A43EA1B
:100D78000023206B4008013843EA4053606B400869
:100D8800013843EA4063E06A43EAC0631943D1602B
:100D9800136843F080731360D36843F08073D360A3
:100DA800FFF7CCFD0446254B1B6813F0007F0AD1E2
:100DB800FFF7C4FD001B0228F5D9ACE61F4AD1682D
:100DC800204B0B40D3600020A6E6012B3FF41EAE5B
:100DD8001A4BDB6803F00301226A91427FF416AED6
:100DE80003F0F002616A0139B2EB011F7FF40EAE25
:100DF80003F4FE42A16AB2EB012F7FF407AE03F0C1
:100E08007842E16AB2EBC16F7FF400AE03F4C0012F
:100E1800226B5208013AB1EB425F7FF4F7AD03F061
:100E2800C063626B5208013AB3EB426F01D10020F4
:100E380072E6012070E60120704700BF00100240F2
:100E48000C809F01FCFFEEFE1E4B9B6803F00C0319
:100E5800042B33D01B4B9B6803F00C03082B2FD0BB
:100E6800184B9B6803F00C030C2B01D00020704733
:100E7800144BDA6802F00302DB68C3F3031301338F
:100E8800032A11D01048B0FBF3F00E4BDB68C3F314
:100E9800062303FB00F00B4BDB68C3F3416301330C
:100EA8005B00B0FBF3F070470848B0FBF3F0054B6C
:100EB800DB68C3F3062303FB00F0ECE70248704746
:100EC80002487047001002400024F40000366E010A
:100ED800002800F0E280F8B50C460546704B1B6808
:100EE80003F00F038B420AD26D4A136823F00F03F5
:100EF8000B431360136803F00F038B4235D12B6843
:100F080013F001031F465CD06B68032B28D0022B1B
:100F180047D0644B1B6813F4806F26D0FFF794FF0B
:100F2800614B984243D800231F465E4A936823F0DA
:100F3800030369680B439360FFF700FD0646594BAE
:100F48009B6803F00C036A68B3EB820F39D0FFF794
:100F5800F5FC801B41F288339842F0D9032005E064
:100F6800504B1B6813F0007F01D10120F8BDFFF73B
:100F7800EBFC4D4B9842D6D94A4B9B6813F0F00FC7
:100F880007D02B6813F002031F46CED0AB68002BA6
:100F9800C9D1444A936823F0F00343F08003936077
:100FA8000CE0404B1B6813F4003FB7D1DDE73D4A26
:100FB800936823F0F00343F08003936080231F4677
:100FC800B3E72B6813F0020F48D013F0040F04D0D6
:100FD800344A936843F4E06393602B6813F0080F76
:100FE80006D0304A936823F47C5343F4E06393605B
:100FF8002C4A936823F0F003A9680B439360284BAD
:101008001B6803F00F03A34230D82B6813F0040FBA
:1010180006D0244A936823F4E063E9680B4393609D
:101028002B6813F0080F07D01E4A936823F4605307
:10103800296943EAC1039360FFF706FF194B9B68D0
:10104800C3F30313194AD35C03F01F03D840184BAA
:101058001860184B1868FFF72FFC87E7802FCED150
:10106800104A936823F0F0039360C8E70C4A1368AA
:1010780023F00F0323431360FFF760FC0646084B79
:101088001B6803F00F03A342BFD0FFF757FC801B78
:1010980041F288339842F2D960E70120704700BFD7
:1010A800002002400010024000B4C4049830000838
:1010B8000800002004000020024A136843F40023BB
:1010C800136070470010024008B5064BDB6913F443
:1010D800807F00D108BDFFF71FFA024B4FF48072E2
:1010E8001A62F7E70010024070B582B000236DE085
:1010F80085684FEA430E032404FA0EF425EA040532
:10110800CC6804FA0EF42C438460446824EA0C0486
:101118004D68C5F3001C0CFA03FC4CEA0404446057
:1011280068E08C68012C6BD178E0DD08083550F850
:10113800254003F0070C4FEA8C0C4FF00F0E0EFA07
:101148000CFE24EA0E0E0C6904FA0CF444EA0E04B0
:1011580040F8254068E0052400E0002404FA0EF475
:101168002C430CF1020C594D45F82C40584CA468FE
:101178006FEA020C24EA02054E6816F4801F01D0BB
:1011880042EA0405524CA560E4680CEA04054E687E
:1011980016F4001F01D042EA04054D4CE56064686E
:1011A8000CEA04054E6816F4003F01D042EA040533
:1011B800474C656024680CEA04054E6816F4803FC5
:1011C80001D042EA0405424A156001330A6832FA3E
:1011D80003F479D04FF0010C0CFA03FC1CEA02026C
:1011E800F3D04C6804F0030E0EF1FF3EBEF1010F80
:1011F8007FF67EAF4C6804F0030CBCF1030F90D06F
:10120800C5685C004FF0030C0CFA04FC25EA0C0ED0
:101218008D6805FA04FC4CEA0E04C4604C6804F0BE
:10122800030CBCF1020F80D005685C004FF0030C82
:101238000CFA04FC25EA0C0E4D6805F0030C0CFAB8
:1012480004FC4CEA0E0404604C6814F4403FBCD023
:10125800204C256E45F001052566246E04F0010436
:101268000194019C4FEA930C0CF10205174C54F8B9
:10127800255003F0030E4FEA8E0E0F2404FA0EF4E5
:1012880025EA0405B0F1904F3FF467AF124CA04235
:1012980012D004F58064A04210D004F58064A04206
:1012A8000ED004F58064A0420CD004F58064A042FE
:1012B8003FF451AF062451E701244FE702244DE7DC
:1012C80003244BE7042449E702B070BD0000014045
:1012D800000401400010024000040048002836D1F4
:1012E8003D4B1B6803F4C063B3F5806F08D03A4ADE
:1012F800D2F8803023F48073C2F880300020704721
:10130800354AD2F8803023F48073C2F880301368ED
:1013180023F4C06343F400731360304B1B6832221C
:1013280002FB03F32E4AA2FB03239B0C013300E0CC
:10133800013B294A526912F4806F01D0002BF7D182
:10134800254B5B6913F4806F42D100207047B0F5DC
:10135800007F07D0204A136823F4C06343F48063F6
:101368001360CBE71C4B1B6803F4C063B3F5806FB5
:1013780007D0194AD2F8803043F48073C2F880301D
:10138800BCE7154AD2F8803043F48073C2F8803045
:10139800136823F4C06343F4007313600F4B1B6896
:1013A800322202FB03F30E4AA2FB03239B0C0133F8
:1013B80000E0013B084A526912F4806F01D0002B0B
:1013C800F7D1054B5B6913F4806F03D10020704798
:1013D8000320704703207047007000400800002079
:1013E80083DE1B43024A936843F48043936070474B
:1013F80000700040002807DB00F01F0240090123AD
:101408009340024A42F82030704700BF00E100E0F4
:10141800002807DB090100F1604000F5614080F811
:101428000013704700F00F000901014B1954704771
:1014380014ED00E000B500F00700A0F1030CBCF1CA
:10144800040F07D8C0F1070E0430062806D84FF05D
:10145800000C03E04FF0040E4FF0000C4FF0FF3388
:1014680003FA0EF021EA000101FA0CF103FA0CF379
:1014780022EA030241EA020000BD0000074AD368DD
:1014880023F4E0631B041B0C000200F4E060034338
:1014980043F0BF6343F40033D360704700ED00E0CE
:1014A80010B50446054BD868C0F30220FFF7C2FF09
:1014B80001462046FFF7ACFF10BD00BF00ED00E07D
:1014C80008B5FFF797FF08BD0138B0F1807F0BD250
:1014D8004FF0E0235861054AF02182F823100020DC
:1014E800986107221A6170470120704700ED00E0FB
:1014F80010B5026A036A23F001030362D0F804C03E
:10150800836923F4803323F073030C6844EA030EE1
:1015180022F002028B681343224A904213D002F54C
:10152800006290420FD002F5406290420BD002F563
:101538008062904207D002F58062904203D002F5A3
:101548000062904207D1026A22F00402026223F08C
:101558000803CA681343134A904213D002F5006285
:1015680090420FD002F5406290420BD002F58062A3
:10157800904207D002F58062904203D002F50062E3
:10158800904207D12CF4407C4A6942EA0C028C69EB
:1015980044EA020CC0F804C0C0F818E04A68426384
:1015A800036210BD002C014010B5036A026A22F4E0
:1015B80080720262D0F804C0C26922F4803222F03C
:1015C80073020C6844EA020E23F400738A6843EA43
:1015D80002231D4A904207D002F50062904203D0D0
:1015E80002F5E052904208D1026A22F48062026257
:1015F80023F40063CA6843EA0223134A904213D0D3
:1016080002F5006290420FD002F5406290420BD082
:1016180002F58062904207D002F58062904203D0C2
:1016280002F50062904207D12CF4405C4A694CEA0A
:10163800021C8A694CEA021CC0F804C0C0F81CE00D
:101648004A68C263036210BD002C014010B5036AEA
:10165800026A22F480520262D0F804C0C26922F001
:10166800807222F4E6420C6842EA042223F4005312
:101678008C6843EA0433DFF87CE0704507D00EF548
:10168800006E704503D00EF5E05E70450AD1D0F8C3
:1016980020E02EF4804EC0F820E023F40043CC680C
:1016A80043EA0433DFF84CE0704513D00EF5006EC2
:1016B80070450FD00EF5406E70450BD00EF5806E5C
:1016C800704507D00EF5806E704503D00EF5006E9C
:1016D800704507D12CF4404C4C694CEA841C8C6949
:1016E8004CEA841CC0F804C0C2614A680264036200
:1016F80010BD00BF002C014010B5036A026A22F435
:1017080080320262D0F804C0026D22F4803222F0E6
:1017180070020C6844EA020E23F400338A6843EA34
:101728000243124A904213D002F5006290420FD051
:1017380002F5406290420BD002F58062904207D0D9
:1017480002F58062904203D002F50062904204D113
:101758002CF4803C4A694CEA022CC0F804C0C0F85A
:1017680050E04A688264036210BD00BF002C01404B
:1017780010B5036A026A22F480120262D0F804C02B
:10178800026D22F0807222F4E0420C6842EA0422E0
:1017980023F400138C6843EA0453DFF848E07045EB
:1017A80013D00EF5006E70450FD00EF5406E7045E3
:1017B8000BD00EF5806E704507D00EF5806E704523
:1017C80003D00EF5006E704504D12CF4802C4C69C2
:1017D8004CEA842CC0F804C002654A68C2640362FB
:1017E80010BD00BF002C014070477047704770471C
:1017F80070B505460368DE681C6914F0020F10D046
:1018080016F0020F0DD06FF002021A610123037760
:1018180003689B6913F0030F7FD0FFF7E6FF0023EF
:101828002B7714F0040F12D016F0040F0FD02B688A
:101838006FF004021A6102232B772B689B6913F45B
:10184800407F70D02846FFF7D0FF00232B7714F095
:10185800080F12D016F0080F0FD02B686FF008028F
:101868001A6104232B772B68DB6913F0030F61D00F
:101878002846FFF7BAFF00232B7714F0100F12D079
:1018880016F0100F0FD02B686FF010021A610823A2
:101898002B772B68DB6913F4407F52D02846FFF77B
:1018A800A4FF00232B7714F0010F02D016F0010FCC
:1018B8004ED114F0800F02D114F4005F02D016F05C
:1018C800800F4DD114F4807F02D016F0800F4FD1D5
:1018D80014F0400F02D016F0400F51D114F0200F31
:1018E80002D016F0200F53D114F4801F02D016F442
:1018F800801F55D114F4001F02D016F4001F57D1D1
:1019080014F4800F02D016F4800F59D114F4000F8C
:1019180002D016F4000F5BD170BDFFF765FF2846B3
:10192800FFF764FF7BE72846FFF75EFF2846FFF7CF
:101938005DFF8AE72846FFF757FF2846FFF756FF5F
:1019480099E72846FFF750FF2846FFF74FFFA8E71B
:101958002B686FF001021A612846FEF711FEA8E70E
:101968002B686FF402521A61284600F06EFCA9E752
:101978002B686FF480721A61284600F067FCA7E7AD
:101988002B686FF040021A612846FFF730FFA5E781
:101998002B686FF020021A61284600F055FCA3E777
:1019A8002B686FF480121A61284600F050FCA1E7FA
:1019B8002B686FF400121A61284600F049FC9FE773
:1019C8002B686FF480021A61284600F042FC9DE7FC
:1019D8002B686FF400021A61284600F03BFC9BE775
:1019E8000368384A904216D0B0F1804F13D0A2F560
:1019F800943290420FD002F5806290420BD002F5EB
:101A08008062904207D002F59432904203D002F5EA
:101A1800E052904203D123F070034A681343294AE5
:101A2800904222D0B0F1804F1FD0A2F5943290425C
:101A38001BD002F58062904217D002F58062904276
:101A480013D002F5943290420FD002F540629042D2
:101A58000BD002F58062904207D002F58062904276
:101A680003D002F50062904203D123F44073CA68A0
:101A7800134323F080034A6913438A68C2620A68E1
:101A88008262104A904213D002F5006290420FD051
:101A980002F5406290420BD002F58062904207D076
:101AA80002F58062904203D002F50062904201D1B3
:101AB8000A690263026842F004020260012242617C
:101AC80003607047002C014060B310B5044690F8DD
:101AD8003D3013B3022384F83D30214651F8040BFE
:101AE800FFF77EFF012384F8483084F83E3084F8FD
:101AF8003F3084F8403084F8413084F8423084F82C
:101B0800433084F8443084F8453084F8463084F80B
:101B1800473084F83D30002010BD80F83C30FEF797
:101B280061FED7E70120704710B5036A026A22F008
:101B380010020262D0F804C0826922F0807222F496
:101B4800E6420C6842EA042223F020038C6843EA48
:101B58000413DFF87CE0704507D00EF5006E704581
:101B680003D00EF5E05E70450AD1D0F820E02EF0E3
:101B7800400EC0F820E023F08003CC6843EA041349
:101B8800DFF84CE0704513D00EF5006E70450FD0AD
:101B98000EF5406E70450BD00EF5806E704507D07F
:101BA8000EF5806E704503D00EF5006E704507D1B6
:101BB8002CF4406C4C694CEA840C8C694CEA840C1B
:101BC800C0F804C082614A688263036210BD00BF26
:101BD800002C014038B590F83C30012B00F095807E
:101BE8000446012380F83C30142A00F28980DFE89B
:101BF80002F00B87878720878787358787874987FC
:101C080087875E87878772000D460068FFF770FC3C
:101C18002268936943F0080393612268936923F06B
:101C2800040393612268936929690B439361002037
:101C380067E00D460068FFF777FF2268936943F471
:101C4800006393612268936923F480639361226837
:101C58009369296943EA01239361E8E70D4600681F
:101C6800FFF7A2FC2268D36943F00803D361226816
:101C7800D36923F00403D3612268D36929690B432C
:101C8800D361D4E70D460068FFF7E0FC2268D3690A
:101C980043F40063D3612268D36923F48063D3617A
:101CA8002268D369296943EA0123D361BFE70D4656
:101CB8000068FFF721FD2268136D43F008031365E0
:101CC8002268136D23F0040313652268136D2969D4
:101CD8000B431365ABE70D460068FFF749FD226823
:101CE800136D43F4006313652268136D23F4806356
:101CF80013652268136D296943EA0123136596E782
:101D08000120002384F83C3038BD0220FCE701F0B4
:101D18001F014FF0010C0CFA01FC036A23EA0C03C3
:101D28000362036A8A4013430362704710B504468E
:101D3800102928D8DFE801F0092727270F272727A8
:101D4800152727271B272727210090F83E30013B1E
:101D580018BF01231CE090F83F30013B18BF012356
:101D680016E090F84030013B18BF012310E090F8CE
:101D78004130013B18BF01230AE090F84230013B93
:101D880018BF012304E090F84330013B18BF01233A
:101D9800002B75D110291ED8DFE801F0091D1D1D83
:101DA8000D1D1D1D111D1D1D151D1D1D19000223B5
:101DB80084F83E3012E0022384F83F300EE002231C
:101DC80084F840300AE0022384F8413006E0022318
:101DD80084F8423002E0022384F84330012220686C
:101DE800FFF795FF2368274A934213D002F5006254
:101DF80093420FD002F5406293420BD002F5806205
:101E0800934207D002F58062934203D002F5006244
:101E1800934203D15A6C42F400425A642368194A27
:101E280093421FD0B3F1804F1CD0A2F59432934255
:101E380018D002F58062934214D002F58062934272
:101E480010D002F5943293420CD002F540629342CE
:101E580008D002F58052934204D01A6842F0010279
:101E68001A600BE09968084A0A40062A06D0B2F5BB
:101E7800803F03D01A6842F001021A60002010BDAA
:101E88000120FCE7002C01400700010038B504469A
:101E98000D4600220068FFF73AFF23682D4A934257
:101EA80013D002F5006293420FD002F540629342CC
:101EB8000BD002F58062934207D002F5806293420C
:101EC80003D002F5006293420ED11A6A02F0113271
:101ED80022F0885242B9196A44F24442114203D1AD
:101EE8005A6C22F400425A642268136A03F01133D0
:101EF80023F0885343B9116A44F24443194203D189
:101F0800136823F001031360102D1ED8DFE805F0D5
:101F1800091D1D1D0D1D1D1D111D1D1D151D1D1D21
:101F28001900012384F83E3012E0012384F83F3081
:101F38000EE0012384F840300AE0012384F84130A0
:101F480006E0012384F8423002E0012384F843309C
:101F5800002038BD002C014001F00F014FF0040CA7
:101F68000CFA01FC036A23EA0C030362036A8A4041
:101F7800134303627047000010B504460846002961
:101F880039D194F84430013B18BF0123002B66D1A6
:101F9800002846D1022384F84430042201462068F0
:101FA800FFF7DAFF2268536C43F400435364236855
:101FB8002C4A934245D0B3F1804F42D0A2F59432D7
:101FC80093423ED002F5806293423AD002F5806295
:101FD800934236D002F59432934232D002F54062F1
:101FE80093422ED002F5805293422AD01A6842F0CA
:101FF80001021A6031E0042907D008290BD094F8AF
:102008004730013B18BF0123C0E794F84530013B36
:1020180018BF0123BAE794F84630013B18BF0123E3
:10202800B4E7042805D0082807D0022384F84730ED
:10203800B3E7022384F84530AFE7022384F846303B
:10204800ABE79968084A0A40062A06D0B2F5803FED
:1020580003D01A6842F001021A60002010BD012066
:10206800FCE700BF002C01400700010038B504461A
:102078000D4600220068FFF76FFF2268136A03F01D
:10208800113323F0885343B9116A44F24443194287
:1020980003D1536C23F4004353642268136A03F09A
:1020A800113323F0885343B9116A44F24443194267
:1020B80003D1136823F00103136025B9012384F8C1
:1020C8004430002038BD042D05D0082D07D0012349
:1020D80084F84730F5E7012384F84530F1E7012318
:1020E80084F84630EDE7000090F83C20012A4ED0F5
:1020F80010B50346012280F83C20022280F83D20DA
:1021080000684268D0F808C0DFF888E0704507D05A
:102118000EF5006E704503D00EF5E05E704503D1F4
:1021280022F470024C68224322F0007222F07002FE
:102138000C68224342601A68164882421AD0B2F1EB
:10214800804F17D0A0F59430824213D000F58060FC
:1021580082420FD000F5806082420BD000F59430A7
:10216800824207D000F54060824203D000F58050DB
:10217800824205D12CF0800C896841EA0C019160FB
:10218800012283F83D20002083F83C0010BD022086
:10219800704700BF002C014090F83C30012B4FD015
:1021A8000246012380F83C30CB6823F440738868EA
:1021B800034323F480634868034323F400630868F7
:1021C800034323F480530869034323F40053486905
:1021D800034323F48043086B034323F47023886983
:1021E80043EA004323F08053C86903431068DFF8CB
:1021F80054C060450CD00CF5006C604508D00CF557
:10220800E05C604504D04364002082F83C007047DD
:1022180010B423F470038C6A43EA045323F08073E8
:102228000C6A234323F000734C6A234323F00053C2
:10223800C96A0B434364002082F83C0010BC704715
:1022480002207047002C0140704770477047704764
:102258007047704770470000034AD2F8883043F44B
:102268007003C2F88830704700ED00E00D488546DD
:10227800FFF7F2FF0C480D490D4A002302E0D4583D
:10228800C4500433C4188C42F9D30A4A0A4C0023B8
:1022980001E013600432A242FBD300F019F8FEF704
:1022A8002FFAFEE700000220000000200C000020AA
:1022B800803400080C00002090000020FEE7024453
:1022C8000346934200D1704703F8011BF9E7000069
:1022D80070B50D4B0D4C00261D1BB6EBA50F09D193
:1022E80000F0CAFE0A4C0B4B00261D1BB6EBA50FCF
:1022F80005D170BD54F8043B98470136EDE754F812
:10230800043B98470136F1E7783400087834000830
:10231800783400087C34000810EE103A184A23F08C
:102328000043934219D9B3F1FF4F02D330EE400A6C
:10233800704700B583B0684600F028F900F0030044
:1023480001289DED000ADDED010A0FD0022808D012
:1023580088B900F053F803B000BDDFED0A0A00F0B9
:102368004DB800F04BF8B1EE400AF4E700F0C6F8BB
:10237800B1EE400AEFE7012000F0C0F8EBE700BF3C
:10238800D80F493F0000000010EE103A194A23F018
:10239800004393421AD9B3F1FF4F02D330EE400AFB
:1023A800704700B583B0684600F0F0F800F003000D
:1023B80001289DED000ADDED010A12D002280AD09D
:1023C80090B9012000F09AF803B000BDDFED0A0AC9
:1023D800002000F093B8012000F090F8B1EE400A18
:1023E800F2E700F00BF8EFE700F008F8B1EE400A6A
:1023F800EAE700BFD80F493F0000000010EE103A8E
:1024080023F00043B3F1485F2ED2FDEEC07A17EEF9
:10241800903A33B360EE007A9FED307A9FED305AF0
:10242800DFED305A9FED306ADFED306AA7EE875A4C
:102438009FED2F7AE7EE855AA7EEA56AA7EE867A72
:10244800E7EE876A66EEA76A60EEC00AB6EE007A23
:10245800E7EEA60AB7EE000AD7EE870A30EE600A62
:102468007047B7EE000A704760EE007A9FED1B7A5E
:102478009FED1B5ADFED1B5A9FED1B6ADFED1B6AB0
:102488001C4AA7EE875A93429FED197AE5EE275A20
:10249800A5EEA76AA6EE277AE7EE276A66EEA76A90
:1024A800D2D9154A934214D803F17F4307EE103A64
:1024B800B7EE006A36EE476A60EEC00AF6EE005ADA
:1024C80097EEA57AE7EEA60A37EE607A36EE470A67
:1024D8007047B6EE076AB5EE027AEDE74ED747AD1C
:1024E800F6740F317CF293B4010DD037ABAA2A3DB4
:1024F800610BB6BA9999993E0000483F10EE103A20
:1025080023F00043B3F1485F04D2FDEEC07A17EE22
:10251800903A5BB360EE007A9FED157ADFED155ABD
:102528009FED156ADFED156AE7EE875A9FED147A7D
:10253800A5EEA76A20EE275AE6EE276AA6EEA77A46
:1025480030B9DFED106AE7EE876AA6EE850A7047B4
:1025580027EE457AF6EE006AA0EEA67ADFED0A6A63
:10256800D7EE270AE5EE260A30EE600A704700BF6C
:10257800D3C92E2F342FD7B21BEF3836010D50B9DF
:102588008988083CABAA2ABEABAA2A3E10B510EE31
:10259800104A8A4A24F00043934288B070D9884A86
:1025A800934222D824F00043002C9FED867A864A75
:1025B80023F00F0340F3E980934270EE477A09BF96
:1025C8009FED827ADFED826ADFED826A77EEC77A65
:1025D80037EEE67A77EEC77A80ED007A77EEE67A1C
:1025E800C0ED017A012008B010BD7B4A9342014634
:1025F80054D9B3F1FF4F4AD2DA15863AA3EBC25346
:1026080007EE903ABDEEE77ADFED746AB8EEC77A66
:1026180077EEC77A8DED057A67EEA67ABDEEE77A92
:10262800B8EEC77A77EEC77A8DED067A67EEA67AA6
:10263800F5EE407AF1EE10FACDED077A40F09E8083
:10264800B5EE407AF1EE10FA40F09A800123644822
:1026580001900220009005A8029100F0D3F8002C08
:102668000299C0DA91ED007AD1ED017AB1EE477A9C
:10267800F1EE677A81ED007AC1ED017A4042B2E766
:10268800002380ED000A4360002008B010BD70EE02
:10269800407AC0ED017AC0ED007AF5E7CDE9023065
:1026A80000F0A8F89FED4F7A9FED466AF6EE007AA3
:1026B800E0EE077ADDE90231FDEEE77A9FED447A34
:1026C800F8EEE76A17EE900AA6EEC60A1F2866EE2D
:1026D800877A30EE677A20DCDFF814C100F1FF3E1C
:1026E80024F000425CF82EC022F0FF02624514D0AC
:1026F80030EE470A002C30EE670A81ED007A81ED52
:10270800010ABFF670AFB1EE477AB1EE400A81ED2B
:10271800007A81ED010A404265E717EE102AC2F3FC
:10272800C752C2EBD352082AE2DD9FED287ADFEDCB
:10273800295AB0EE406AA6EEC76A70EE467AE6EE0F
:10274800C77AD6EEA57A36EE677A17EE102AC2F364
:10275800C752C2EBE353192B14DD9FED237ADFED4B
:10276800235AB0EE460AA6EEC70A76EE407AE6EE9F
:10277800C77AD6EEA57A30EE677AB9E7032366E71B
:10278800022364E7B0EE460AB2E7934270EE077A96
:1027980009BF9FED0E7ADFED0E6ADFED0E6A77EE68
:1027A800877A37EEA67A77EEC77A80ED007A77EEE9
:1027B800A67AC0ED017A4FF0FF3014E7D80F493FF1
:1027C800E3CB1640800FC93FD00FC93F00443537CF
:1027D8004344353708A3852E800F494300008043C2
:1027E8002831000884F9223F00A3852E32318D2438
:1027F800A830000810EE103A23F0004300EE103A1B
:10280800704700BF2DE9F04F2DED068BDBB01C465D
:10281800964605936A9AC74B079153F8222002926D
:102828001EF1040F814604F1FF38C0F25682BEF152
:10283800030348BF0EF10403DB1003930133DB00ED
:102848000993099BAEEB0302029B13EB080000F10E
:10285800F782039B9FEDBB7A6B9C0130A3EB0803C7
:102868001EA918440491002BA4BF54F8235007EE66
:10287800905A03F10103ACBFF8EEE77AF0EE477A1D
:102888008342E1EC017AEED1059B0299B8F1000F81
:1028980003EB010C46AE444609EB8301C0F2D38238
:1028A8000498374600EB8305DFEDA67A28464B46A9
:1028B800F3EC016A30ED017A8B42E6EE877AF7D1C4
:1028C80001346445E7EC017A05F10405ECD1029C7A
:1028D800DFED999A9FED999ACDF820E009AB0DF1BB
:1028E800280A03EB8403F4EE008A0AEB84070693B4
:1028F80093460D460DEB840393ED460A002C4FEAF0
:102908008403019315DDF318514660EE297AB0EE81
:10291800407AFDEEE77A73ED016AF8EEE77AB342A2
:10292800A7EEC97A37EEA60ABDEEC77AA1EC017AFE
:10293800EBD1584600F0E2FAB0EE408A20EE280AC1
:1029480000F04EFBF2EE007AA0EE678ABBF1000FB2
:10295800BDEEC8AAF8EECA7A38EE678A6ADD601E4C
:10296800CBF108035AF820E04EFA03FC0CFA03F303
:102978001AEE102AAEEB0303CBF1070143FA01F17B
:10298800624400290AEE102A4AF8203000F3DC805D
:10299800B5EE408AF1EE10FA5DD1029B9C420BDD48
:1029A800019B0020534453F8042DBB4240EA020027
:1029B800F9D1002840F02F81029B013B04F1010C62
:1029C8005AF82330002B40F02481069B012153F84C
:1029D800042D0131002AFAD02144039B019A03EB0C
:1029E800040E059BE0186B9B03EB8E0E049B03EB18
:1029F8008000331D1A44DEED017AF8EEE77AB8F16B
:102A0800000F0EF1040EE0EC017ADFED4E7A09DBDF
:102A180004464B46F3EC016A34ED017AAB42E6EE2C
:102A2800877AF7D10CF1010C8C45E2EC017AE2DDF2
:102A38000C465FE700F0D480F6EE007AB4EEE78A41
:102A4800F1EE10FA80F22E81B5EE408AF1EE10FA1E
:102A58004FF00001A1D0DDF820E05A468B46099BD3
:102A68000192A3EB0E00B0EE480A00F047FA9FED82
:102A7800337A019AB4EEC70AF1EE10FAC0F2A281D5
:102A8800DFED2D7A60EE277A671CFDEEE77A0832D3
:102A9800F8EEE77AA7EEC70AFDEEE77ABDEEC00AC0
:102AA80010EE103A4AF8243017EE903A4AF82730D8
:102AB8001046B7EE000A00F021FA002FB0EE407A77
:102AC800C0F2D0810AF10403311DDFED1B6A03EB6C
:102AD800870301EB8701BA0073ED017AF8EEE77A14
:102AE800534567EE877A27EE267A61ED017AF3D1AE
:102AF800029C0DF1C80C1644013465460020964628
:102B08000F4ADFED107A31460023984203F10103A2
:102B180007DBF2EC016AB1EC017A9C42E6EE877AB7
:102B2800F3D1B842E5EC017AA6F1040600F08680FC
:102B38000130E5E76C3400080000803B000080436A
:102B480040340008000000000132002C0AEE102A70
:102B580040F3688153464FF0000C53F8040B40BB18
:102B68000CF1010C6445F8DCBBF1000F0EDDBBF184
:102B7800010F00F08E80BBF1020F07D104F1FF3C7A
:102B88005AF82C3003F03F034AF82C3002297FF41E
:102B9800FFAEF7EE007A37EEC88A00283FF4F8AEA9
:102BA800B7EE000A584600F0A9F9022138EE408A2B
:102BB800EEE6C0F5807043F8040C0CF10100844285
:102BC8005EDD53F804CB624601E053F8042B013074
:102BD800C2F1FF02844243F8042CF6DC0120C3E76B
:102BE800631E5AF82310C91100297FF7D1AE1AEED7
:102BF800103A002C03F101030AEE103AAADC02296C
:102C080000F06181B5EE408AF1EE10FA3FF4D4AEDF
:102C180021E76146E1E6671EABF108025AF8273062
:102C2800019D8B46002B40F02B8109AB1D4455F8C4
:102C3800043D013F083A002BF9D039E76A9B022B83
:102C4800724673DC002B4DDC11D10CF104035FEDEF
:102C5800437A734433ED017A9C4577EE877AF9D14C
:102C6800BBF1000F40F0CD80079BC3ED007A1AEE50
:102C7800103A03F007005BB0BDEC068BBDE8F08F9F
:102C8800BBF1000F4ADDBBF1010F4FF001007FF4EB
:102C980072AF04F1FF3C5AF82C3003F07F034AF876
:102CA8002C3073E71AEE103A002C03F101030AEEF8
:102CB800103AC8BF02213FF74DAFF7EE007A37EE62
:102CC800C88AB5EE408AF1EE10FA3FF475AE5A465E
:102CD800DDF820E04FF0020BC1E60823099300233A
:102CE8000393AEE50CF10403DDED327A1FED6B7A48
:102CF8001A4452ED016A1346043A944537EE267A8F
:102D0800F7D1BBF1000F65D0079AF1EE476A77EE6D
:102D1800C77AC2ED006A002F62D16CE002297FF405
:102D280037AEF7EE007A37EEC88A39E76A9B032B8D
:102D38009DD1002800F0C4800CEB0E0494ED007ABD
:102D48002346214651ED017AF0EE476A37EE277A9D
:102D5800084677EEC77A043977EEA67A8C45C0ED37
:102D6800007A00ED017AEDD1012F00F0A98094EDF1
:102D7800007A73ED017AF0EE476A37EE277A8342DC
:102D880077EEC77A83ED007A77EEA67AC3ED017AFB
:102D9800EFD15FED947A1A44043332ED017A9A4206
:102DA80077EE877AF9D1DDED326A9DED337ABBF1A2
:102DB800000F29D1079BC3ED006A83ED017AC3EDAB
:102DC800027A54E7BDEEC00A274610EE103A4AF8D8
:102DD80024306DE6079A77EEC77A82ED007A67B1FC
:102DE8000122B3EC017A0132BA4277EE877AF8DD34
:102DF800BBF1000F01D0F1EE677A079BC3ED017AB2
:102E080035E7F1EE677A2FE7079BF1EE666AB1EED8
:102E1800477AF1EE677AC3ED006A83ED017AC3ED74
:102E2800027A24E7BBF1010F3ED0BBF1020F2FD08D
:102E380002297FF4E7AEF7EE007A37EEC88AE1E6BA
:102E48001EAB049320E500253346601C60451D60D9
:102E580004F102043FF43BADA4455D6003F10803AF
:102E6800F3D134E56A9B022B26DC002B36DC7FF499
:102E7800FEAEDFED217ABBF1000F3FF4F5AEC0E7FF
:102E88001046B7EE000A00F039F8B0EE407A19E6BD
:102E980003F03F0302294AF820307FF479ADF7EEBA
:102EA800007A37EEC88A73E503F07F0302294AF8EF
:102EB80020307FF46DADF2E76A9B032B7FF4D7AE29
:102EC800DFED0D7A6FE7F7EE007A37EEC88AB5EED8
:102ED800408AF1EE10FA3FF46FADBCE5DDED327AD1
:102EE800BBF1000F04D0079A4FF00043136082E74C
:102EF800079A0023136080E70000000010EE103AE4
:102F080033F000411A4624D0B1F1FF4F22D213F01A
:102F1800FF4F22D1DFED2B7A2B4A60EE277A9042C1
:102F280017EE903A33DB4CF2503CC3F3C75160457F
:102F38001A46A1F1190116DDDFED247ADFED246AC6
:102F4800002BB0EE677AB8BFF0EE667A27EE870AF4
:102F58007047704730EE000A70474CF2503C6045AD
:102F68004FEAD151E8DC0844FE28E5DC002815DCEE
:102F780010F1160F19DB193022F0FF4242EAC05255
:102F880007EE902A9FED130A27EE800A7047DFEDBF
:102F9800127A07EE103A27EE270A704722F0FF420E
:102FA80042EAC05300EE103A7047DFED0B7ADFEDCE
:102FB8000B6A002BB0EE677AB8BFF0EE667A27EEA0
:102FC800870A70470000004CB03CFFFFCAF2497105
:102FD800CAF249F1000000336042A20D6042A28D9E
:102FE80010EE101AC1F3C7527F3A162A21F0004397
:102FF8001BDC002A1FDB1C481041014224D0DFEDF6
:103008001B7A70EE277AF5EEC07AF1EE10FA1BDD26
:103018004FF4000313410B4413EA210338BF0B4656
:1030280023EA000300EE103A7047B3F1FF4F0BD3C9
:1030380030EE000A7047DFED0D7A70EE277AF5EE74
:10304800C07AF1EE10FA00DC7047002902DB9FED30
:10305800080AF9E7DFED077A002BBFEE000A08BF80
:10306800B0EE670A704700BFFFFF7F00CAF24971E0
:103078000000000000000080F8B500BFF8BC08BCE4
:103088009E467047F8B500BFF8BC08BC9E4670471E
:103098000000000000000000010203040607080900
:1030A800000FC93F000F494000CB9640000FC940B0
:1030B8000053FB4000CB164100ED2F41000F494162
:1030C8000031624100537B41003A8A4100CB96416E
:1030D800005CA34100EDAF41007EBC41000FC94137
:1030E80000A0D5410031E24100C2EE410053FB414E
:1030F80000F20342003A0A420083104200CB164213
:1031080000141D42005C234200A5294200ED2F4215
:1031180000363642007E3C4200C74242000F494218
:10312800A2000000F9000000830000006E0000000B
:103138004E000000440000001500000029000000B7
:10314800FC0000002700000057000000D10000002C
:10315800F500000034000000DD000000C0000000A1
:10316800DB000000620000009500000099000000EC
:103178003C000000430000009000000041000000F7
:10318800FE0000005100000063000000AB000000DA
:10319800DE000000BB000000C50000006100000068
:1031A800B7000000240000006E0000003A00000094
:1031B800420000004D000000D2000000E0000000C6
:1031C80006000000490000002E000000EA00000090
:1031D80009000000D1000000920000001C0000005F
:1031E800FE0000001D000000EB0000001C000000B5
:1031F800B100000029000000A70000003E00000008
:10320800E80000008200000035000000F500000022
:103218002E000000BB0000004400000084000000F5
:10322800E90000009C00000070000000260000007B
:10323800B40000005F0000007E00000041000000B4
:103248003900000091000000D6000000390000009D
:10325800830000005300000039000000F400000063
:103268009C000000840000005F0000008B0000004C
:10327800BD000000F9000000280000003B0000002D
:103288001F000000F800000097000000FF00000089
:10329800DE00000005000000980000000F0000009C
:1032A800EF0000002F000000110000008B0000005C
:1032B8005A0000000A0000006D0000001F00000016
:1032C8006D000000360000007E000000CF00000006
:1032D80027000000CB00000009000000B700000034
:1032E8004F000000460000003F000000660000009C
:1032F8009E0000005F000000EA0000002D000000B2
:103308007500000027000000BA000000C700000098
:10331800EB000000E5000000F10000007B00000069
:103328003D0000000700000039000000F700000021
:103338008A0000005200000092000000EA0000002D
:103348006B000000FB0000005F000000B1000000FF
:103358001F0000008D0000005D0000000800000054
:103368005600000003000000300000004600000086
:10337800FC0000007B0000006B000000AB000000B8
:10338800F0000000CF000000BC000000200000009A
:103398009A000000F4000000360000001D00000044
:1033A800A9000000E3000000910000006100000097
:1033B8005E000000E60000001B000000080000009E
:1033C8006500000099000000850000005F00000013
:1033D80014000000A0000000680000004000000089
:1033E8008D000000FF000000D800000080000000F1
:1033F8004D000000730000002700000031000000AD
:10340800060000000600000015000000560000003D
:10341800CA00000073000000A8000000C9000000F6
:1034280060000000E20000007B000000C000000017
:103438008C0000006B0000000000C93F0000F0395C
:103448000000DA370000A2330000842E0000502B61
:103458000000C2270000D0220000C41F0000C61BC5
:1034680000004417040000000700000009000000E5
:04347800FD0100084A
:04347C00D90100086A
:0C34800001000000100000000024F40017
:040000050800227558
:00000001FF
