:020000040800F2
:100000000000022079450008DF0E0008E70E000816
:10001000E90E0008EB0E0008ED0E000800000000DD
:10002000000000000000000000000000EF0E0008CB
:10003000F10E000800000000F30E0008F50E0008A5
:10004000C9450008C9450008C9450008C945000858
:10005000C9450008C9450008C9450008C945000848
:10006000C9450008C9450008C9450008FD0E00083B
:10007000C9450008C9450008C9450008C945000828
:10008000C9450008C9450008C9450008C945000818
:10009000C9450008C9450008C9450008C945000808
:1000A000C9450008C9450008C9450008C9450008F8
:1000B000C9450008C9450008C9450008C9450008E8
:1000C000C9450008C9450008C9450008C9450008D8
:1000D000C9450008C9450008C9450008C9450008C8
:1000E000C9450008C9450008C9450008C9450008B8
:1000F000C9450008C9450008C9450008C9450008A8
:10010000C9450008C9450008C9450008C945000897
:10011000C9450008C9450008C9450008C945000887
:10012000C9450008C9450008C9450008C945000877
:10013000C9450008C9450008C9450008C945000867
:10014000C9450008C9450008C9450008C945000857
:10015000C9450008C9450008C9450008C945000847
:10016000C9450008C9450008C9450008C945000837
:10017000C9450008C9450008C9450008C945000827
:10018000C9450008C9450008C9450008C945000817
:10019000C945000800000000C9450008C94500081D
:1001A000C9450008C9450008C9450008C9450008F7
:1001B000C9450008C9450008C9450008C9450008E7
:1001C000C9450008C9450008C9450008C9450008D7
:0801D000C9450008C9450008FB
:1001D80053B94AB9002908BF00281CBF4FF0FF31A6
:1001E8004FF0FF3000F00CB8ADF1080C6DE904CE0B
:1001F80005F08CF8DDF804E0DDE9022304B070476F
:10020800704700BF10B5054C237833B9044B13B1C0
:100218000448AFF300800123237010BD0C000020B8
:1002280000000000CC55000808B5034B1BB103497A
:100238000348AFF3008008BD000000001000002054
:10024800CC55000884B0134BDA6C42F00402DA642F
:10025800DA6C02F004020092009ADA6C42F0200292
:10026800DA64DA6C02F020020192019ADA6C42F048
:100278000102DA64DA6C02F001020292029ADA6C84
:1002880042F00202DA64DB6C03F002030393039B7F
:1002980004B0704700100240811C0023184604E097
:1002A800CA5C1044C0B201339BB20F2BF8D9704717
:1002B80008B553280AD058280CD0502805D10A234D
:1002C80016220649064803F0BCFF08BD054B01226B
:1002D8001A70FAE7034B00221A70F6E72C5600084A
:1002E80044460020FC04002000B583B00E4B9A6CF5
:1002F80042F004029A649A6C02F004020092009A96
:100308009A6C42F001029A649B6C03F0010301931A
:10031800019B002211460B2002F0A2FE0B2002F0E6
:10032800AFFE03B000BD00BF0010024038B52DED90
:10033800028B08EE900A0D461E4C206800F058FB10
:10034800DFED1D7A20EE278AF8EEE87A9FED1B7A1A
:1003580067EE877ADFED1A6A87EEA67ADFED197AFB
:1003680027EE277ADFED186AC7EE267A9FED177A0F
:1003780077EE877ADFED166A87EEA67A38EE478A37
:10038800B0EE480A134800F0D1FB2268124B134420
:10039800236015F0010F04D0B0EE480ABDEC028BC3
:1003A80038BDDFED0E0A41F299010D4B186800F0D7
:1003B80065FDF1E728000020CDCC4C3F3333D33A1C
:1003C800DDF3B13B00002C4300001F430000AC41AB
:1003D800000048430005002085EB51009A99593FD9
:1003E800F84500202DE9F041164B1C88013404F033
:1003F8003F04154B1B88A34222D010EE108A10EE42
:10040800907A104E338803EBC30203EB42030F4A82
:100418009D18A521D1545A236B700D4A1368591C95
:100428001160C5F8023001F0FBFCC5F80600C5F8FC
:100438000A80C5F80E702846FFF72EFFA87434808E
:10044800BDE8F0813A000020380000203C00002080
:100458003400002010B5134B1A68136A03F01133E7
:1004680023F0885343B9116A44F24443194203D133
:10047800536C23F4004353640A4C0021204603F0D4
:10048800D9FA0421204603F0D5FA0021204603F0CA
:10049800E1F90421204603F0DDF9034B01221A702B
:1004A80010BD00BFF8450020300000200368B3F1FC
:1004B800A04F00D0704710B51C4B1B88A3F50063F4
:1004C80018B204461A4B1A6801321A601968C9B280
:1004D800FFF72CFF174B1B7853B1154B1A68164BB7
:1004E800A3FB02135B0903EB8303B2EBC30F00D03A
:1004F80010BD07EE904AF8EEE77A9FED107A67EEA6
:10050800877ADFED0F6A87EEA67ADFED0E7A67EE5F
:10051800277ADFED0D6A87EEA67AF0EE400A9FEDA6
:100528000B0A37EE000AFFF75DFFE1E7F44500200C
:100538002C000020FC040020CDCCCCCC3333D33AA3
:10054800DDF3B13B00002C4300001F430000AC4129
:1005580072B6FEE710B58CB0002409940A940B9487
:100568002022214601A804F02CF81F484FF0A04390
:1005780003604FF4403343608460C46004614461A5
:1005880004238361047744770123036280F82440BD
:100598004FF49C62C2624FF48062026380F8383084
:1005A800C46380F8404000F005FEB0B9099009A97D
:1005B8000D4801F017FB90B90C4B019306230293E9
:1005C80003930B4B049304230593069001A9064853
:1005D80000F084FF28B90CB010BDFFF7B9FFFFF792
:1005E800B7FFFFF7B5FF00BF38470020020030040F
:1005F80000007F4010B598B0002415941694179405
:100608000E940F9410941194129413941494342209
:10061800214601A803F0D5FF2C482D4B0360446008
:100628006023836041F29903C360046144618023BD
:10063800836102F02DFF00283DD1202315931690E9
:10064800179015A9214803F033FA002835D1602303
:100658000E9302460F9010901190129013901490E0
:100668000EA91A4802F09AFF48BB04220EA917489F
:1006780002F094FF28BB4FF4006301934FF48063AA
:10068800029303904422049205904FF4005206927C
:100698000790089009904FF000720A920B900C9006
:1006A8000D9001A9094803F05BFA60B9074800F00A
:1006B800FFFC18B010BDFFF74BFFFFF749FFFFF72E
:1006C80047FFFFF745FFFFF743FF00BFF84500204E
:1006D8000034014008B51448144B0360144B4360C0
:1006E80000238360C36003610C224261836103625B
:1006F8004362836203F0FFFE70B901460A4803F0C3
:10070800D0FA58B90146084803F0F0FA40B906484B
:1007180003F0A8FA30B908BDFFF71AFFFFF718FF72
:10072800FFF716FFFFF714FF444600200080004043
:1007380068FF1F0010B594B006AC3822002120468F
:1007480003F03FFF00200190029003900490059071
:1007580002F0A4FB012306934FF48033079302238E
:100768000D9303220E9206220F9255221092119396
:1007780012931393204601F085FB80B90F23019350
:100788000323029303900490059004210DEB0100CC
:1007980001F010FE28B901F02BFF14B010BDFFF7CF
:1007A800D7FEFFF7D5FE000010B596B001F01CFB90
:1007B800694CB7EE001A0221DFED680A9FED680A5E
:1007C800204600F01FF9674B93E8030016AA02E9D8
:1007D800030012AA03F1080103C982E8030010AA62
:1007E80003F1100103C982E803000EAA03F11801FE
:1007F80003C982E803000DF1300C03F1200292E8EE
:1008080003008CE803000DF1280C03F1280103C94B
:100818008CE803000DF1200C03F1300103C98CE8CA
:1008280003000DF1180C03F1380103C98CE803002B
:100838000DF1100C92E803008CE8030002AA403383
:1008480093E8030082E803009DED121ADDED131A08
:100858009DED140ADDED150A0121204600F01EF970
:100868009DED0E1ADDED0F1A9DED100ADDED110A52
:100878000321204600F012F99DED0A1ADDED0B1A4E
:100888009DED0C0ADDED0D0A0521204600F006F964
:100898009DED061ADDED071A9DED080ADDED090A42
:1008A8000721204600F0FAF89DED021ADDED031A43
:1008B8009DED040ADDED050A0921204600F0EEF859
:1008C800FFF738FFFFF7BEFCFFF70EFDFFF742FE0C
:1008D800FFF790FEFFF7FEFE01222349234801F0AF
:1008E800E5F8234C0021204603F02AF8042120468D
:1008F80003F026F80021204602F0FCFE04212046E1
:1009080002F0F8FE002301220DF10701194803F057
:1009180002FDD8B1184B1A88184B1B889A42F1D09F
:10092800154B198801EBC10301EB43010523132281
:10093800134801440F4803F084FC0028E2D10E4A12
:100948001388013303F03F031380DBE79DF80700AA
:10095800FFF7AEFCDEE700BF0005002000409C4624
:1009680000004842E4550008F445002038470020BC
:10097800F845002044460020380000203A000020B6
:100988003C0000200E4B1B78CBB910B51C460FE07D
:1009980007EE904AB8EEE70ADFED0A7A20EE270A5A
:1009A80003F03CFE084B03EB840383ED000A01349B
:1009B800B4F5805FECDB024B01221A7010BD704762
:1009C800A4470020DB0FC93AA8470020000D00F516
:1009D8008063C3F30B03054A02EB83031B680B60B8
:1009E80002EB800213684B60704700BFA8470020E5
:1009F800000D034B03EB800393ED000A704700BF23
:100A0800A847002070B52DED028B0546B0EE408A50
:100A1800F0EE608A0C4611EE106AFFF7B3FF04B9D6
:100A2800012485ED388A07EE904AF8EE677A67EE7A
:100A3800A80AB7EE007AC7EE207AC5ED397A002405
:100A480085F8DC40C5F8E860C0EE887A05F5804393
:100A5800FCEEE76A16EE902AA3F8EE20C7EE276AA6
:100A6800C3ED3C6AA3F8EC404FF48042214605F1FF
:100A7800EC0003F0A6FD21460BE02C2201FB02F25C
:100A8800AB180020A85400225A609A60DA611A62F2
:100A980001310429F1DDBDEC028B70BD10B584B0C5
:100AA8008DED020ACDED030A8DED001ACDED011A88
:100AB80090F8DCC0BCF1040F34D803460C462C2156
:100AC80001FB0CF100EB010E44540EF10C0204A9D9
:100AD80011E9030082E803000EF11402DDE90001C8
:100AE80082E8030093ED387A07EE904AF8EE677AC9
:100AF80027EE277AD3ED397A67EE877A9FED0A7A5F
:100B080067EE877AFCEEE77ACEED0A7A0022CEF815
:100B180024200022CEF81C20CEF820200CF1010C55
:100B280083F8DCC004B010BD0000804FD14B1B78A7
:100B3800002B00F09C812DE9F0412DED028BA6B031
:100B4800054600F58041B1F8EC20B1F8EE30D31A33
:100B5800C3F30B033A3300EB830393ED018A30EEC2
:100B6800488AD1ED3C7A28EE278A02F13A0300EB55
:100B7800830383ED010A0132C2F30B02A1F8EC20D2
:100B88000026DFEDBD8A06E0F0EE007A67EE867A91
:100B980078EEA78A013695F8DC30B34240F35081ED
:100BA8002C2404FB0654636AA26A1344636200227D
:100BB8000092019207EE903AF8EE677A6946FCEEE9
:100BC800E77A17EE900AFFF701FFDDED005A25EEF0
:100BD800887A8DED027ADDED017A67EEC87ACDED7F
:100BE800037A0DF1380C271D97E803008CE8030001
:100BF80010AA02AB93E8030082E80300DDED0E6A59
:100C080037EE267A8DED127A9DED0F7A77EE877A98
:100C1800CDED137A0DF1800812AB93E8030088E854
:100C280003000DF1780E8EE8030087E803000DF14C
:100C3800100E8EE8030004F10C0103C98CE80300D0
:100C48009EE8030082E80300DDED0E7A9DED107A40
:100C580067EE876A9DED0F5ADDED114A25EE244AAD
:100C680036EEC46A8DED126A67EEA47A27EE057A2D
:100C780077EE877ACDED137A1CAF93E8030087E807
:100C880003000DF1180888E8030004F1140103C9F2
:100C98008CE80300DDED0E6A9DED105A26EE857A8C
:100CA800DDED0F4A9DED114A64EE843A37EE637A22
:100CB8008DED127A66EE846A25EE245A76EE856A00
:100CC800CDED136A0DF1680E93E803008EE803007A
:100CD80008AF87E8030095ED395A82E8030025EE4E
:100CE800077A8DED127A65EE266ACDED136A0DF15D
:100CF800600E93E803008EE803000AAF87E803005C
:100D08001C3494E803008CE8030097E8030082E8A9
:100D180003009DED0E5A35EE075A8DED125A9DEDE2
:100D28000F7A37EE267A8DED137A16AA93E8030028
:100D380082E8030014AB83E8030084E80300D5EDE0
:100D48003A6AF4EEC56AF1EE10FA04D52C2303FBD7
:100D58000653C3ED076A2C2303FB0653D3ED074A5A
:100D6800B1EE665AF4EEC54AF1EE10FA04D52C231A
:100D780003FB065383ED075AF4EEC76AF1EE10FA47
:100D880004D52C2303FB0653C3ED086A2C2303FB6D
:100D9800065393ED087AB4EEC75AF1EE10FA04DD63
:100DA8002C2303FB065383ED085A0EAF06AB93E8DA
:100DB800030087E803002C2206FB02F2AB1810ACF4
:100DC8001C3393E8030084E803009DED107A76EE67
:100DD800076ACDED126A9DED117A77EE877ACDED2F
:100DE800137A0DF1900E12AB93E803008EE803001E
:100DF8000DF1300C8CE8030087E80300DDE9000101
:100E080084E8030025EEA66A9DED117A27EE275A9D
:100E180036EE456A8DED126A27EE267A65EEA75AF8
:100E280037EE257A8DED137A22AC93E8030084E837
:100E38000300AB5C002B7FF4A7AEF7EE007AA5E6C3
:100E480095ED3A0AB4EEE80AF1EE10FA01D5F0EEA3
:100E5800408AB1EE400AB4EEE80AF1EE10FA01DC7D
:100E6800B0EE680A26B0BDEC028BBDE8F0819FEDBC
:100E7800020A7047A4470020000000000346F7EE6E
:100E8800007AB4EEE70AF1EE10FA1ADDB7EE000ABE
:100E980007EE901AF8EE677AB6EE007A67EE877A70
:100EA80020EE200AB7EE007A30EE070A67EE807A65
:100EB800FCEEE77A17EE900A091AC3ED0D7A9963EA
:100EC8007047FFEE007AB4EEE70AF1EE10FADFD5CC
:100ED800BFEE000ADCE708B501F092FBFEE7FEE78B
:100EE800FEE7FEE7FEE770477047704708B500F079
:100EF8008BFF08BD08B5024801F064FF08BD00BFBC
:100F0800D846002000B583B00B4B1A6E42F00102A0
:100F18001A661A6E02F001020092009A9A6D42F067
:100F280080529A659B6D03F080530193019B02F0F8
:100F380039F803B000BD00BF0010024030B59DB0C5
:100F4800044600211791189119911A911B91542266
:100F580002A803F036FB2368B3F1A04F01D01DB0FF
:100F680030BD4FF4004302934FF00053139302A88F
:100F780001F056FB002837D11E4BDA6C42F40052C0
:100F8800DA64DA6C02F400520092009ADA6C42F0E9
:100F98000102DA64DB6C03F001030193019B032374
:100FA800179318930025199517A94FF0904001F051
:100FB800F5FC1148114B0360052343608560C5604B
:100FC800802303614FF4807343614FF4806383612E
:100FD8002023C3614FF40053036201F03DFE30B992
:100FE800054B63659C62BAE7FFF7B2FAC4E7FFF7FF
:100FF800AFFAF5E700100240D8460020080002408A
:1010080010B59CB0044600211791189119911A91B6
:101018001B91542202A803F0D4FA2268174B9A4273
:1010280001D01CB010BD2023029302A801F0F8FAE9
:1010380000BB134BDA6D42F00102DA65DA6D02F09B
:1010480001020092009ADA6C42F00102DA64DB6C69
:1010580003F001030193019B0C23179302221892BA
:10106800002219921A921B9317A94FF0904001F091
:1010780095FCD6E7FFF76CFADBE700BF008000407D
:10108800001002400268094B9A4200D0704782B0B3
:1010980003F55C431A6E42F400521A661B6E03F4A1
:1010A80000530193019B02B0704700BF0034014018
:1010B80070B588B0002303930493059306930793B0
:1010C8000268214B9A4201D008B070BD03F55C4319
:1010D800DA6C42F00102DA64DA6C02F00102009282
:1010E800009ADA6C42F00202DA64DA6C02F0020268
:1010F8000192019ADA6C42F00402DA64DB6C03F0C4
:1011080004030293029B802303930225049504267B
:10111800079603A94FF0904001F040FC0123039388
:101128000495002405940694079603A9074801F03E
:1011380035FCC0230393049505940694079603A9E8
:10114800034801F02BFCBFE70034014000040048CD
:101158000008004800B50B0A9B0003F00C0300F1DF
:10116800300E5EF8030001F01F014FF01F0C0CFA5F
:1011780001FC20EA0C0CC2F384628A404CEA0202A9
:101188004EF8032000BD00B54B0E9B0003F004038E
:1011980000F1140E5EF80300C1F304514FF0070C80
:1011A8000CFA01FC20EA0C0C8A404CEA02024EF8C8
:1011B800032000BD30B583B000230193002800F060
:1011C80022810446C36D13B323689A6812F0005F46
:1011D80005D09A6822F0204222F03F029A602268E5
:1011E800936813F0805F1FD1936823F0104323F0B6
:1011F8003F0343F080539360844B1B689B09844AE8
:10120800A2FB03239B0901335B00019309E0FFF76D
:1012180095FE0023236684F85830D5E7019B013BEF
:101228000193019B002BF9D12268936813F0805F2A
:1012380038D1E36D43F01003E365236E43F00103F7
:1012480023660120936813F0040300D00123E16DA5
:1012580011F0100F40F0D380002B40F0D080E36DE8
:1012680023F4817343F00203E365936813F0010FDD
:1012780036D1B2F1A04F17D0664B9A4214D0664BC4
:10128800996801F0010103F580739B6803F001037D
:101298000B436249896801F001010B430CBF01232C
:1012A80000230FE00020CDE74FF0A043996801F03C
:1012B800010103F580739B6803F001030B430CBF26
:1012C8000123002363B1B2F1A04F6BD0514B9A4276
:1012D80066D0534963688A6822F47C1213438B6092
:1012E800627FE36B43EA4233E2681343A268134325
:1012F80094F8242043EA0243012A55D0E26A22B135
:1013080002F47872216B0A4313432168D1F80CC0A8
:10131800444A0CEA02021A43CA602268136923F09D
:101328004063616B0B4313612268936813F00803F1
:1013380000D001232BBB237F94F83810490041EAE1
:101348008331D36823F4804323F002030B43D36033
:10135800236973B32268136943F4803313612268E5
:10136800D2F8C0306FF30D0321690B43C2F8C030C7
:1013780094F84030012B29D02268136923F0010327
:1013880013616369012B31D02268136B23F00F03BB
:101398001363E36D23F0030343F00103E36533E0D4
:1013A800214997E7204995E7A26A013A43EA42436F
:1013B800A4E72268136923F4803313612268D2F802
:1013C800C0306FF30D03C2F8C030D1E721680B6954
:1013D8006FF38A03626CA56C2A43E56C2A43256D7A
:1013E8002A43134343F001030B61CAE721680B6BDF
:1013F80023F00F03226A013A13430B63C9E7E36D35
:1014080043F01003E365012003B030BD080000205D
:10141800632D3E05000100500004005000060050F6
:10142800000700500740F0FF00030050704708B560
:10143800806AFFF7FBFF08BD704708B50346806A5E
:10144800C26D12F0500F30D1C36D43F40073C36501
:1014580003681A6812F0080F14D0DA6812F4406FA3
:1014680020D1DB6813F4005F1CD1C36D23F48073B3
:10147800C365C36D13F4805F14D1C36D43F00103DA
:10148800C3650FE0DB6813F0020F0BD1C36D23F4C3
:101498008073C365C36D13F4805F03D1C36D43F0DC
:1014A8000103C365FFF702F808BDC26D12F0100F03
:1014B80004D1426D526B18469047F5E7FFF7BCFF21
:1014C800F2E708B5806AC36D43F04003C365036E55
:1014D80043F004030366FFF7AFFF08BDF0B583B020
:1014E8000023019390F85830012B00F056820446EF
:1014F8000D46012380F858300068836813F0040F04
:1015080005D0E36D43F02003E365012092E00A680B
:101518004968FFF71FFE2068836813F0040300D0B2
:101528000123826812F00802174601D001221746EB
:10153800002B40D1002F3ED1AA68B2F1004F7ED0D7
:101548002968FFF720FE2268536923F0004353619E
:1015580069692268D368C3F3C1035B0099402869AD
:1015680004287AD0603252F820C0A64B0CEA030354
:101578002E6806F0F84C41EA0C010B4343F0004397
:1015880042F8203023682869AA69603353F820108C
:1015980021F080710A4343F82020236829692A7FB3
:1015A800012A56D0603353F8212022F000723846C1
:1015B800104343F821002268936813F0010F17D1F4
:1015C8002B68E868D2F8B010C3F3120C21EA0C01BA
:1015D80000F0180C8C4820FA0CF00340C3F31203F7
:1015E8000B43C2F8B030EA68884B9A4200F09D80FD
:1015F8002B68874A13421CD02268B2F1A04F00F032
:10160800688184498A4200F061818349896801F0D0
:10161800E070824DAB4200F05E81814DAB4200F03C
:101628005A81804DAB4200F087817F4DAB4200F07C
:101638009E810020002384F8583003B0F0BD3A465C
:101648002968FFF7A0FD2268536943F000435361FE
:101658007EE74FF000721746A4E7136E116EC1F3D0
:1016680084612B68C3F3120080BBC3F3846399427F
:1016780034D021684B6E4A6EC2F384622B68C3F380
:10168800120080BBC3F384639A4234D021688B6E06
:101698008A6EC2F384622B68C3F3120080BBC3F363
:1016A80084639A4234D02168CB6ECA6EC2F38462D6
:1016B8002B68C3F3120080BBC3F384639A427FF4A0
:1016C8007AAFCB6E23F00043CB6674E793FAA3F3AB
:1016D80013B1B3FA83F3CAE72023C8E7136E23F0E4
:1016E80000431366C5E793FAA3F313B1B3FA83F380
:1016F800CAE72023C8E74B6E23F000434B66C5E7D3
:1017080093FAA3F313B1B3FA83F3CAE72023C8E724
:101718008B6E23F000438B66C5E793FAA3F313B1EE
:10172800B3FA83F3CAE72023C8E720682B68C3F31A
:10173800120CBCF1000F2DD19A0E013202F01F02DB
:10174800092A8CBF00220122002A6FD0BCF1000FA9
:101758002FD1990E0131890601F0F841BCF1000F33
:1017680033D14FEA936E0EF1010E0EF01F0E0122D7
:1017780002FA0EF21143BCF1000F35D19B0E013372
:1017880003F01F0303EB43031B051943AA68FFF784
:10179800FAFC2DE793FAA3F24AB1B2FA82F20132C7
:1017A80002F01F02092A8CBF00220122CCE7202266
:1017B800F5E793FAA3F131B1B1FA81F10131890664
:1017C80001F0F841CAE72021F8E793FAA3F24AB1F9
:1017D800B2FA82F2013202F01F024FF0010E0EFA45
:1017E80002F2C7E72022F5E793FAA3F343B1B3FA6D
:1017F80083F3013303F01F0303EB43031B05C4E723
:101808002023F6E700F0FF03FFFF070000007F40FA
:10181800000008800001005000070050000021C3AC
:101828001000C090000052C7000084CBBCF1000F2C
:1018380020D1990E0131890601F0F841BCF1000F61
:1018480024D14FEA936E0EF1010E0EF01F0E012205
:1018580002FA0EF21143BCF1000F26D19B0E0133A0
:1018680003F01F030A3B03EB43031B0543F000731C
:1018780019438BE793FAA3F131B1B1FA81F1013140
:10188800890601F0F841D9E72021F8E793FAA3F295
:101898004AB1B2FA82F2013202F01F024FF0010E91
:1018A8000EFA02F2D6E72022F5E793FAA3F35BB12A
:1018B800B3FA83F3013303F01F030A3B03EB43033B
:1018C8001B0543F00073D3E72023F3E701F500710C
:1018D8009CE633499AE611F4000F7FF4A2AEB2F108
:1018E800A04F03D02F4B9A427FF4A3AEB2F1A04F82
:1018F80019D02D4B9A4214D02C4A40F4000093681A
:1019080023F0E07318439060294B1B689B09294A10
:10191800A2FB03239B09013303EB43039B000193C1
:1019280006E01F4AE9E71E4AE7E7019B013B0193EE
:10193800019B002BF9D17CE611F0807F7FF475AE16
:10194800194B9A423FF475AE03F580639A423FF40F
:1019580070AEB2F1A04F08D0144940F080738A6885
:1019680022F0E07213438B6063E60D49F5E711F44A
:10197800800F7FF45EAE0C4B9A423FF45AAEB2F140
:10198800A04F08D0094940F480038A6822F0E07229
:1019980013438B604DE60249F5E702204DE600BF90
:1019A80000030050000600500001005000070050DE
:1019B80008000020632D3E0530B583B00023019355
:1019C80003689A6812F0010F60D104469968314A99
:1019D800114220D19A6822F0004222F03F0242F0E0
:1019E80001029A600368B3F1A04F20D02A4A9342BB
:1019F8001BD02A4B9B6813F4000F20D0284B1B6880
:101A08009B09284AA2FB03239B09013303EB4303E9
:101A18009B00019310E0C36D43F01003C365036E90
:101A280043F001030366012031E01F4BE2E71E4B40
:101A3800E0E7019B013B0193019B002BF9D100F0EA
:101A4800EFF9054623681A6812F0010F1ED19A684B
:101A580012F0010F07D19A6822F0004222F03F02EB
:101A680042F001029A6000F0DBF9431B022BE9D92E
:101A780023681B6813F0010FE4D1E36D43F01003F2
:101A8800E365236E43F001032366CCE7002003B02F
:101A980030BD00BF3F00008000010050000700502B
:101AA80008000020632D3E0500030050F8B50446E9
:101AB8000E4617460068B0F1A04F6FD0424B9842CF
:101AC80069D0424B9B6803F01F031D46836813F0DF
:101AD800040F65D194F85830012B61D0012384F8A4
:101AE80058303B4B984207D0092D68D840F2212343
:101AF800EB4013F0010F62D02046FFF75DFF00288E
:101B080059D1E36D23F4706323F0010343F4807328
:101B1800E36523682C4A934247D002F580629342DA
:101B280040D01A46934200D01DB9E36D23F48013C8
:101B3800E365E36D13F4805F3AD0236E23F0060368
:101B48002366636D234ADA62636D234A1A63636D01
:101B5800224A5A6323681C221A60002384F85830EA
:101B68002268536843F0100353602268D36843F037
:101B78000103D36021683B4632464031606D01F075
:101B8800D7F82268936823F0004323F03F0343F01B
:101B98000403936005E003F5007393E7104B91E7A6
:101BA8000220F8BDA2F58072BCE74FF0A042B9E769
:101BB80000232366C5E7002384F85830F1E70023A3
:101BC80084F858300120ECE700010050000700506D
:101BD800000600504314000837140008CB1400080E
:101BE8000003005090F85820012A00F0C88010B473
:101BF8009DB00346012280F85820002218921992BD
:101C08000068B0F1A04F48D05E4A904248D0002208
:101C18000192019A002A47D0926812F0040200D07B
:101C28000122D0F808C01CF0040F40F09D80002A63
:101C380040F09A80B0F1A04F42D0534A90423CD035
:101C4800524A086800285AD0906820F4604093F8F7
:101C580038C04C6844EA4C3C40EA0C009060186874
:101C6800B0F1A04F2ED0DFF820C160452AD04548FA
:101C7800806800F0010C4648806800F0010040EAE6
:101C88000C00DFF814C1DCF808C00CF0010C50EAB5
:101C98000C000CBF0120002022E03B4A0192B8E76B
:101CA80002F580720192B4E7DA6D42F02002DA653B
:101CB800002283F8582001205EE002F50072C0E798
:101CC800344ABEE74FF0A040806800F0010C2E486F
:101CD800806800F0010050EA0C000CBF01200020D1
:101CE80058B1906820F4716020F00F00D1F800C05E
:101CF80089684CEA010108439060002039E0916846
:101D080021F4604191601968B1F1A04F15D01E48C7
:101D1800814212D01B49886800F0010001F58071EA
:101D2800896801F0010101431B48806800F0010047
:101D380001430CBF012100210DE04FF0A04188684C
:101D480000F0010001F58071896801F0010101438B
:101D58000CBF012100210029CFD0916821F47161C5
:101D680021F00F019160C8E7DA6D42F02002DA65D0
:101D78000120002283F858201DB010BC70470220B3
:101D8800704700BF000400500001005000070050D9
:101D98000005005000030050000600500F4B1B6860
:101DA8000BB90120704710B504460D4A10684FF46E
:101DB8007A72B2FBF3F3B0FBF3F001F065F908B106
:101DC800012010BD0F2CFBD8024621464FF0FF30F2
:101DD80001F046F9034B1C600020F2E700000020E8
:101DE800080000200400002010B5032001F026F9A7
:101DF8000020FFF7D3FF18B101231C46204610BD71
:101E08000446FFF77FF8F9E7034A136803490968AE
:101E18000B441360704700BFA88700200000002013
:101E2800014B1868704700BFA8870020124BDA687A
:101E380002F00302DB68C3F303130133032A11D052
:101E48000E48B0FBF3F00C4BDB68C3F3062303FB2F
:101E580000F0094BDB68C3F3416301335B00B0FB5F
:101E6800F3F070470648B0FBF3F0034BDB68C3F3AD
:101E7800062303FB00F0ECE7001002400024F40006
:101E880000366E01002800F0488270B582B0044622
:101E9800036813F0010F37D0A14A936803F00C03CD
:101EA800D26802F003020C2B24D0082B24D06368DC
:101EB800B3F5803F4DD0B3F5A02F50D0984B1A689A
:101EC80022F480321A601A6822F480221A60636849
:101ED800002B51D0FFF7A4FF0546914B1B6813F464
:101EE800003F11D1FFF79CFF401B6428F5D984E01F
:101EF800012083E0032AD8D1894B1B6813F4003FE3
:101F080002D06368002BF3D0236813F0020F59D076
:101F1800834A936803F00C03D26802F003020C2B87
:101F280038D0042B38D0E368002B72D07C4A136871
:101F380043F480731360FFF773FF0546784B1B6803
:101F480013F4806F5CD1FFF76BFF401B0228F5D9B3
:101F580053E0734A136843F480331360B7E703F11F
:101F68008043A3F53C331A6842F480221A601A6849
:101F780042F480321A60AAE7FFF752FF0546684B21
:101F88001B6813F4003FBFD0FFF74AFF401B6428CB
:101F9800F5D932E0022AC4D1614B1B6813F4806F73
:101FA80002D0E368002BA3D05D4A536823F0FE43B8
:101FB800216943EA016353605A4B1868FFF7EEFE44
:101FC800002895D1236813F0080F4BD063699BB3A1
:101FD800534AD2F8943043F00103C2F89430FFF723
:101FE8001FFF05464E4BD3F8943013F0020F39D13A
:101FF800FFF716FF401B0228F4D9032002B070BD7A
:10200800474A536823F0FE43216943EA016353605A
:10201800D8E7434A136823F480731360FFF700FF7F
:1020280005463F4B1B6813F4806FCBD0FFF7F8FED3
:10203800401B0228F5D9E0E7394AD2F8943023F05A
:102048000103C2F89430FFF7EBFE0546344BD3F892
:10205800943013F0020F05D0FFF7E2FE401B022870
:10206800F4D9CAE7236813F0040F7FD02C4B9B6D7B
:1020780013F0805F36D12A4B9A6D42F080529A65F0
:102088009B6D03F080530193019B01231E46264B51
:102098001B6813F4807F28D0A368012B38D0052B48
:1020A80044D01F4BD3F8902022F00102C3F89020AF
:1020B800D3F8902022F00402C3F89020A368002BE4
:1020C80042D0FFF7ADFE0546154BD3F8903013F01C
:1020D800020F4AD1FFF7A4FE401B41F28833984211
:1020E800F2D98AE700231E46D1E70F4A136843F462
:1020F80080731360FFF794FE05460B4B1B6813F4BF
:10210800807FC9D1FFF78CFE401B0228F5D974E700
:10211800034AD2F8903043F00103C2F89030CDE77B
:102128000010024004000020007000407C4BD3F8EF
:10213800902042F00402C3F89020D3F8902042F097
:102148000102C3F89020B9E7FFF76AFE0546744B11
:10215800D3F8903013F0020F07D0FFF761FE401B51
:1021680041F288339842F2D947E7DEB9236813F081
:10217800200F33D0A369DBB1694AD2F8983043F015
:102188000103C2F89830FFF74BFE0546644BD3F8BD
:10219800983013F0020F21D1FFF742FE401B0228AE
:1021A800F4D92AE75E4A936D23F080539365DDE7FF
:1021B8005B4AD2F8983023F00103C2F89830FFF751
:1021C8002FFE0546564BD3F8983013F0020F05D072
:1021D800FFF726FE401B0228F4D90EE7E369002B1F
:1021E80063D04F4A926802F00C020C2A5FD0022B8F
:1021F80012D04B4A136823F080731360FFF710FE68
:102208000446474B1B6813F0007F49D0FFF708FED0
:10221800001B0228F5D9F0E6414A136823F08073C1
:102228001360FFF7FDFD05463D4B1B6813F0007F6B
:1022380005D0FFF7F5FD401B0228F5D9DDE6384A41
:10224800D36838491940236A606A013843EA0013A1
:10225800A06A43EA0023206B4008013843EA405350
:10226800606B4008013843EA4063E06A43EAC063B0
:102278001943D160136843F080731360D36843F047
:102288008073D360FFF7CCFD0446254B1B6813F021
:10229800007F0AD1FFF7C4FD001B0228F5D9ACE680
:1022A8001F4AD168204B0B40D3600020A6E6012BC3
:1022B8003FF41EAE1A4BDB6803F00301226A914219
:1022C8007FF416AE03F0F002616A0139B2EB011F28
:1022D8007FF40EAE03F4FE42A16AB2EB012F7FF445
:1022E80007AE03F07842E16AB2EBC16F7FF400AE4B
:1022F80003F4C001226B5208013AB1EB425F7FF44C
:10230800F7AD03F0C063626B5208013AB3EB426F5A
:1023180001D1002072E6012070E60120704700BF5D
:10232800001002400C809F01FCFFEEFE1E4B9B68D4
:1023380003F00C03042B33D01B4B9B6803F00C03F6
:10234800082B2FD0184B9B6803F00C030C2B01D0E3
:1023580000207047144BDA6802F00302DB68C3F30D
:1023680003130133032A11D01048B0FBF3F00E4BCE
:10237800DB68C3F3062303FB00F00B4BDB68C3F3F6
:10238800416301335B00B0FBF3F070470848B0FBD2
:10239800F3F0054BDB68C3F3062303FB00F0ECE71F
:1023A8000248704702487047001002400024F400B9
:1023B80000366E01002800F0E280F8B50C460546AC
:1023C800704B1B6803F00F038B420AD26D4A1368E7
:1023D80023F00F030B431360136803F00F038B42C2
:1023E80035D12B6813F001031F465CD06B68032BB3
:1023F80028D0022B47D0644B1B6813F4806F26D07B
:10240800FFF794FF614B984243D800231F465E4A6A
:10241800936823F0030369680B439360FFF700FD9B
:102428000646594B9B6803F00C036A68B3EB820FAE
:1024380039D0FFF7F5FC801B41F288339842F0D978
:10244800032005E0504B1B6813F0007F01D10120E9
:10245800F8BDFFF7EBFC4D4B9842D6D94A4B9B6829
:1024680013F0F00F07D02B6813F002031F46CED0ED
:10247800AB68002BC9D1444A936823F0F00343F0BA
:10248800800393600CE0404B1B6813F4003FB7D106
:10249800DDE73D4A936823F0F00343F0800393603F
:1024A80080231F46B3E72B6813F0020F48D013F0C0
:1024B800040F04D0344A936843F4E06393602B68B4
:1024C80013F0080F06D0304A936823F47C5343F482
:1024D800E06393602C4A936823F0F003A9680B43E8
:1024E8009360284B1B6803F00F03A34230D82B6876
:1024F80013F0040F06D0244A936823F4E063E968D4
:102508000B4393602B6813F0080F07D01E4A93689B
:1025180023F46053296943EAC1039360FFF706FF78
:10252800194B9B68C3F30313194AD35C03F01F03C9
:10253800D840184B1860184B1868FFF72FFC87E72E
:10254800802FCED1104A936823F0F0039360C8E738
:102558000C4A136823F00F0323431360FFF760FC52
:102568000646084B1B6803F00F03A342BFD0FFF7D2
:1025780057FC801B41F288339842F2D960E701206A
:10258800704700BF002002400010024000B4C4049D
:10259800745600080800002004000020014B186849
:1025A800704700BF0800002008B5FFF7F7FF054B8C
:1025B8009B68C3F30223044AD35C03F01F03D8408B
:1025C80008BD00BF001002406C56000808B5FFF7B0
:1025D800E5FF054B9B68C3F3C223044AD35C03F0B1
:1025E8001F03D84008BD00BF001002406C56000809
:1025F800024A136843F40023136070470010024036
:1026080008B5064BDB6913F4807F00D108BDFDF7E0
:1026180021FF024B4FF480721A62F7E70010024064
:10262800F0B583B00446036813F4002F70D0364B1E
:102638009B6D13F0805F1FD1334B9A6D42F080522F
:102648009A659B6D03F080530193019B01231E46FD
:102658002E4A136843F480731360FFF7E1FB0546C5
:102668002A4B1B6813F4807F09D1FFF7D9FB401B65
:102678000228F5D9032503E000231E46E8E70025D4
:1026880045BB214BD3F8903013F4407318D0226D1A
:102698009A4212D01C4AD2F8903023F44073D2F8F0
:1026A800901041F48031C2F89010D2F8901021F4C3
:1026B8008031C2F89010C2F8903013F0010F10D199
:1026C80045B9114AD2F8903023F44073216D0B4379
:1026D800C2F89030EEB10C4A936D23F080539365A5
:1026E80017E0FFF79DFB0746074BD3F8903013F030
:1026F800020FE5D1FFF794FBC01B41F288339842E3
:10270800F2D90325DCE700BF00100240007000404A
:102718000025236813F0010F08D09F4AD2F88830AB
:1027280023F0030361680B43C2F88830236813F071
:10273800020F08D0984AD2F8883023F00C03A16819
:102748000B43C2F88830236813F0040F08D0924A6C
:10275800D2F8883023F03003E1680B43C2F88830A0
:10276800236813F0080F08D08B4AD2F8883023F07A
:10277800C00321690B43C2F88830236813F0100F97
:1027880008D0854AD2F8883023F4407361690B4336
:10279800C2F88830236813F0200F08D07E4AD2F898
:1027A800883023F44063A1690B43C2F8883023685A
:1027B80013F0400F08D0784AD2F8883023F44053F9
:1027C800E1690B43C2F88830236813F0800F08D002
:1027D800714AD2F8883023F44043216A0B43C2F887
:1027E8008830236813F4807F08D06B4AD2F8883089
:1027F80023F44033616A0B43C2F88830236813F42A
:10280800003F08D0644AD2F89C3023F00303A16A41
:102818000B43C2F89C30236813F4007F08D05E4A4B
:10282800D2F8883023F44023E16A0B43C2F8883099
:10283800236813F4806F0CD0574AD2F8883023F4F9
:102848004013216B0B43C2F88830236BB3F5801F0C
:1028580079D0236813F4006F0CD04F4AD2F888302F
:1028680023F44003616B0B43C2F88830636BB3F504
:10287800800F6DD0236813F4805F0CD0464AD2F8DD
:10288800883023F04073A16B0B43C2F88830A36BE8
:10289800B3F1807F61D0236813F4005F0CD03E4A07
:1028A800D2F8883023F04063E16B0B43C2F88830DC
:1028B800E36BB3F1006F55D0236813F4804F0CD04D
:1028C800354AD2F8883023F04063216C0B43C2F8B4
:1028D8008830236CB3F1006F49D0236813F4004F9C
:1028E8000CD02D4AD2F8883023F04053616C0B434A
:1028F800C2F88830636CB3F1805F3DD0236813F46D
:10290800803F0CD0244AD2F8883023F04043A16C91
:102918000B43C2F88830A36CB3F1804F31D02368E1
:1029280013F4802F0CD01C4AD2F89C3023F44013A7
:10293800E16C0B43C2F89C30E36CB3F5001F25D063
:10294800284603B0F0BDD36843F48013D36080E712
:10295800D36843F48013D3608CE7D36843F48013BF
:10296800D36098E7D36843F48013D360A4E7D368AF
:1029780043F48013D360B0E7D36843F48033D36063
:10298800BCE7D36843F48033D360C8E7D36843F423
:102998008013D360D4E700BF0010024070B582B046
:1029A80000236DE085684FEA430E032404FA0EF411
:1029B80025EA0405CC6804FA0EF42C4384604468C4
:1029C80024EA0C044D68C5F3001C0CFA03FC4CEA1D
:1029D8000404446068E08C68012C6BD178E0DD0861
:1029E800083550F8254003F0070C4FEA8C0C4FF0DF
:1029F8000F0E0EFA0CFE24EA0E0E0C6904FA0CF403
:102A080044EA0E0440F8254068E0052400E000246C
:102A180004FA0EF42C430CF1020C594D45F82C40E5
:102A2800584CA4686FEA020C24EA02054E6816F4B2
:102A3800801F01D042EA0405524CA560E4680CEA04
:102A480004054E6816F4001F01D042EA04054D4CF7
:102A5800E56064680CEA04054E6816F4003F01D08E
:102A680042EA0405474C656024680CEA04054E6890
:102A780016F4803F01D042EA0405424A156001334A
:102A88000A6832FA03F479D04FF0010C0CFA03FC0F
:102A98001CEA0202F3D04C6804F0030E0EF1FF3E6C
:102AA800BEF1010F7FF67EAF4C6804F0030CBCF159
:102AB800030F90D0C5685C004FF0030C0CFA04FCBF
:102AC80025EA0C0E8D6805FA04FC4CEA0E04C46075
:102AD8004C6804F0030CBCF1020F80D005685C0060
:102AE8004FF0030C0CFA04FC25EA0C0E4D6805F0B7
:102AF800030C0CFA04FC4CEA0E0404604C6814F451
:102B0800403FBCD0204C256E45F001052566246E5B
:102B180004F001040194019C4FEA930C0CF10205A6
:102B2800174C54F8255003F0030E4FEA8E0E0F246D
:102B380004FA0EF425EA0405B0F1904F3FF467AFAC
:102B4800124CA04212D004F58064A04210D004F5C3
:102B58008064A0420ED004F58064A0420CD004F535
:102B68008064A0423FF451AF062451E701244FE7A7
:102B780002244DE703244BE7042449E702B070BD63
:102B88000000014000040140001002400004004819
:102B980030B5C46C056D6560446D14B1846DC56D48
:102BA8006560446C04F01F0E4FF0010C0CFA0EFC2B
:102BB800046CC4F804C0046863608368102B04D0F4
:102BC800036899600368DA6030BD03689A60036837
:102BD800D960F9E70368104A934214D8DBB2083B7E
:102BE8000E4AA2FB03231B090D49426C22F0030283
:102BF8000A4482640B4AC26403F01F03012202FAEA
:102C080003F303657047DBB2083B044AA2FB0323C6
:102C18001B0908330449E8E707040240CDCCCCCCB3
:102C2800000802408008024020080240436803F080
:102C38007F03074A1A4492004265064A8265013BAF
:102C480003F01F03012202FA03F3C365704700BFB4
:102C58003F8200104009024000285BD010B50446AE
:102C680002682D4B9A423DD82C4B13442C49A1FBAA
:102C780003131B099B0043642A4B0364022384F853
:102C8800253011686FF30E11A368E06803432069CB
:102C9800034360690343A0690343E0690343206A6F
:102CA80003430B4313602046FFF794FFA368B3F573
:102CB800804F22D06368A26C03F07F031360E36C3B
:102CC800226D5A606368013B032B19D900236365A1
:102CD800A365E3650020E063012384F8253084F8C8
:102CE800240010BD104B13440D49A1FB03131B090D
:102CF8009B0043640D4B0364C0E700236360D9E77E
:102D08002046FFF793FF636D00221A60A36DE26D02
:102D18005A60DFE70120704707040240F8FFFDBF53
:102D2800CDCCCCCC00000240F8FBFDBF0004024033
:102D380010B5044690F82400012809D0012084F831
:102D4800240094F82500012804D0002384F82430B6
:102D5800022010BD022084F825000020E063D4F88A
:102D680000C0DCF8000020F00100CCF8000020468C
:102D7800FFF70EFF236BD3B12268136843F00E03ED
:102D88001360A36C1A6812F4803F03D01A6842F4E7
:102D980080721A60636D1BB11A6842F480721A60FF
:102DA8002268136843F0010313600020D1E722680A
:102DB800136823F0040313602268136843F00A03BE
:102DC8001360DEE708B5036C1968D0F800C0DCF8BA
:102DD80000E0436C03F01F0304229A400A4218D013
:102DE8001EF0040F15D0DCF8003013F0200F05D1C9
:102DF800DCF8003023F00403CCF80030436C03F017
:102E08001F02016C042393404B60036B03B1984786
:102E180008BD02229A400A421FD01EF0020F1CD0A1
:102E2800DCF8003013F0200F08D1DCF8003023F074
:102E38000A03CCF80030012380F82530436C03F0F6
:102E48001F02016C022393404B60002380F824305A
:102E5800C36A002BDCD09847DAE7082202FA03F3AA
:102E68000B42D5D01EF0080FD2D0DCF8003023F08A
:102E78000E03CCF80030436C03F01F03016C0122F1
:102E880002FA03F34B60C26380F82520002380F820
:102E98002430436B002BBBD09847B9E7002836D1C4
:102EA8003D4B1B6803F4C063B3F5806F08D03A4A02
:102EB800D2F8803023F48073C2F880300020704745
:102EC800354AD2F8803023F48073C2F88030136812
:102ED80023F4C06343F400731360304B1B68322241
:102EE80002FB03F32E4AA2FB03239B0C013300E0F1
:102EF800013B294A526912F4806F01D0002BF7D1A7
:102F0800254B5B6913F4806F42D100207047B0F500
:102F1800007F07D0204A136823F4C06343F480631A
:102F28001360CBE71C4B1B6803F4C063B3F5806FD9
:102F380007D0194AD2F8803043F48073C2F8803041
:102F4800BCE7154AD2F8803043F48073C2F8803069
:102F5800136823F4C06343F4007313600F4B1B68BA
:102F6800322202FB03F30E4AA2FB03239B0C01331C
:102F780000E0013B084A526912F4806F01D0002B2F
:102F8800F7D1054B5B6913F4806F03D100207047BC
:102F9800032070470320704700700040080000209D
:102FA80083DE1B43024A936843F48043936070476F
:102FB80000700040002807DB00F01F0240090123D1
:102FC8009340024A42F82030704700BF00E100E019
:102FD800002807DB090100F1604000F5614080F836
:102FE8000013704700F00F000901014B1954704796
:102FF80014ED00E000B500F00700A0F1030CBCF1EF
:10300800040F07D8C0F1070E0430062806D84FF081
:10301800000C03E04FF0040E4FF0000C4FF0FF33AC
:1030280003FA0EF021EA000101FA0CF103FA0CF39D
:1030380022EA030241EA020000BD0000074AD36801
:1030480023F4E0631B041B0C000200F4E06003435C
:1030580043F0BF6343F40033D360704700ED00E0F2
:1030680010B50446054BD868C0F30220FFF7C2FF2D
:1030780001462046FFF7ACFF10BD00BF00ED00E0A1
:1030880008B5FFF797FF08BD0138B0F1807F0BD274
:103098004FF0E0235861054AF02182F82310002000
:1030A800986107221A6170470120704700ED00E01F
:1030B80010B5026A036A23F001030362D0F804C062
:1030C800836923F4803323F073030C6844EA030E06
:1030D80022F002028B681343224A904213D002F571
:1030E800006290420FD002F5406290420BD002F588
:1030F8008062904207D002F58062904203D002F5C8
:103108000062904207D1026A22F00402026223F0B0
:103118000803CA681343134A904213D002F50062A9
:1031280090420FD002F5406290420BD002F58062C7
:10313800904207D002F58062904203D002F5006207
:10314800904207D12CF4407C4A6942EA0C028C690F
:1031580044EA020CC0F804C0C0F818E04A684263A8
:10316800036210BD002C014010B5036A026A22F404
:1031780080720262D0F804C0C26922F4803222F060
:1031880073020C6844EA020E23F400738A6843EA67
:1031980002231D4A904207D002F50062904203D0F4
:1031A80002F5E052904208D1026A22F4806202627B
:1031B80023F40063CA6843EA0223134A904213D0F7
:1031C80002F5006290420FD002F5406290420BD0A7
:1031D80002F58062904207D002F58062904203D0E7
:1031E80002F50062904207D12CF4405C4A694CEA2F
:1031F800021C8A694CEA021CC0F804C0C0F81CE032
:103208004A68C263036210BD002C014010B5036A0E
:10321800026A22F480520262D0F804C0C26922F025
:10322800807222F4E6420C6842EA042223F4005336
:103238008C6843EA0433DFF87CE0704507D00EF56C
:10324800006E704503D00EF5E05E70450AD1D0F8E7
:1032580020E02EF4804EC0F820E023F40043CC6830
:1032680043EA0433DFF84CE0704513D00EF5006EE6
:1032780070450FD00EF5406E70450BD00EF5806E80
:10328800704507D00EF5806E704503D00EF5006EC0
:10329800704507D12CF4404C4C694CEA841C8C696D
:1032A8004CEA841CC0F804C0C2614A680264036224
:1032B80010BD00BF002C014010B5036A026A22F459
:1032C80080320262D0F804C0026D22F4803222F00B
:1032D80070020C6844EA020E23F400338A6843EA59
:1032E8000243124A904213D002F5006290420FD076
:1032F80002F5406290420BD002F58062904207D0FE
:1033080002F58062904203D002F50062904204D137
:103318002CF4803C4A694CEA022CC0F804C0C0F87E
:1033280050E04A688264036210BD00BF002C01406F
:1033380010B5036A026A22F480120262D0F804C04F
:10334800026D22F0807222F4E0420C6842EA042204
:1033580023F400138C6843EA0453DFF848E070450F
:1033680013D00EF5006E70450FD00EF5406E704507
:103378000BD00EF5806E704507D00EF5806E704547
:1033880003D00EF5006E704504D12CF4802C4C69E6
:103398004CEA842CC0F804C002654A68C26403621F
:1033A80010BD00BF002C01400368384A904216D077
:1033B800B0F1804F13D0A2F5943290420FD002F5AD
:1033C800806290420BD002F58062904207D002F5ED
:1033D8009432904203D002F5E052904203D123F098
:1033E80070034A681343294A904222D0B0F1804FB3
:1033F8001FD0A2F5943290421BD002F58062904211
:1034080017D002F58062904213D002F594329042B0
:103418000FD002F5406290420BD002F580629042D4
:1034280007D002F58062904203D002F50062904214
:1034380003D123F44073CA68134323F080034A6915
:1034480013438A68C2620A688262104A904213D0A3
:1034580002F5006290420FD002F5406290420BD014
:1034680002F58062904207D002F58062904203D054
:1034780002F50062904201D10A690263026842F0D3
:10348800040202600122426103607047002C01407F
:1034980060B310B5044690F83D3013B3022384F8A6
:1034A8003D30214651F8040BFFF77EFF012384F8D5
:1034B800483084F83E3084F83F3084F8403084F84F
:1034C800413084F8423084F8433084F8443084F83A
:1034D800453084F8463084F8473084F83D30002081
:1034E80010BD80F83C30FDF7CDFDD7E701207047CF
:1034F80010B5036A026A22F010020262D0F804C012
:10350800826922F0807222F4E6420C6842EA0422C0
:1035180023F020038C6843EA0413DFF87CE070454D
:1035280007D00EF5006E704503D00EF5E05E7045CD
:103538000AD1D0F820E02EF0400EC0F820E023F0A9
:103548008003CC6843EA0413DFF84CE0704513D0DD
:103558000EF5006E70450FD00EF5406E70450BD01D
:103568000EF5806E704507D00EF5806E704503D05D
:103578000EF5006E704507D12CF4406C4C694CEA8E
:10358800840C8C694CEA840CC0F804C082614A68D7
:103598008263036210BD00BF002C014038B590F86B
:1035A8003C30012B00F095800446012380F83C3024
:1035B800142A00F28980DFE802F00B8787872087CA
:1035C800878735878787498787875E8787877200D8
:1035D8000D460068FFF76CFD2268936943F0080305
:1035E80093612268936923F00403936122689369C5
:1035F80029690B439361002067E00D460068FFF7D7
:1036080077FF2268936943F40063936122689369A2
:1036180023F48063936122689369296943EA01234B
:103628009361E8E70D460068FFF79EFD2268D369BD
:1036380043F00803D3612268D36923F00403D361FC
:103648002268D36929690B43D361D4E70D46006822
:10365800FFF7DCFD2268D36943F40063D361226875
:10366800D36923F48063D3612268D369296943EA63
:103678000123D361BFE70D460068FFF71DFE2268EE
:10368800136D43F0080313652268136D23F00403D8
:1036980013652268136D29690B431365ABE70D4663
:1036A8000068FFF745FE2268136D43F40063136555
:1036B8002268136D23F4806313652268136D2969EA
:1036C80043EA0123136596E70120002384F83C3080
:1036D80038BD0220FCE701F01F014FF0010C0CFA85
:1036E80001FC036A23EA0C030362036A8A4013435A
:1036F8000362704710B50446102928D8DFE801F0A6
:10370800092727270F272727152727271B27272795
:10371800210090F83E30013B18BF01231CE090F8CF
:103728003F30013B18BF012316E090F84030013BC1
:1037380018BF012310E090F84130013B18BF012366
:103748000AE090F84230013B18BF012304E090F8EA
:103758004330013B18BF0123002B75D110291ED817
:10376800DFE801F0091D1D1D0D1D1D1D111D1D1D6D
:10377800151D1D1D1900022384F83E3012E0022396
:1037880084F83F300EE0022384F840300AE0022338
:1037980084F8413006E0022384F8423002E0022334
:1037A80084F8433001222068FFF795FF2368274AF1
:1037B800934213D002F5006293420FD002F54062A3
:1037C80093420BD002F58062934207D002F58062E3
:1037D800934203D002F50062934203D15A6C42F43B
:1037E80000425A642368194A93421FD0B3F1804FAC
:1037F8001CD0A2F59432934218D002F5806293420D
:1038080014D002F58062934210D002F594329342AC
:103818000CD002F54062934208D002F580529342E0
:1038280004D01A6842F001021A600BE09968084A4D
:103838000A40062A06D0B2F5803F03D01A6842F043
:1038480001021A60002010BD0120FCE7002C014095
:103858000700010038B504460D4600220068FFF74E
:103868003AFF23682D4A934213D002F5006293422F
:103878000FD002F5406293420BD002F5806293426A
:1038880007D002F58062934203D002F500629342AA
:103898000ED11A6A02F0113222F0885242B9196A1E
:1038A80044F24442114203D15A6C22F400425A6451
:1038B8002268136A03F0113323F0885343B9116A5D
:1038C80044F24443194203D1136823F001031360FF
:1038D800102D1ED8DFE805F0091D1D1D0D1D1D1D2D
:1038E800111D1D1D151D1D1D1900012384F83E30D5
:1038F80012E0012384F83F300EE0012384F84030C1
:103908000AE0012384F8413006E0012384F84230BC
:1039180002E0012384F84330002038BD002C014028
:1039280001F00F014FF0040C0CFA01FC036A23EAC2
:103938000C030362036A8A40134303627047000062
:1039480010B504460846002939D194F84430013BA3
:1039580018BF0123002B66D1002846D1022384F822
:103968004430042201462068FFF7DAFF2268536CCE
:1039780043F40043536423682C4A934245D0B3F17F
:10398800804F42D0A2F5943293423ED002F5806235
:1039980093423AD002F58062934236D002F59432CF
:1039A800934232D002F5406293422ED002F5805203
:1039B80093422AD01A6842F001021A6031E00429C1
:1039C80007D008290BD094F84730013B18BF0123D2
:1039D800C0E794F84530013B18BF0123BAE794F8D3
:1039E8004630013B18BF0123B4E7042805D0082856
:1039F80007D0022384F84730B3E7022384F8453020
:103A0800AFE7022384F84630ABE79968084A0A40D2
:103A1800062A06D0B2F5803F03D01A6842F00102A8
:103A28001A60002010BD0120FCE700BF002C0140F7
:103A38000700010038B504460D4600220068FFF76C
:103A48006FFF2268136A03F0113323F0885343B9D8
:103A5800116A44F24443194203D1536C23F40043DE
:103A680053642268136A03F0113323F0885343B96F
:103A7800116A44F24443194203D1136823F0010345
:103A8800136025B9012384F84430002038BD042D83
:103A980005D0082D07D0012384F84730F5E7012326
:103AA80084F84530F1E7012384F84630EDE700005B
:103AB80090F83C20012A4ED010B50346012280F828
:103AC8003C20022280F83D2000684268D0F808C0F7
:103AD800DFF888E0704507D00EF5006E704503D01A
:103AE8000EF5E05E704503D122F470024C68224363
:103AF80022F0007222F070020C68224342601A68B9
:103B0800164882421AD0B2F1804F17D0A0F59430EF
:103B1800824213D000F5806082420FD000F58060A9
:103B280082420BD000F59430824207D000F5406005
:103B3800824203D000F58050824205D12CF0800CDF
:103B4800896841EA0C019160012283F83D20002038
:103B580083F83C0010BD0220704700BF002C0140D4
:103B680090F83C30012B4FD00246012380F83C30BE
:103B7800CB6823F440738868034323F48063486860
:103B8800034323F400630868034323F4805308695C
:103B9800034323F400534869034323F48043086B29
:103BA800034323F47023886943EA004323F08053D6
:103BB800C86903431068DFF854C060450CD00CF5A1
:103BC800006C604508D00CF5E05C604504D04364A7
:103BD800002082F83C00704710B423F470038C6A0C
:103BE80043EA045323F080730C6A234323F00073E1
:103BF8004C6A234323F00053C96A0B4343640020F3
:103C080082F83C0010BC704702207047002C01402D
:103C1800436E2BB90123A0F86A30A0F868307047CA
:103C280000B503689A68C2F342629968490FDFF8E1
:103C38002CE01EF80130DB00DFF824C01CF801106E
:103C480093FBF1F3A0F86A301EF80230DB001CF891
:103C5800022093FBF2F3A0F8683000BD4C56000830
:103C68004456000890F88430012B18D0012380F8BE
:103C780084302423C0F8883003681A68196821F052
:103C88000101196022F000520023436601680A60AE
:103C98002022C0F8882080F8843018467047022017
:103CA800704738B590F88430012B1DD004460123A5
:103CB80080F884302423C0F8883003681D681A68A7
:103CC80022F001021A600268936823F060431943E6
:103CD8009160FFF79DFF23681D602023C4F888309A
:103CE800002084F8840038BD0220FCE738B590F83D
:103CF8008430012B1DD00446012380F8843024230E
:103D0800C0F8883003681D681A6822F001021A603A
:103D18000268936823F0606319439160FFF778FFA6
:103D280023681D602023C4F88830002084F88400AC
:103D380038BD0220FCE7026852E8003F23F4907384
:103D480042E800310029F6D1026802F1080353E87D
:103D5800003F23F0805323F00103083242E800318A
:103D68000029F1D1C36E012B06D02023C0F88C3076
:103D78000023C36643677047026852E8003F23F098
:103D8800100342E800310029F6D1EEE738B50446C1
:103D980083680269134342691343C2691343016884
:103DA8000868984A02401A430A602268536823F454
:103DB8004053E1680B435360A1692268924B9A42D1
:103DC80001D0236A1943936823F06E4323F43063C8
:103DD8000B4393602268D36A23F00F03616A0B4395
:103DE800D3622368894A934227D0894A934238D0BC
:103DF800884A93425CD0884A93426CD0874A93425F
:103E08007CD0814A934200F08F8010227E498B42F9
:103E180000F0AF80E069B0F5004F00F0EA80082AB2
:103E280000F25181DFE812F02E0147014D014F01E8
:103E38004A014F014F014F012B0102F55842D2F8B8
:103E4800882002F00302032ADFD8DFE802F0040624
:103E580002080222DAE70122D8E70422D6E708227C
:103E6800D4E702F5E632D2F8882002F00C020C2AD8
:103E7800CBD801A151F822F0B53E0008133E000846
:103E8800133E0008133E0008633E0008133E000876
:103E9800133E0008133E00085B3E0008133E00086E
:103EA800133E0008133E0008673E00080022ADE7F5
:103EB80002F5E432D2F8882002F03002202AC8D075
:103EC80005D8002AF2D0102A43D104229EE7302ACE
:103ED80041D108229AE702F5E232D2F8882002F0AE
:103EE800C002802AB5D005D8002ADFD0402A34D1B4
:103EF80004228BE7C02A32D1082287E702F5E03294
:103F0800D2F8882002F44072B2F5007FA1D006D81A
:103F1800002ACBD0B2F5807F23D1042276E7B2F510
:103F2800407F20D1082271E73D4AD2F8882002F468
:103F38004062B2F5006F8CD006D8002AB6D0B2F530
:103F4800806F12D1042261E7B2F5406F0FD10822C9
:103F58005CE710225AE7102258E7102256E7102291
:103F680054E7102252E7102250E710224EE71022A1
:103F78004CE7082A00F2A780DFE802F007A505A5AC
:103F88000DA5A5A5100027480AE0FEF70DFB00289F
:103F980000F08F8004E0FEF7C9F9F8E74FF400401D
:103FA800626A214B33F81220B0FBF2F3656805EB27
:103FB8004501994200F28780B3EB053F00F2838008
:103FC80000231946FCF704F9090241EA10610002CE
:103FD8002A466B08C0184FF0000341F10001FCF7B6
:103FE800F7F8A0F54072114B9A426CD82368D86054
:103FF8005FE0082A67D8DFE802F01B3A40663D66B2
:1040080066661F00F369FFCF00800040003801405A
:104018000044004000480040004C00400050004070
:10402800001002400024F40054560008FFFC0F0062
:10403800FEF7BAFA00283CD0626A284B33F81230EF
:10404800B0FBF3F06268530803EB4003B3FBF2F3F1
:10405800A3F110014FF6EF72914234D89AB222F0D0
:104068000F02C3F3420313432268D36021E0FEF733
:10407800ADFADFE7FEF75AF9DCE71948DCE74FF459
:10408800004002E0FEF790FA98B1626A134B33F8E9
:104098001230B0FBF3F0636800EB5300B0FBF3F0B1
:1040A800A0F110024FF6EF739A420CD8236880B241
:1040B800D860002008E0FEF789FAE5E7FEF736F950
:1040C800E2E70748E1E701200123A4F86A30A4F8F1
:1040D800683000236367A36738BD00BF54560008E3
:1040E8000024F400836A13F0080F06D002685368AE
:1040F80023F40043816B0B435360836A13F0010F71
:1041080006D00268536823F40033C16A0B43536036
:10411800836A13F0020F06D00268536823F48033D1
:10412800016B0B435360836A13F0040F06D00268D7
:10413800536823F48023416B0B435360836A13F065
:10414800100F06D00268936823F48053C16B0B43A9
:104158009360836A13F0200F06D00268936823F4F3
:104168000053016C0B439360836A13F0400F0AD02D
:104178000268536823F48013416C0B435360436C0B
:10418800B3F5801F0BD0836A13F0800F06D0026846
:10419800536823F40023C16C0B43536070470268D3
:1041A800536823F4C003816C0B435360EBE72DE99C
:1041B800F04104460D4616469846069F2368DB697B
:1041C80035EA03030CBF4FF0010C4FF0000CB44567
:1041D80034D1B7F1FF3FF1D0FDF722FE4346C01AB4
:1041E800B8421DD8E7B123681A6812F0040FE5D069
:1041F800802DE3D0402DE1D0DA6912F0080F11D1FB
:10420800DA6912F4006FD9D04FF400621A622046BE
:10421800FFF791FD2023C4F89030002384F8843000
:1042280003200CE008251D622046FFF784FDC4F832
:104238009050002384F88430012000E00020BDE87D
:10424800F0812DE9F04182B01E46D0F88830202B4D
:104258005FD104460D46904601B11AB9012002B05B
:10426800BDE8F0810023C0F890302123C0F88830E1
:10427800FDF7D6FD0746A4F85480A4F85680A36835
:10428800B3F5805F02D0002398461CE023696BB326
:104298000023984617E02023C4F888300320DEE77F
:1042A800424632F8023B90462268C3F30803936201
:1042B800D4F8882002F02102212ACFD1B4F8562060
:1042C800013AA4F85620B4F8563093B100963B460C
:1042D800002280212046FFF76AFF0028DBD1002D4D
:1042E800DED015F8012B23689A62E1E7A8461D463F
:1042F800E9E700963B46002240212046FFF757FF9A
:1043080018B92023C4F88830A9E72023C4F88830D6
:10431800C4E70220A3E72DE9F04383B01E46D0F896
:104328008C30202B40F0838004460D46904601B126
:104338001AB9012003B0BDE8F0830023C0F890301B
:104348002222C0F88C20C366FDF76AFD0746A4F850
:104358005C80A4F85E80A368B3F5805F06D0A3B93B
:10436800226972B9FF22A4F8602014E0226922B9F8
:1043780040F2FF12A4F860200DE0FF22A4F86020AC
:1043880009E07F22A4F8602005E0B3F1805F0BD03C
:104398000022A4F86020B4F860209046B3F5805F4E
:1043A8000CD00023994624E022691AB97F22A4F888
:1043B8006020F0E73F22A4F86020ECE7236973B39C
:1043C8000023994615E02023C4F88C300320B1E778
:1043D80023685B6A424613404A4622F8023B9146EC
:1043E800D4F88C30222BA4D1B4F85E20013AA4F87A
:1043F8005E20B4F85E30ABB100963B460022202127
:104408002046FFF7D4FE0028DDD1002DE0D0236838
:104418005A6A5FFA88F3134005F8013BE0E7A946BA
:104428001D46E6E72023C4F88C30002082E70220EE
:1044380080E730B583B004460023C0F89030FDF71C
:10444800EFFC05462268126812F0080F10D12368A5
:104458001B6813F0040F27D12023C4F88830C4F850
:104468008C300020E066206784F8840003B030BDFB
:104478006FF07E430093034600224FF4001120465C
:10448800FFF795FE0028E2D0226852E8003F23F0AB
:10449800800342E800310029F6D12023C4F888308F
:1044A80084F884100320E1E76FF07E4300932B46E5
:1044B80000224FF480012046FFF779FE0028CBD078
:1044C800226852E8003F23F4907342E80031002943
:1044D800F6D1226802F1080353E8003F23F00103F4
:1044E800083242E800310029F3D12023C4F88C3087
:1044F80084F88410D6E778B310B50446D0F888302D
:104508000BB32423C4F888302268136823F001030E
:104518001360A36AE3B92046FFF738FC012811D0DD
:104528002268536823F4904353602268936823F009
:104538002A0393602268136843F00103136020463E
:10454800FFF777FF10BD80F88430FCF759FDD8E7F6
:104558002046FFF7C7FDDEE701207047034AD2F87F
:10456800883043F47003C2F88830704700ED00E0EB
:104578000D488546FFF7F2FF0C480D490D4A002308
:1045880002E0D458C4500433C4188C42F9D30A4A00
:104598000A4C002301E013600432A242FBD300F06E
:1045A80019F8FCF701F9FEE70000022000000020DE
:1045B8000C000020645A00080C000020AC87002082
:1045C800FEE702440346934200D1704703F8011BFB
:1045D800F9E7000070B50D4B0D4C00261D1BB6EB1E
:1045E800A50F09D100F0EEFF0A4C0B4B00261D1B4E
:1045F800B6EBA50F05D170BD54F8043B98470136BA
:10460800EDE754F8043B98470136F1E75C5A000897
:104618005C5A00085C5A0008605A000810EE103A0C
:10462800194A23F0004393421AD9B3F1FF4F02D33A
:1046380030EE400A704700B583B0684600F0F0F8E5
:1046480000F0030001289DED000ADDED010A12D0FB
:1046580002280AD090B9012000F09AF803B000BDF2
:10466800DFED0A0A002000F093B8012000F090F86E
:10467800B1EE400AF2E700F00BF8EFE700F008F8B7
:10468800B1EE400AEAE700BFD80F493F000000003A
:1046980010EE103A23F00043B3F1485F2ED2FDEE3E
:1046A800C07A17EE903A33B360EE007A9FED307A15
:1046B8009FED305ADFED305A9FED306ADFED306AFA
:1046C800A7EE875A9FED2F7AE7EE855AA7EEA56ADF
:1046D800A7EE867AE7EE876A66EEA76A60EEC00AFA
:1046E800B6EE007AE7EEA60AB7EE000AD7EE870A1A
:1046F80030EE600A7047B7EE000A704760EE007A45
:104708009FED1B7A9FED1B5ADFED1B5A9FED1B6A2D
:10471800DFED1B6A1C4AA7EE875A93429FED197A70
:10472800E5EE275AA5EEA76AA6EE277AE7EE276AEE
:1047380066EEA76AD2D9154A934214D803F17F438B
:1047480007EE103AB7EE006A36EE476A60EEC00A26
:10475800F6EE005A97EEA57AE7EEA60A37EE607AEB
:1047680036EE470A7047B6EE076AB5EE027AEDE70D
:104778004ED747ADF6740F317CF293B4010DD037A4
:10478800ABAA2A3D610BB6BA9999993E0000483FF9
:1047980010EE103A23F00043B3F1485F04D2FDEE67
:1047A800C07A17EE903A5BB360EE007A9FED157A07
:1047B800DFED155A9FED156ADFED156AE7EE875AAA
:1047C8009FED147AA5EEA76A20EE275AE6EE276A2F
:1047D800A6EEA77A30B9DFED106AE7EE876AA6EE93
:1047E800850A704727EE457AF6EE006AA0EEA67AAB
:1047F800DFED0A6AD7EE270AE5EE260A30EE600AF0
:10480800704700BFD3C92E2F342FD7B21BEF3836CD
:10481800010D50B98988083CABAA2ABEABAA2A3E2A
:1048280010B510EE104A8A4A24F00043934288B02B
:1048380070D9884A934222D824F00043002C9FED77
:10484800867A864A23F00F0340F3E980934270EE9C
:10485800477A09BF9FED827ADFED826ADFED826ACF
:1048680077EEC77A37EEE67A77EEC77A80ED007A88
:1048780077EEE67AC0ED017A012008B010BD7B4AD8
:104888009342014654D9B3F1FF4F4AD2DA15863A1A
:10489800A3EBC25307EE903ABDEEE77ADFED746AF8
:1048A800B8EEC77A77EEC77A8DED057A67EEA67A05
:1048B800BDEEE77AB8EEC77A77EEC77A8DED067A5D
:1048C80067EEA67AF5EE407AF1EE10FACDED077AAA
:1048D80040F09E80B5EE407AF1EE10FA40F09A80F2
:1048E8000123644801900220009005A8029100F07D
:1048F800D3F8002C0299C0DA91ED007AD1ED017A53
:10490800B1EE477AF1EE677A81ED007AC1ED017A6E
:104918004042B2E7002380ED000A4360002008B05F
:1049280010BD70EE407AC0ED017AC0ED007AF5E76F
:10493800CDE9023000F0A8F89FED4F7A9FED466A66
:10494800F6EE007AE0EE077ADDE90231FDEEE77A6D
:104958009FED447AF8EEE76A17EE900AA6EEC60ACB
:104968001F2866EE877A30EE677A20DCDFF814C1FC
:1049780000F1FF3E24F000425CF82EC022F0FF0256
:10498800624514D030EE470A002C30EE670A81EDFC
:10499800007A81ED010ABFF670AFB1EE477AB1EE49
:1049A800400A81ED007A81ED010A404265E717EE81
:1049B800102AC2F3C752C2EBD352082AE2DD9FED98
:1049C800287ADFED295AB0EE406AA6EEC76A70EE83
:1049D800467AE6EEC77AD6EEA57A36EE677A17EE0D
:1049E800102AC2F3C752C2EBE353192B14DD9FED13
:1049F800237ADFED235AB0EE460AA6EEC70A76EE12
:104A0800407AE6EEC77AD6EEA57A30EE677AB9E74D
:104A1800032366E7022364E7B0EE460AB2E793424F
:104A280070EE077A09BF9FED0E7ADFED0E6ADFEDB3
:104A38000E6A77EE877A37EEA67A77EEC77A80ED38
:104A4800007A77EEA67AC0ED017A4FF0FF3014E7CE
:104A5800D80F493FE3CB1640800FC93FD00FC93F5D
:104A6800004435374344353708A3852E800F494322
:104A7800000080430457000884F9223F00A3852ED4
:104A880032318D248456000810EE103A23F000438A
:104A980000EE103A704700BF2DE9F04F2DED068B60
:104AA800DBB01C46964605936A9AC74B079153F8A4
:104AB800222002921EF1040F814604F1FF38C0F251
:104AC8005682BEF1030348BF0EF10403DB100393C3
:104AD8000133DB000993099BAEEB0302029B13EB46
:104AE800080000F1F782039B9FEDBB7A6B9C0130B5
:104AF800A3EB08031EA918440491002BA4BF54F883
:104B0800235007EE905A03F10103ACBFF8EEE77AA1
:104B1800F0EE477A8342E1EC017AEED1059B0299E7
:104B2800B8F1000F03EB010C46AE444609EB8301D4
:104B3800C0F2D3820498374600EB8305DFEDA67AEE
:104B480028464B46F3EC016A30ED017A8B42E6EEDB
:104B5800877AF7D101346445E7EC017A05F1040559
:104B6800ECD1029CDFED999A9FED999ACDF820E05F
:104B780009AB0DF1280A03EB8403F4EE008A0AEB73
:104B88008407069393460D460DEB840393ED460A7E
:104B9800002C4FEA8403019315DDF318514660EEAB
:104BA800297AB0EE407AFDEEE77A73ED016AF8EE05
:104BB800E77AB342A7EEC97A37EEA60ABDEEC77AFE
:104BC800A1EC017AEBD1584600F0E2FAB0EE408A47
:104BD80020EE280A00F04EFBF2EE007AA0EE678A7B
:104BE800BBF1000FBDEEC8AAF8EECA7A38EE678AA4
:104BF8006ADD601ECBF108035AF820E04EFA03FC88
:104C08000CFA03F31AEE102AAEEB0303CBF10701FB
:104C180043FA01F1624400290AEE102A4AF82030CA
:104C280000F3DC80B5EE408AF1EE10FA5DD1029B0C
:104C38009C420BDD019B0020534453F8042DBB42DA
:104C480040EA0200F9D1002840F02F81029B013B85
:104C580004F1010C5AF82330002B40F02481069B04
:104C6800012153F8042D0131002AFAD02144039B75
:104C7800019A03EB040E059BE0186B9B03EB8E0E69
:104C8800049B03EB8000331D1A44DEED017AF8EE35
:104C9800E77AB8F1000F0EF1040EE0EC017ADFEDCF
:104CA8004E7A09DB04464B46F3EC016A34ED017A8F
:104CB800AB42E6EE877AF7D10CF1010C8C45E2ECB9
:104CC800017AE2DD0C465FE700F0D480F6EE007A68
:104CD800B4EEE78AF1EE10FA80F22E81B5EE408A42
:104CE800F1EE10FA4FF00001A1D0DDF820E05A46AD
:104CF8008B46099B0192A3EB0E00B0EE480A00F028
:104D080047FA9FED337A019AB4EEC70AF1EE10FA2A
:104D1800C0F2A281DFED2D7A60EE277A671CFDEEE6
:104D2800E77A0832F8EEE77AA7EEC70AFDEEE77AE7
:104D3800BDEEC00A10EE103A4AF8243017EE903A49
:104D48004AF827301046B7EE000A00F021FA002F83
:104D5800B0EE407AC0F2D0810AF10403311DDFEDD4
:104D68001B6A03EB870301EB8701BA0073ED017A35
:104D7800F8EEE77A534567EE877A27EE267A61EDF3
:104D8800017AF3D1029C0DF1C80C16440134654632
:104D9800002096460F4ADFED107A314600239842EC
:104DA80003F1010307DBF2EC016AB1EC017A9C42E2
:104DB800E6EE877AF3D1B842E5EC017AA6F104066B
:104DC80000F086800130E5E7485A00080000803B83
:104DD800000080431C5A0008000000000132002C2B
:104DE8000AEE102A40F3688153464FF0000C53F83E
:104DF800040B40BB0CF1010C6445F8DCBBF1000F5F
:104E08000EDDBBF1010F00F08E80BBF1020F07D160
:104E180004F1FF3C5AF82C3003F03F034AF82C30D9
:104E280002297FF4FFAEF7EE007A37EEC88A002831
:104E38003FF4F8AEB7EE000A584600F0A9F902218F
:104E480038EE408AEEE6C0F5807043F8040C0CF1A9
:104E5800010084425EDD53F804CB624601E053F85A
:104E6800042B0130C2F1FF02844243F8042CF6DC23
:104E78000120C3E7631E5AF82310C91100297FF7E0
:104E8800D1AE1AEE103A002C03F101030AEE103AE3
:104E9800AADC022900F06181B5EE408AF1EE10FA31
:104EA8003FF4D4AE21E76146E1E6671EABF10802A4
:104EB8005AF82730019D8B46002B40F02B8109AB17
:104EC8001D4455F8043D013F083A002BF9D039E755
:104ED8006A9B022B724673DC002B4DDC11D10CF15E
:104EE80004035FED437A734433ED017A9C4577EE12
:104EF800877AF9D1BBF1000F40F0CD80079BC3ED55
:104F0800007A1AEE103A03F007005BB0BDEC068B8E
:104F1800BDE8F08FBBF1000F4ADDBBF1010F4FF088
:104F280001007FF472AF04F1FF3C5AF82C3003F013
:104F38007F034AF82C3073E71AEE103A002C03F17D
:104F480001030AEE103AC8BF02213FF74DAFF7EE52
:104F5800007A37EEC88AB5EE408AF1EE10FA3FF4CF
:104F680075AE5A46DDF820E04FF0020BC1E6082383
:104F7800099300230393AEE50CF10403DDED327AC7
:104F88001FED6B7A1A4452ED016A1346043A9445B0
:104F980037EE267AF7D1BBF1000F65D0079AF1EE0C
:104FA800476A77EEC77AC2ED006A002F62D16CE0DB
:104FB80002297FF437AEF7EE007A37EEC88A39E770
:104FC8006A9B032B9DD1002800F0C4800CEB0E04D3
:104FD80094ED007A2346214651ED017AF0EE476AB6
:104FE80037EE277A084677EEC77A043977EEA67A3D
:104FF8008C45C0ED007A00ED017AEDD1012F00F06B
:10500800A98094ED007A73ED017AF0EE476A37EEE5
:10501800277A834277EEC77A83ED007A77EEA67A0D
:10502800C3ED017AEFD15FED947A1A44043332ED7F
:10503800017A9A4277EE877AF9D1DDED326A9DEDF1
:10504800337ABBF1000F29D1079BC3ED006A83EDCA
:10505800017AC3ED027A54E7BDEEC00A274610EE86
:10506800103A4AF824306DE6079A77EEC77A82ED4F
:10507800007A67B10122B3EC017A0132BA4277EEC5
:10508800877AF8DDBBF1000F01D0F1EE677A079B54
:10509800C3ED017A35E7F1EE677A2FE7079BF1EE6A
:1050A800666AB1EE477AF1EE677AC3ED006A83ED7E
:1050B800017AC3ED027A24E7BBF1010F3ED0BBF1C0
:1050C800020F2FD002297FF4E7AEF7EE007A37EE11
:1050D800C88AE1E61EAB049320E500253346601C30
:1050E80060451D6004F102043FF43BADA4455D60DA
:1050F80003F10803F3D134E56A9B022B26DC002B6D
:1051080036DC7FF4FEAEDFED217ABBF1000F3FF411
:10511800F5AEC0E71046B7EE000A00F039F8B0EE79
:10512800407A19E603F03F0302294AF820307FF459
:1051380079ADF7EE007A37EEC88A73E503F07F039E
:1051480002294AF820307FF46DADF2E76A9B032B01
:105158007FF4D7AEDFED0D7A6FE7F7EE007A37EE22
:10516800C88AB5EE408AF1EE10FA3FF46FADBCE59F
:10517800DDED327ABBF1000F04D0079A4FF00043FF
:10518800136082E7079A0023136080E7000000009D
:1051980010EE103A33F000411A4624D0B1F1FF4F17
:1051A80022D213F0FF4F22D1DFED2B7A2B4A60EE8B
:1051B800277A904217EE903A33DB4CF2503CC3F317
:1051C800C75160451A46A1F1190116DDDFED247AB1
:1051D800DFED246A002BB0EE677AB8BFF0EE667A8E
:1051E80027EE870A7047704730EE000A70474CF286
:1051F800503C60454FEAD151E8DC0844FE28E5DC24
:10520800002815DC10F1160F19DB193022F0FF42C7
:1052180042EAC05207EE902A9FED130A27EE800A51
:105228007047DFED127A07EE103A27EE270A70472B
:1052380022F0FF4242EAC05300EE103A7047DFED19
:105248000B7ADFED0B6A002BB0EE677AB8BFF0EE91
:10525800667A27EE870A70470000004CB03CFFFFD3
:10526800CAF24971CAF249F1000000336042A20D46
:105278006042A28D10EE101AC1F3C7527F3A162A67
:1052880021F000431BDC002A1FDB1C4810410142AF
:1052980024D0DFED1B7A70EE277AF5EEC07AF1EEB6
:1052A80010FA1BDD4FF4000313410B4413EA2103EA
:1052B80038BF0B4623EA000300EE103A7047B3F1FB
:1052C800FF4F0BD330EE000A7047DFED0D7A70EE1A
:1052D800277AF5EEC07AF1EE10FA00DC7047002963
:1052E80002DB9FED080AF9E7DFED077A002BBFEE36
:1052F800000A08BFB0EE670A704700BFFFFF7F00D3
:10530800CAF2497100000000000000802DE9F04752
:10531800089F154604468E461E46002B40F0D28054
:105328008A424DD9B2FA82FCBCF1000F02FA0CF3A2
:10533800CCF1200E18BF1D4620FA0EFE01FA0CF320
:105348004EEA030E00FA0CF30CBF8E461C464FEAD9
:105358001548A8B2BEFBF8F1220C08FB11EE01FBC0
:1053680000F342EA0E42934206D9AA1801F1FF3E21
:1053780001D293421ED87146D21AA4B2B2FBF8F3F6
:1053880008FB1322584344EA0244A04206D92C19C8
:1053980003F1FF3201D2A0420FD81346241A43EA80
:1053A800014027B124FA0CF400233C607B603146AD
:1053B800BDE8F08702392A44DEE7023B2C44EDE7DA
:1053C800002A71D0B2FA82F3DBB31E46C6F120037D
:1053D80002FA06F521FA03F2B14020FA03F30B436F
:1053E8004FEA154E00FA06F41FFA85FCB2FBFEF0F0
:1053F8000EFB10211A0C00FB0CF842EA0142904502
:1054080006D9AA1800F1FF3101D290454ED80846B6
:10541800A2EB08029BB2B2FBFEF10EFB112201FBCC
:105428000CFC43EA02439C4506D9EB1801F1FF3214
:1054380001D29C453DD81146A3EB0C0341EA00413B
:1054480001E08B1A01214FEA154E1FFA85FCB3FBC8
:10545800FEF0220C0EFB103300FB0CF842EA03426C
:10546800904506D9AA1800F1FF3301D2904523D8F8
:105478001846A2EB0802A4B2B2FBFEF30EFB1322FD
:1054880003FB0CFC44EA0244A44506D92C1903F199
:10549800FF3201D2A44512D81346A4EB0C0443EA08
:1054A8000040B4460E467CE71F268FE702382A44A0
:1054B800AEE702392B44BFE702382A44D9E7023B5A
:1054C8002C44EAE78B4205D90FB1C7E90001002651
:1054D80030466CE7B3FA83FCBCF1000F0FD18B4266
:1054E80001D3824209D8841A61EB030301209E4646
:1054F8000FB1C7E9004E002659E76046F8E7CCF13E
:10550800200E03FA0CF322FA0EF521FA0EF41D43CD
:1055180001FA0CF320FA0EF119434FEA154900FA83
:105528000CF61FFA85F8B4FBF9F009FB104A0C0CCD
:1055380000FB08F344EA0A44A34202FA0CF206D933
:105548002C1900F1FF3A01D2A34235D85046E41A8B
:1055580089B2B4FBF9F309FB134403FB08F841EAE9
:105568000441884506D9691803F1FF3401D28845FA
:1055780025D8234643EA0040A1EB0801A0FB029886
:1055880041454C46434602D306D14E4504D2B9EBB9
:10559800020468EB05030138002FACD0321B61EB25
:1055A800030101FA0EFE22FA0CF34EEA030321FA74
:1055B8000CF1C7E900319EE702382C44C7E7023BEB
:1055C8002944D7E7F8B500BFF8BC08BC9E46704729
:0C55D800F8B500BFF8BC08BC9E46704748
:1055E4000000003F8FC2F5BC1D38573FB98D863D82
:1055F4006F12833ACDCCCCBEA913503DCDCC4CBF59
:105604006F12833A0AD7233C0AD7233C0AD7A33C18
:105614006F12833A6F12833A0000803EEC5140408F
:105624000000003FF6284040484341313030315FAC
:105634004144435F53545245414D5F56310A000083
:10564400080402040801010101010103070100002B
:10565400010002000400060008000A000C0010000B
:10566400200040008000000100000000010203044B
:1056740000000000000000000102030406070809FE
:10568400000FC93F000F494000CB9640000FC940AE
:105694000053FB4000CB164100ED2F41000F494160
:1056A4000031624100537B41003A8A4100CB96416C
:1056B400005CA34100EDAF41007EBC41000FC94135
:1056C40000A0D5410031E24100C2EE410053FB414C
:1056D40000F20342003A0A420083104200CB164211
:1056E40000141D42005C234200A5294200ED2F4214
:1056F40000363642007E3C4200C74242000F494217
:10570400A2000000F9000000830000006E00000009
:105714004E000000440000001500000029000000B5
:10572400FC0000002700000057000000D10000002A
:10573400F500000034000000DD000000C00000009F
:10574400DB000000620000009500000099000000EA
:105754003C000000430000009000000041000000F5
:10576400FE0000005100000063000000AB000000D8
:10577400DE000000BB000000C50000006100000066
:10578400B7000000240000006E0000003A00000092
:10579400420000004D000000D2000000E0000000C4
:1057A40006000000490000002E000000EA0000008E
:1057B40009000000D1000000920000001C0000005D
:1057C400FE0000001D000000EB0000001C000000B3
:1057D400B100000029000000A70000003E00000006
:1057E400E80000008200000035000000F500000021
:1057F4002E000000BB0000004400000084000000F4
:10580400E90000009C000000700000002600000079
:10581400B40000005F0000007E00000041000000B2
:105824003900000091000000D6000000390000009B
:10583400830000005300000039000000F400000061
:105844009C000000840000005F0000008B0000004A
:10585400BD000000F9000000280000003B0000002B
:105864001F000000F800000097000000FF00000087
:10587400DE00000005000000980000000F0000009A
:10588400EF0000002F000000110000008B0000005A
:105894005A0000000A0000006D0000001F00000014
:1058A4006D000000360000007E000000CF00000004
:1058B40027000000CB00000009000000B700000032
:1058C4004F000000460000003F000000660000009A
:1058D4009E0000005F000000EA0000002D000000B0
:1058E4007500000027000000BA000000C700000097
:1058F400EB000000E5000000F10000007B00000068
:105904003D0000000700000039000000F70000001F
:105914008A0000005200000092000000EA0000002B
:105924006B000000FB0000005F000000B1000000FD
:105934001F0000008D0000005D0000000800000052
:105944005600000003000000300000004600000084
:10595400FC0000007B0000006B000000AB000000B6
:10596400F0000000CF000000BC0000002000000098
:105974009A000000F4000000360000001D00000042
:10598400A9000000E3000000910000006100000095
:105994005E000000E60000001B000000080000009C
:1059A4006500000099000000850000005F00000011
:1059B40014000000A0000000680000004000000087
:1059C4008D000000FF000000D800000080000000EF
:1059D4004D000000730000002700000031000000AB
:1059E400060000000600000015000000560000003C
:1059F400CA00000073000000A8000000C9000000F5
:105A040060000000E20000007B000000C000000015
:105A14008C0000006B0000000000C93F0000F0395A
:105A24000000DA370000A2330000842E0000502B5F
:105A34000000C2270000D0220000C41F0000C61BC3
:105A440000004417040000000700000009000000E3
:085A5400C0F8FF7F0100000013
:045A5C00310200080B
:045A60000D0200082B
:0C5A640001000000100000000024F4000D
:040000050800457931
:00000001FF
