:020000040800F2
:100000000000022075470008F50F0008FD0F0008EA
:100010000110000805100008091000080000000089
:100020000000000000000000000000000D100008AB
:100030001110000800000000151000081910000839
:10004000C5470008C5470008C5470008C547000860
:10005000C5470008C5470008C5470008C547000850
:10006000C5470008C5470008C54700081D1000081F
:100070002910000835100008C5470008C5470008CA
:10008000C5470008C5470008C5470008C547000820
:10009000C5470008C5470008C5470008C547000810
:1000A000C5470008C5470008C5470008C547000800
:1000B000C5470008C5470008C5470008C5470008F0
:1000C000C5470008C5470008C5470008C5470008E0
:1000D000C5470008C5470008C5470008C5470008D0
:1000E000C5470008C5470008C5470008C5470008C0
:1000F000C5470008C5470008C5470008C5470008B0
:10010000C5470008C5470008C5470008C54700089F
:10011000C5470008C5470008C5470008C54700088F
:10012000C5470008C5470008C5470008C54700087F
:10013000C5470008C5470008C5470008C54700086F
:10014000C5470008C5470008C5470008C54700085F
:10015000C5470008C5470008C5470008C54700084F
:10016000C5470008C5470008C5470008C54700083F
:10017000C5470008C5470008C5470008C54700082F
:10018000C5470008C5470008C5470008C54700081F
:10019000C547000800000000C5470008C547000823
:1001A000C5470008C5470008C5470008C5470008FF
:1001B000C5470008C5470008C5470008C5470008EF
:1001C000C5470008C5470008C5470008C5470008DF
:0801D000C5470008C5470008FF
:1001D80053B94AB9002908BF00281CBF4FF0FF31A6
:1001E8004FF0FF3000F00CB8ADF1080C6DE904CE0B
:1001F80005F098F9DDF804E0DDE9022304B0704762
:10020800704700BF10B5054C237833B9044B13B1C0
:100218000448AFF300800123237010BD0C000020B8
:1002280000000000E457000808B5034B1BB1034960
:100238000348AFF3008008BD000000001000002054
:10024800E457000800B56FF05A0C00236CF307035D
:100258004FF05B0C6CF30F2387B060F3174361F327
:100268001F631069D2F80CC092F800E0516900933E
:100278009369CDF80900CDF811308DF804E0CDF878
:1002880005C0CDF80D100DF1010305A8002213F8E3
:10029800011F83420A44FAD106498DF815200B78CC
:1002A800002BFCD10A2316226946034803F000FEFE
:1002B80007B000BD9C000020705D00200000000019
:1002C80010B594B03822002106A804F078FA00206E
:1002D800CDE90100CDE90300059002F0BFFE9FEDD6
:1002E800147B0622022303240F9206A855228DEDC3
:1002F800067BCDE90D34CDE91023CDE9123301F0A9
:10030800D1FE08B172B6FEE7042103460F220DEBB9
:100318000100CDE90124CDE90333059302F050F93A
:1003280008B172B6FEE702F079FA14B010BD00BF4A
:1003380001000000000001002DE9F043C5B001F004
:100348008DFEDFEDB50A9FEDB50AB548B54CB7EEA1
:10035800001A022100F03EFCB3490E91B3490F91F7
:10036800B3491091B34914914FF07A511791B2499A
:10037800DFEDB20A9FEDB21ADFEDB21A1891B24959
:10038800DFF8E8C2B14AB24BA5481C91B6EE000AA4
:100398000121CDF87CC0CDF88CC0CDF89CC00D9261
:1003A8001193129313931592169219921A931D9200
:1003B8001E9321922293259226938DED090ACDED65
:1003C8000A0A8DED0B1ACDED0C1A8DED1B0A20943F
:1003D800249428942992CDF8ACC02A932C9400F048
:1003E8006BFC8F489DED0F1ADDED101A9DED0D0A7F
:1003F800DDED0E0A032100F05FFC89489DED131A1C
:10040800DDED141A9DED110ADDED120A052100F04B
:1004180053FC83489DED171ADDED181A9DED150A5A
:10042800DDED160A072100F047FC7D489DED1B1AFB
:10043800DDED1C1A9DED190ADDED1A0A092100F0FF
:100448003BFC77489DED1F1ADDED201A9DED1D0A36
:10045800DDED1E0A0B2100F02FFC71489DED231ADB
:10046800DDED241A9DED210ADDED220A0D2100F0B3
:1004780023FC6B489DED271ADDED281A9DED250A12
:10048800DDED260A0F2100F017FC9DED2B1ADDED9E
:100498002C1A9DED290ADDED2A0A6148112100F088
:1004A8000BFCFFF70DFF6B4BD96C41F00401D964CD
:1004B800D96C01F0040105910599D96C41F020012E
:1004C800D964D96C01F0200106910699D96C41F0E4
:1004D8000101D964D96C01F0010107910799D96C20
:1004E80041F00201D964D96C01F002010891089920
:1004F800996C41F004019964996C01F0040103912D
:100508000399986C40F0010098649B6C002203F0FA
:100518000103114604930B20049B02F01DFE0B20DF
:1005280002F04CFE002203210C2002F015FE0C20E4
:1005380002F044FE002203210D20002402F00CFEEC
:100548000D2002F03BFE2022214637A8CDE9304499
:10055800329404F034F9404B1A46C3E90244C3E923
:1005680004449C8383F82440DC6383F840401846A5
:100578000123136282F838304FF0A0474FF440331C
:10058800C2E9007304244FF49C634FF48065C2E908
:100598000B35946100F0D4FE08B172B6FEE73090D6
:1005A80030A92D4801F06EFC08B172B6FEE70623AB
:1005B800CDE93833294B3C90379337A9284B264847
:1005C8003B943A9301F05AF8014608B172B6FEE737
:1005D800CDE93000CDE93200CDE93400CDE92E0077
:1005E8002D9036903422019037A804F0E8F81D4B7E
:1005F8001D4A01991A60602041F29902C3E902027A
:1006080080221846C3E9041159609A6103F0FEF884
:1006180070B372B6FEE700BF00409C460000484237
:10062800B0130020EC51803FCDCCCCBEA913503D77
:10063800CDCC4CBF0AD7A33CEC5140408FC2F5BC8F
:100648001D38573FB98D863DF62840406F12833AD2
:100658000AD7233C00100240645E002002003004E8
:1006680000007F40645C002000340140CDCC4C3D4C
:100678002022CDE92E002DA98C482D9203F094FA62
:10068800024608B172B6FEE76021CDE93010CDE927
:100698003200CDE93400369030A9844803F032F9AD
:1006A80008B172B6FEE72246804830A903F02AF95D
:1006B800024608B172B6FEE74FF400603790442056
:1006C8003A904FF00070CDE93F2037A97748439220
:1006D8004FF40054CDE93852CDE93B24CDE93D2211
:1006E800CDE9412203F0C8FA054608B172B6FEE723
:1006F8006F4C6E4800F0CEFD6E496F4AA5610C2321
:100708002046C4E90012C4E90255C4E90453C4E907
:100718000855A56203F06CFF014608B172B6FEE702
:10072800204603F045FB08B172B6FEE76048002199
:1007380003F062FB08B172B6FEE75D4803F01AFBEE
:1007480008B172B6FEE75D495948402203F0DCFF64
:10075800054608B172B6FEE70122594959485A4E72
:1007680001F0FAFA2946514803F01AFA04214F48D1
:1007780003F016FA29464D4802F0AEFF4B48042113
:1007880002F0AAFF2C46514B1B685D68C5F1400575
:10079800AFB235464E4B1B88BB426CD0474AD25C41
:1007A8004C4B1B7803BB433A152A16D8DFE802F0F6
:1007B800591515152815151515151515150B154267
:1007C8003E151515153B444B1B78002BFBD14349AF
:1007D80037480A23162203F06BFB3D4A138801337E
:1007E80003F03F031380D5E7019201F055FC3C4B21
:1007F800019A1B68C31A642B7ED9364B1C70D2E74A
:1008080095F89838304EA14698463546002403E0BE
:10081800FFF718FD01342C36E0B2804532464146D8
:10082800F6D84C46D9E72F4B1C70D6E72D4A012342
:100838001370D2E72448244E00F08EFB95F89838C0
:10084800A14698463446002503E0FFF7FBFC013536
:100858002C36E8B2804532464146F6D825464C4605
:10086800BBE7214B1B4A1C700123137001F014FCD9
:100878001B4B1860B1E71D4B1A881D4B1B889A4209
:100888002E4680D0194A1B4B1188094815464B2221
:1008980002FB0131052303F00BFB00287FF473AF43
:1008A8002B88013303F03F032B806CE7645C002046
:1008B800705D00200080004068FF1F006C1300205E
:1008C800605C0020645E0020B0130020105D0020F2
:1008D80068130020300000209C000020FC5700080E
:1008E8002C000020AC13002031000020A4000020C0
:1008F800A6000020A8000020264927480B78C254EB
:100908000133DBB2112B0B707FF667AF234B0C70F2
:100918001C700023194610F8012B013189B21344C9
:100928001129DBB2F7D11C4A527C9A427FF455AFA9
:10093800194B1B4819781A46D3F801303093D2F86E
:1009480005303193D2F809303793D2F80D30389307
:100958009DED300ADDED310A9DED371ADDED381ACF
:10096800884600F0D1FA95F8981800232C2207E061
:100978000C4E03FB022C16F80CC0C44504D00133FE
:10098800D8B28142F4D828E702FB0352FFF75AFC99
:1009980023E700BF31000020340000203000002091
:1009A800B01300208413002008B5124B1A68136A8C
:1009B80003F0113323F0885343B9116A44F24443D6
:1009C800194203D1536C23F40043536400210948AE
:1009D80003F0E8F80421074803F0E4F8002105488B
:1009E80002F07CFE0348042102F078FE024B01224B
:1009F8001A7008BD645C00209B000020F8B50368ED
:100A0800B3F1A04F2DED028B02D0BDEC028BF8BDE7
:100A1800554A564B56491C881368086801331360B9
:100A2800156800F0CDF8A4F500631BB207EE903A04
:100A38009FED507ADFED506ADFED504A9FED505A36
:100A4800DFED505A9FED506A5048F8EEE77A67EEAE
:100A5800877A87EEA67ADFED4E6A27EE247AC7EE0C
:100A6800057A77EEA57AB0EE678AC7EE867AD0EE79
:100A7800267AB0EE670AF0EE678A00F061F93C4921
:100A8800444B0868384AC31815F0010F0B6056D05C
:100A9800414B1B78002BB8D013685B07B5D13F4B8F
:100AA8001978002958D03E4A013102EBC10018EEEE
:100AB800903A18EE102AC9B20729C0F80220C0F8E7
:100AC800063046D93749384A0B88128833480133EB
:100AD80003F03F034FF0000493421E46047094D085
:100AE8000B88324D2E491F4603EB8303C3EB0314D7
:100AF8004B22281903F090FEDFF8BCC00346DCF84F
:100B08000010A01C45F6A52E284425F804E0C3F8DB
:100B180002100131431E0022CCF80010473013F8B0
:100B2800011F83420A44FAD1204907EB8703C3EB2C
:100B380003130B441B4983F84A200E8065E71C4BBE
:100B4800DFED1C0A186841F2990100F029FA064AFB
:100B58009EE7124B197058E701F09EFA104A0F4BA6
:100B6800C2F8060019789FE748000020605C002062
:100B7800280000203333D33ADDF3B13B00002C4387
:100B880000001F430000AC4100004843B0130020A0
:100B9800CDCC4C3F85EB5100AC1300204C0000201D
:100BA80050000020A6000020A4000020A80000207B
:100BB800645C00209A99593FA000002072B6FEE7B5
:100BC800034B000D03EB800393ED000A704700BF51
:100BD800D45E00202DE9F0412DED048B334F3B7896
:100BE800F0EE408AB0EE609AF0EE419A04468846EC
:100BF800B3B92F4E9FED2F8A002346F8043B0125F9
:100C080007EE905AB8EEE70A013520EE080A03F01D
:100C180011FEB5F5805FA6EC010AF1D101233B7006
:100C28004346012B38BF012307EE903AF8EE677A66
:100C3800F7EE006A67EE897A04F69C0187EEA87AD7
:100C480004F50A62002504F5804304F6A80086EE40
:100C5800A76AC6EE877ABCEEC77AC1ED008A82ED34
:100C6800006A04F6A40284F89858C2ED009A17EEB8
:100C7800102A03F6AC01A3F8AA28C1ED007A4FF4B4
:100C88008042A3F8A858294603F099FD002320467E
:100C980004F69802057043608360C36103622C30D8
:100CA8009042F7D1BDEC048BBDE8F081D05E002006
:100CB800D45E0020DB0FC93A00B590F8982885B0BB
:100CC800312A8DED020ACDED030A8DED001ACDED26
:100CD800011A31D803462C2002FB00F003EB000C6C
:100CE800195407EE901ADDE90201CCE90301DDE9A8
:100CF8000001CCE9050103F69C0090ED006A9FED28
:100D08000F7AF8EE677A03F50A61D1ED006A67EEAB
:100D1800867A002167EEA67ACCF81C1067EE877AEF
:100D2800CCF82010FCEEE77A01320021CCED0A7AEB
:100D3800CCF8241083F8982805B000BD0000804F37
:100D48006E4B1B78002B00F0CD8000F5804170B50C
:100D5800B1F8A828B1F8AA38D31A0446C3F30B038C
:100D680001F6AC00D0ED007A03F22A2302F22A2021
:100D7800013204EB830304EB8000C2F30B0293ED12
:100D8800007A80ED000AA1F8A82894F89838002B7A
:100D980000F0AB8070EE472A9FED592ADFF864E136
:100DA80062EEA72A23464FF0000C04F50A6604F603
:100DB800A405D3E90921501807EE900AF8EE677ADE
:100DC80093ED026AD3ED015AD3ED054AD3ED086AD3
:100DD80093ED033AFCEEE77A17EE902A120D02F52E
:100DE8008061C1F30B010EEB81010EEB8202D1EDA4
:100DF800003A92ED007AD3ED067AE2EEA35AA7EE16
:100E0800626A25EEA75A67EEC67AA6EE245AE5EE80
:100E1800A47AC3ED015A83ED026A96ED004AD3ED38
:100E2800074AE4EE056AE4EE274AC3ED086AC3ED13
:100E3800074AD3ED047A95ED005A586227EEC64A60
:100E4800B4EEE45A65EEA77AF1EE10FAA5EE834AFD
:100E5800E6EE037A03D5F0EE454A83ED075AB1EE84
:100E6800450AB4EEE40AF1EE10FA01DD83ED070A53
:100E7800B4EEE65AF1EE10FA03D5F0EE456A83EDCA
:100E8800085AB4EEE60AF1EE10FA03DDF0EE406A15
:100E980083ED080A77EEA67A93ED076A1A7874EE5E
:100EA800066A67EE677AE3EEA67A0AB177EEA77A62
:100EB80094F898280CF1010C624532EE272A03F1C8
:100EC8002C033FF776AFB4EEC52AF1EE10FAD8BF7F
:100ED800B0EE425AB4EEC50AF1EE10FAD8BFB0EE41
:100EE800450A70BD9FED060A704704F6A40494ED08
:100EF800005A9FED032AB1EE450AE4E7D05E0020D0
:100F080000000000D45E002000B590F898C885B0B5
:100F18008DED020ACDED030A8DED001ACDED011A13
:100F2800BCF1000F16D086460346002202E00132CB
:100F380062450FD01878884203F12C03F7D1DDE918
:100F480002012C2303FB02EECEE90301DDE90001D7
:100F5800CEE9050105B000BD00B300B500F580423B
:100F680083B000210346A2F8A81800F6A8004FF4A1
:100F78008042019303F023FC019B93F898285AB10F
:100F880018462C21002301FB0202C361036243605F
:100F980083602C309042F8D103B000BD704700BF89
:100FA800F7EE007AB4EEE70AF1EE10FA03460ADC2F
:100FB800FFEE007AF4EEC07AF1EE10FAD8BFF0EE48
:100FC800407A60EEA70A07EE901AB7EE007A70EE44
:100FD800870AFBEEEF7A67EEA07AFCEEE77A17EE67
:100FE800900A091AC3ED0D7A9963704708B501F0A4
:100FF8001DFCFEE7FEE700BFFEE700BFFEE700BFFF
:10100800FEE700BF704700BF704700BF704700BFD2
:1010180001F036B8014801F0C5BF00BF045E0020EA
:10102800014801F0BFBF00BF105D0020014801F07A
:10103800B9BF00BFB05C00200B4B1A6E42F0010232
:1010480082B01A661A6E02F001020092009A9A6D36
:1010580042F080529A659B6D03F080530193019B87
:1010680002B002F05FB800BF0010024000000000AC
:1010780010B504469CB00021542207A8CDE90211FE
:10108800CDE90411069103F09AFB2368B3F1A04F50
:1010980001D01CB010BD4FF400424FF0005307A818
:1010A8000792189301F0D2FB00283BD1244BDA6C4D
:1010B80042F40052DA64DA6C02F400520092009AA8
:1010C800DA6C42F00102DA64DB6C9FED1B7B03F003
:1010D8000103002202A901934FF090408DED027B9D
:1010E800019B049201F03AFD164B17480521002296
:1010F800C3E90001C3E9022280214FF480704FF454
:101108008062C3E9050219614FF400522021184694
:10111800C3E9071201F04EFE0A4B30B963659C62C1
:101128001CB010BDFFF74AFDC0E7FFF747FD054BB0
:10113800F4E700BFAFF300800300000003000000E5
:1011480000100240045E0020080002400000000079
:1011580010B504469CB00021542207A8CDE902111D
:10116800CDE90411069103F02AFB394B22689A4213
:1011780001D01CB010BD202307A8079301F066FB1F
:10118800002850D1334BDA6D42F00102DA65DA6D8E
:1011980002F001020092009ADA6C9FED297B42F07E
:1011A8000102DA64DB6C8DED027B9FED277B03F097
:1011B8000103019302A90C234FF090408DED047BAD
:1011C800019A069301F0CAFC234A244822210023ED
:1011D800C2E900018020C2E9040320211046C2E9C7
:1011E8000233C2E90631136201F0E4FD1A4A08BB72
:1011F8001B4B1C48C4F8802094622322C3E90002D8
:1012080000211020C3E9020180221846C3E9051114
:10121800C3E907111A6101F0CDFD114B30B9E3673D
:101228009C621CB010BDFFF7C9FCABE7FFF7C6FC1A
:101238000B4BF4E7FFF7C2FC074AD9E7AFF300808E
:101248000C00000002000000000000000000000088
:101258000080004000100240105D00201C00024089
:10126800B05C002030000240094B02689A4200D06E
:10127800704703F55C4382B01A6E42F400521A6656
:101288001B6E03F400530193019B02B0704700BF2B
:101298000034014010B50168264A8AB00023914203
:1012A800CDE90433CDE90633089301D00AB010BD67
:1012B80002F55C428020D16C41F00101D164D16C0F
:1012C80001F0010101910199D16C41F00201D16451
:1012D800D16C01F0020102910299D16C41F0040134
:1012E800D164D26C022102F00402CDE90401042485
:1012F800039204A94FF09040039A089401F02EFC41
:1013080002220121CDE90412002304A90A48089405
:10131800CDE9063301F022FCC0200023049002220C
:10132800064804A9CDE90523CDE9073401F016FCE8
:101338000AB010BD0034014000040048000800480D
:1013480010B584B000230393002864D0C36D02460F
:10135800002B00F0E88011688B689C0005D58B682D
:1013680023F0204323F03F038B608B68D8001AD406
:10137800894BDFF838C21B6888689B09ACFB03C33C
:101388009B0920F0104020F03F0001335B0040F043
:10139800805088600393039B2BB1039B013B03930D
:1013A800039B002BF9D18B68DB0037D4D36D43F056
:1013B8001003D365136E0120034313668B6813F083
:1013C800040FD36D23D1DC0621D4D36D23F48173AC
:1013D80043F00203D3658B68DB073FD4B1F1A04F1C
:1013E8001ED06E4B99421BD0DFF8C4C16C4BDCF8A1
:1013F80008C09B6813F0010F6A4B9B682ED1DC076D
:101408002CD41CF0010F29D1DFF8A8C11EE0D36D40
:1014180043F01003D365012004B010BD0020CDE7D0
:101428004FF0A0439B68DC0700F19F80DFF86CE178
:10143800DEF80830DB0711D4B1F1A04F00F0A98025
:10144800594BDFF870C1714508BF9C46DCF808307D
:10145800546823F47C132343CCF80830D468D36B46
:1014680092F824C092F81DE023439468234343EA8A
:101478004E33BCF1010F43EA0C435ED0D2F82CC0C6
:10148800BCF1000F06D0146B0CF4787C4CEA040C09
:1014980043EA0C03D1F80CE0DFF81CC1546B0EEAE8
:1014A8000C0C4CEA0303CB600B6923F04063234325
:1014B8000B618B681B0727D4CB6892F81CE023F4D8
:1014C800804C92F838305B002CF0020C43EA8E33E3
:1014D80043EA0C03D2F810C0CB600B69BCF1000FD3
:1014E80039D043F480330B61D1F8C0306FF30D036A
:1014F80043EA0C03C1F8C03092F84030012B0B6965
:1015080036D023F001030B615369012B0B6B1AD002
:1015180023F00F030B63D36D23F0030343F00103A0
:10152800D36504B010BDCDE90030FFF7A1FDDDE9BA
:101538000032136682F858300DE7946A04F1FF3CD4
:1015480043EA4C439AE723F00F0C136A013B43EA42
:101558000C030B63DFE723F480330B61D1F8C03051
:101568006FF30D03C1F8C030C6E70C4B9B6875E7F5
:1015780023F4FF6CD2E911342CF0040C2343D46C0F
:1015880043EA0C032343146D234343F001030B6127
:10159800BAE7DFF814C059E708000020000100503E
:1015A800000500500006005000030050632D3E0562
:1015B80000040050000700500740F0FF704700BFCC
:1015C80008B5806AFFF7FAFF08BD00BF704700BF83
:1015D800806A08B5C36D43F04003C365036E43F0EA
:1015E80004030366FFF7F2FF08BD00BF836ADA6DE4
:1015F80012F0500F10B5DA6D1DD1196842F400725F
:10160800DA650A6812F0080FCA6827D012F4406F2A
:101618000DD1CA6894040AD4DA6D22F48072DA65AE
:10162800DA6DD10403D4DA6D42F00102DA651846A6
:10163800FFF7E4F910BDD20616D45A6D0E49526B65
:101648008A4215D1DA6D42F04002DA651A6E42F02C
:10165800040218461A66FFF7B9FF10BD9007DBD5DC
:101668001846FFF7CBF9E5E71846FFF7AFFF10BDBF
:10167800BDE81040104700BFD91500082DE9F0411A
:10168800024682B092F858300020012B019000F0F9
:10169800A7811368986840070AD5D36D43F02003E3
:1016A8000120D365002382F8583002B0BDE8F081EC
:1016B80048684FEA901E00F01F0C0EF00C0E0868E8
:1016C80003F13004C0F3846054F80E501F2600FA6A
:1016D8000CF006FA0CFC25EA0C0C40EA0C0044F865
:1016E8000E00986810F0040F986840F0EA8010F037
:1016F800080F086858D18C684FEAD05C4FF0070E85
:10170800C0F30450B4F1004F0CF0040C0EFA00FEC4
:1017180000F0D98104FA00F003F1140454F80C50D5
:1017280025EA0E0E4EEA000044F80C00586920F035
:10173800004058610C69D3F80CE00868042C03F1E8
:10174800600C00F0878000F0F8455CF8240006463D
:10175800C54830400543CEF3C10E48694FEA4E0EE6
:1017680000FA0EF0284340F000404CF82400D1F86D
:1017780010E08C695CF82E0020F0807020434CF853
:101788002E0091F81CE008690C695CF82000AEF1A5
:10179800010EBEFA8EFE4FEA5E1E20F0007040EA8F
:1017A8004E604CF824000868D3F808C01CF0010FFC
:1017B800864616D1CC68AD4DD3F8B06004F0180C4D
:1017C80025FA0CFCC0F312050CEA000C2F4626EA99
:1017D80005054CEA050CC3F8B0C0DFF8B8C264458B
:1017E80071D0A3491EEA010F32D0B3F1A04F00F027
:1017F800C680A0498B4200F055819F49DFF87CC222
:101808008968E64501F0E07000F06A81DFF870C28F
:10181800E64500F01A81DFF878C2E64500F0FE8060
:10182800DFF874C2E64513D1490211D491498B42BD
:101838000ED0DFF868C201F5C061B3F1A04F08BF50
:1018480061468B6823F0E073034343F480038B60A5
:10185800002027E7D3F860E0D3F860E0C0F3120473
:10186800CEF3846E002C40F06E81C0F38464A645EC
:1018780000F0B581D3F864E0D3F864E0CEF3846E69
:10188800A64500F09881DCF808E0DCF808E00CF1E7
:101898000806CEF3846EC0F38464744500F0AF810B
:1018A800DCF80CE0DCF80CE00CF10C07CEF3846CEF
:1018B800C0F3846EE6457FF477AF386820F00040C7
:1018C8003860086870E7002F00F08E8090FAA0FC5E
:1018D800BCF1000F00F00781BCFA8CFC0CF1010C84
:1018E8000CF01F0CBCF1090F40F2FD8090FAA0FC2F
:1018F800BCF1000F00F09B81BCFA8CFC0CF1010CD0
:101908004FEA8C6C0CF0F84C90FAA0FEBEF1000F78
:1019180000F09281BEFA8EFE0EF1010E0EF01F0E3F
:10192800012404FA0EFE4CEA0E0C90FAA0F00028EE
:1019380000F08081B0FA80F0013000F01F000A3812
:1019480000EB4000000540F0007040EA0C0C8C6889
:101958004FEADC5ECCF3045C0EF0040E04FA0CF5DE
:1019680003F11404072654F80E0006FA0CFC20EACA
:101978000C00284344F80E00D1F800E031E7DFF806
:101988001CC13E4CDCF80810A64501F0E07003D0FD
:101998003B4CA6457FF43FAF0F023FF559AF394B9B
:1019A800DFF8FCE01B68DCF808109B09AEFB03E3DA
:1019B8009B0921F0E0710133014303EB43039B00D2
:1019C80041F40001CCF808100193019B002B3FF46F
:1019D8003FAF019B013B0193019B002BF9D137E7F6
:1019E800022002B0BDE8F081800E013000F01F0E29
:1019F8004FF0010C800600F0F8400CFA0EFCBEF126
:101A0800090F40EA0C0C40F29780AEF10A0E0EEB7B
:101A18004E0E4FEA0E5040F0007096E7CC013FF5AD
:101A280017AF19498B423FF413AFDFF870C001F5C7
:101A38000071B3F1A04F08BF61468B6823F0E073D3
:101A4800034343F080738B6002E70E023FF500AF5B
:101A5800B3F1A04F00F0F9800C498B427FF4F8AE47
:101A6800DFF814C09BE700BF00F0FF03FFFF07008B
:101A7800000008800001005000070050000021C34A
:101A88001000C0900800002000050050000600501B
:101A9800000052C700007F40000084CB00030050C4
:101AA800632D3E056A48D1F8081286453FF4D0AE4A
:101AB800684886453FF4CCAE674886453FF4C8AED3
:101AC80001F0E070ACE603F1140454F80C0020EACD
:101AD8000E0044F80C00586940F00040586129E6AF
:101AE8000D02B9D5B4E690FAA0FCBCF1000F00F0E5
:101AF800A980BCFA8CFC0CF1010C4FEA8C6C0CF040
:101B0800F84C90FAA0FEBEF1000F00F09880BEFAE3
:101B18008EFE0EF1010E0EF01F0E012404FA0EFEC9
:101B28004CEA0E0C90FAA0F000287DD0B0FA80FEA6
:101B38000EF1010E0EF01F0E0EEB4E0E4FEA0E5E6A
:101B48004EEA0C0C03E790FAA0F41CB1B4FA84F442
:101B5800A64544D0D3F864E0D3F864E0CEF3846EAD
:101B680090FAA0F50CF108060CF108071DB1B5FABA
:101B780085F4744521D0DCF808E0DCF808E0CEF301
:101B8800846E90FAA0F50CF10C070CF10C081DB14D
:101B9800B5FA85F4744534D0DCF80CE0DCF80CC0F8
:101BA800CCF3846C90FAA0FEBEF1000F3FF4FCADBC
:101BB800BEFA8EFE7EE60CF10807586E20F0004053
:101BC8005866DCF808000868DCF808E0C0F312047E
:101BD8003E46CEF3846E002C3FF45DAED1E7186E1E
:101BE80020F000401866586E586EC0F3846E08687E
:101BF800C0F31204002CB3D1C0F3846440E60CF1A6
:101C08000C08306820F000403060DCF80C00DCF88C
:101C18000C00C0F3846C0868C0F3120E4746BEF18E
:101C2800000F3FF445AEBDE74FF4401E88E74FF084
:101C3800806C69E6094888E64FF0020E73E64FF0BB
:101C4800020E6DE74FF0806C5BE7DFF814C0A6E684
:101C5800000021C31000C090000052C7000050FED1
:101C68000003005070B582B00022036801929A68A0
:101C7800D60734D49968314A114233D19A6822F090
:101C8800004222F03F0242F00102B3F1A04F9A60F5
:101C980052D02B4C2B4A2C49A34218BF0A469368B2
:101CA8001D022AD4054600F0F7F92B681A68D407F4
:101CB800064614D4254C9A68D00704D49A68224062
:101CC80042F001029A6000F0E7F9801B02282B68B5
:101CD80002D91A68D10726D51A68D207EBD5002091
:101CE80002B070BDC36D43F01003C365036E43F0CB
:101CF80001030366012002B070BD154B154A1B682D
:101D08009B09A2FB03239B09013303EB43039B00BD
:101D18000193019B002BC5D0019B013B0193019BC3
:101D2800002BF9D1BEE7EB6D43F01003EB652B6E8A
:101D380043F001032B66DDE7024AB0E73F0000806D
:101D4800000100500003005000070050C0FFFF7F53
:101D580008000020632D3E05F8B50368B3F1A04FD5
:101D68000D46414905D0DFF80CC1404CA34218BFCD
:101D780061468968D3F808C01CF0040F19D190F89F
:101D880058C0BCF1010F14D001F01F0438494FF0BE
:101D9800010C8B42264680F858C00CD040F2212E08
:101DA8002EFA04FE1EEA0C0E05D180F858E06046B3
:101DB800F8BD0220F8BD17460446FFF753FF002878
:101DC8004BD1E36D216823F4706323F0010343F4DE
:101DD8008073E365254B994243D003F580639942AC
:101DE8003FD0E36D23F48013E365E36D606DDFF8A6
:101DF80088C013F480531CBF236E23F006032366A8
:101E0800C0F82CC0DFF874C0C0F830C0DFF870C06C
:101E1800C0F834C04FF01C0CC1F800C04FF0000CE3
:101E280084F858C0D1F804C04CF0100CC1F804C0B4
:101E3800D1F80CC04CF0010C3B462A46C1F80CC046
:101E4800403101F03DF82268936823F0004323F005
:101E58003F0343F004039360F8BD002384F858302F
:101E6800F8BD002EC1D1BCE70003005000010050AE
:101E78000006005000070050F5150008C9150008B5
:101E8800D915000890F85820012A57D010B50268D3
:101E98009CB003464FF0000C0120B2F1A04FCDF8E2
:101EA80060C083F85800CDF864C00BD0DFF844E177
:101EB800724541D0DA6D83F858C042F02002DA65E5
:101EC8001CB010BD4A48806840070AD59268DA6D90
:101ED80042F020020120DA65002283F858201CB065
:101EE80010BD90684007F2D4B2F1A04F086827D01F
:101EF800DFF8FCC0624523D0002860D0DFF804C1B9
:101F08004C68DCF8082093F838E022F46042224359
:101F180042EA4E32CCF80820364AD2F808E0D2F825
:101F28000821D40761D4344A9268D2071FD41EF01E
:101F3800010F1CD1E64636E03048C4E7022070475E
:101F4800B8B92F498A6822F460428A604FF0A042EB
:101F5800926812F0010F264A926808D1D00706D479
:101F680027498A6822F4716222F00F028A600020F1
:101F7800B2E7DFF88CC04C68DCF8082093F838E04A
:101F880022F46042224342EA4E32CCF808204FF055
:101F9800A042926812F0010F154A9268E7D1D4075F
:101FA800E5D4DFF85CE0DEF808C08A682CF47161DB
:101FB800024321F00F010A43CEF80820D7E7114A5F
:101FC800DFF830C091680D4821F460419160DCF879
:101FD80008C08168CC0708D407498968C907C6D4EE
:101FE8001CF0010FC3D11146BBE7034A9268BEE754
:101FF8000001005000040050000600500005005089
:102008000003005000070050114B1B680BB901205A
:10201800704710B50F494FF47A7282B0B2FBF3F3F0
:1020280004460868B0FBF3F001F0D6F8024658B948
:102038000F2C09D8019021464FF0FF3001F08CF8A1
:10204800054B01981C6000E0012002B010BD00BFE4
:1020580000000020080000200400002000B5032034
:1020680083B001F067F80020FFF7CEFF10B1012020
:1020780003B000BD0190FEF7DFFF019803B000BD7B
:10208800034A0449136809680B441360704700BF8A
:10209800D49E002000000020014B1868704700BF44
:1020A800D49E0020002800F0798170B50368D90714
:1020B80082B004462ED5A2498A68C96802F00C028B
:1020C8000C2A00F00D81082A00F00F816368B3F52F
:1020D800803F00F03D81B3F5A02F00F0A38198491F
:1020E8000A6822F480320A600A6822F480220A60B0
:1020F800002B40F03281FFF7CFFF054605E0FFF7E0
:10210800CBFF401B642800F246818D4B1B68990366
:10211800F5D423689A072AD5894A9368D26803F0C8
:102128000C030C2B00F0ED80042B00F0EF80E3682B
:10213800834A002B00F01F81136843F480731360F7
:10214800FFF7AAFF054605E0FFF7A6FF401B022898
:1021580000F221817A4B1B685E05F5D57849226922
:102168004B6823F0FE4343EA02634B6023681A0777
:102178001AD56369724A002B00F09D80D2F894301A
:1021880043F00103C2F89430FFF786FF054605E0E7
:10219800FFF782FF401B022800F2FD80684BD3F84E
:1021A80094309B07F4D523685D0742D5644B9A6D3C
:1021B800D00000F1F5809A6D42F080529A659B6DCF
:1021C80003F080530193019B01265E4B1B68D905E0
:1021D80040F11581A368012B00F0E480052B00F085
:1021E8006D815749D1F8902022F00102C1F8902062
:1021F800D1F8902022F00402C1F89020002B40F082
:10220800D880FFF749FF054607E0FFF745FF41F291
:102218008833401B984200F2BE80494BD3F8903077
:102228009907F2D426B1464A936D23F080539365FB
:1022380023689A0619D5A369414A002B00F0CA8081
:10224800D2F8983043F00103C2F89830FFF724FF22
:10225800054605E0FFF720FF401B022800F29B809F
:10226800374BD3F898309B07F4D5E36903B3344A66
:10227800926802F00C020C2A00F02E81304A022BE0
:10228800136823F08073136000F0D980FFF704FF10
:10229800044604E0FFF700FF001B02287BD8284B08
:1022A8001B689B01F6D42649274BCA681340CB60AC
:1022B800002002B070BDD2F8943023F00103C2F8B8
:1022C8009430FFF7E9FE054604E0FFF7E5FE401B02
:1022D800022860D81A4BD3F894309E07F5D462E7E9
:1022E80001F0030103297FF4F1AE154A1268920345
:1022F8007FF510AF6268002A7FF40CAF012002B0AE
:1023080070BD02F00302022A7FF411AF0C4B1B6868
:102318005B0502D5E368002BF0D0094A20695368B1
:102328000A4923F0FE4343EA006353600868FFF755
:102338006BFE0028E2D123681A077FF535AF18E74E
:102348000010024000700040FCFFEEFE0400002078
:102358007C4A136843F480331360FFF79DFE0546FB
:1023680004E0FFF799FE401B642814D8754B1B68DE
:102378009E03F6D5CDE6136823F480731360FFF748
:102388008BFE05466F4B1B685905D4D5FFF784FEB5
:10239800401B0228F6D9032002B070BD0120704707
:1023A800002612E7674AD2F8903043F00103C2F8DA
:1023B8009030FFF771FE054606E0FFF76DFE41F22B
:1023C8008833401B9842E6D85E4BD3F890309B0781
:1023D800F3D527E7D2F8983023F00103C2F89830F4
:1023E800FFF75AFE054604E0FFF756FE401B022899
:1023F800D1D8544BD3F898309E07F5D435E7524AD4
:10240800136843F480731360FFF746FE05464E4B8E
:102418001B68DA053FF5DEAEFFF73EFE401B0228DB
:10242800F5D9B8E703F18043A3F53C331A6842F4C1
:1024380080221A601A6842F480321A608DE7FFF72A
:102448002BFE054604E0FFF727FE401B0228A2D812
:102458003C4B1B689901F6D43A4D3C4BE968226A1B
:10246800606A0B401343D4E90A1243EA012343EAA2
:10247800C263D4E90C120138490843EA0013013950
:10248800520843EA4153013A43EA4263EB602B683E
:102498002C4C43F080732B60EB6843F08073EB6047
:1024A800FFF7FAFD054605E0FFF7F6FD401B022899
:1024B8003FF671AF23689A01F6D5F9E6214BD3F8B8
:1024C800902042F00402C3F89020D3F8902042F004
:1024D8000102C3F890206CE7012B3FF40FAF194BB2
:1024E800226ADB6803F0030191427FF407AF616A57
:1024F80003F0F0020139B2EB011F7FF4FFAEA16ACD
:1025080003F4FE42B2EB012F7FF4F8AEE16A03F068
:102518007842B2EBC16F7FF4F1AE226B520803F43C
:10252800C001013AB1EB425F7FF4E8AE626B52083A
:1025380003F0C063013AB3EB426F14BF01200020DF
:10254800B7E600BF00100240007000400C809F01F9
:10255800184B9A6802F00C02042A26D09A6802F0F6
:102568000C02082A23D09A6802F00C020C2A01D027
:1025780000207047D968DA68D86801F00301032998
:10258800C2F30312C0F306200CBF0B4B0B4B0132F6
:10259800B3FBF2F303FB00F0064BDB68C3F34163C4
:1025A80001335B00B0FBF3F0704704487047024802
:1025B800704700BF0010024000366E010024F4008E
:1025C80078B17C4A136803F00F038B420BD213686F
:1025D80023F00F030B431360136803F00F038B42C0
:1025E80001D0012070472DE9F0410368DF0782B070
:1025F8000D4604466DD54268032A00F0A8806E4B4C
:10260800022A1B6800F09C805B0540F19C800192C7
:10261800FFF79EFF694B019A984240F2C8806649CD
:102628008B6823F0F00343F080038B604FF0800841
:10263800614EB36823F003031343B360FFF72CFD27
:10264800074606E0FFF728FD41F28833C01B984291
:1026580072D8B368626803F00C03B3EB820FF1D150
:1026680023689F0737D4B8F1800F03D1B36823F0EC
:10267800F003B3604F4E336803F00F03AB4247D803
:1026880023685A0706D54C49E0688A6822F4E06254
:1026980002438A601B0707D5474A2169936823F4D8
:1026A800605343EAC1039360FFF752FF424A444C28
:1026B80092684449C2F303120346A25C424802F0FE
:1026C8001F020068D3400B6002B0BDE8F041FFF77D
:1026D8009BBC9E07CED5580704D537498A6842F473
:1026E800E0628A60190706D5334A936823F47C535D
:1026F80043F4E0639360304AA16893682D4E23F059
:10270800F0030B439360336803F00F03AB42B7D970
:10271800336823F00F032B433360FFF7BDFC0746F4
:10272800336803F00F03AB42AAD0FFF7B5FC41F2C0
:102738008833C01B9842F3D9032002B0BDE8F0816A
:1027480099033FF564AF012002B0BDE8F0811A4952
:1027580008688001F7D5CE68C868C968DFF85CC02A
:1027680006F00306032EC0F303100CBF174E184ED5
:102778000130B6FBF0F0104EC1F3062100FB01F169
:10278800F068C0F3416001304000B1FBF0F16145F1
:102798000DD9B16811F0F00F3FF441AF13F0020307
:1027A80098463FF445AFA368002B3FF438AF4FF08D
:1027B80000083DE7002002400010024000B4C404B5
:1027C80044580008080000200400002000366E016C
:1027D8000024F400054B064A9B680649C3F302230C
:1027E8000868D35C03F01F03D8407047001002400C
:1027F8003C58000808000020054B064A9B6806491B
:10280800C3F3C2230868D35C03F01F03D8407047A2
:10281800001002403C58000808000020024A1368D3
:1028280043F40023136070470010024008B5064BBC
:10283800DA69D30500D408BDFEF7B6F8024B4FF4A9
:1028480080721A6208BD00BF001002402DE9F041F5
:102858000368044613F4002082B045D0AB4B9A6D50
:10286800D50040F12D810027A94D2B6843F48073D2
:102878002B60FFF711FC064605E0FFF70DFC801BF7
:10288800022800F228812B68D805F6D59F4D226DC5
:10289800D5F8903013F4407316D0934214D0D5F87D
:1028A8009010D5F8903043F48033C5F89030D5F8BF
:1028B800903023F48033C5F8903021F44073C90771
:1028C800C5F8903000F137819049D1F8903023F461
:1028D80040731343C1F89030002027B18B4A936DA1
:1028E80023F0805393652368DD0708D58749656819
:1028F800D1F8882022F003022A43C1F888209907DA
:1029080008D58249A568D1F8882022F00C022A430C
:10291800C1F888205A0708D57C49E568D1F888208D
:1029280022F030022A43C1F888201F0708D57749CA
:102938002569D1F8882022F0C0022A43C1F88820EE
:10294800DE0608D571496569D1F8882022F44072FD
:102958002A43C1F888209D0608D56C49A569D1F895
:10296800882022F440622A43C1F88820590608D5F5
:102978006649E569D1F8882022F440522A43C1F813
:1029880088201A0608D56149256AD1F8882022F4DA
:1029980040422A43C1F88820DF0508D55B49656AAB
:1029A800D1F8882022F440322A43C1F888209E03B7
:1029B80008D55649A56AD1F89C2022F003022A437B
:1029C800C1F89C209D0508D55049E56AD1F88820B2
:1029D80022F440222A43C1F8882059050BD54B49D7
:1029E800256BD1F8882022F440122A43B5F5801FC0
:1029F800C1F8882071D01A050BD54449656BD1F808
:102A0800882022F440022A43B5F5800FC1F88820B7
:102A180068D0DF040BD53D49A56BD1F8882022F09A
:102A280040722A43B5F1807FC1F888205FD09E04A8
:102A38000BD53649E56BD1F8882022F040622A434D
:102A4800B5F1006FC1F8882056D05D040BD52F4929
:102A5800256CD1F8882022F040622A43B5F1006F36
:102A6800C1F888204DD019040BD52849656CD1F8D8
:102A7800882022F040522A43B5F1805FC1F88820AF
:102A880048D0DA030BD52149A56CD1F8882022F06B
:102A980040422A43B5F1804FC1F888203FD05B03FC
:102AA8000BD51A4AE16CD2F89C3023F440130B433F
:102AB800B1F5001FC2F89C3036D002B0BDE8F081F5
:102AC8009A6D42F080529A659B6D03F08053019392
:102AD800019B0127C8E60320FFE6CA6842F480127A
:102AE800CA6088E7CA6842F48012CA6091E7CA6877
:102AF80042F48012CA609AE7CA6842F48012CA6037
:102B0800A3E7CA6842F48012CA60ACE7001002402A
:102B180000700040CA6842F48032CA60B1E7CA68EF
:102B280042F48032CA60BAE7D36843F48013D360B2
:102B380002B0BDE8F081FFF7AFFA41F2883680466F
:102B480005E0FFF7A9FAA0EB0800B042C3D8D5F812
:102B580090309B07F5D5226DB6E600BF2DE9F04F02
:102B68008846096885B0002900F09080744D0023DC
:102B7800012202FA03F414EA010E00F08280D8F868
:102B88000470D8F8086007F0030C0CF1FF3A03FA58
:102B980002F24FF00309BAF1010F09FA02F978D9E4
:102BA800BCF1030F01D1012E05D0C468964024EA78
:102BB80009042643C66004680CFA02F224EA0904F0
:102BC800224317F4403F02605BD05E4C226E42F015
:102BD80001022266226E02F001020392039A23F098
:102BE800030202F1804202F5803203F00306946882
:102BF800B6004FF00F0C0CFA06FCB0F1904F24EA27
:102C08000C091CD0504CA04200F084804F4CA042CC
:102C180000F08780DFF838C1604574D0DFF834C130
:102C2800604500F08580DFF830C160450CBF4FF08B
:102C3800050C4FF0060C0CFA06F649EA0609C2F82C
:102C48000890AA68FE0254BF22EA0E024EEA020267
:102C5800AA60EA68BC0254BF22EA0E024EEA0202E7
:102C6800EA606A68BE0354BF22EA0E024EEA020214
:102C78006A602A68FC0354BF22EA0E024EEA020286
:102C88002A60013331FA03F27FF472AF05B0BDE870
:102C9800F08F9640D0F808B00196D8F80C602BEA6F
:102CA800090B06FA02FA4AEA0B0AC0F808A0D0F89B
:102CB80004A0019E2AEA040AC7F300149C4044EACF
:102CC8000A044460C46824EA09042643BCF1020FDC
:102CD800C6607FF470AFD8F810404FEAD30A03F00B
:102CE800070600EB8A0AB600B440DAF820B001946F
:102CF8000F2404FA06F6019C2BEA060B44EA0B049F
:102D0800CAF8204057E74FF0030C0CFA06F649EAD8
:102D1800060994E74FF0010C0CFA06F649EA060991
:102D28008DE74FF0020C0CFA06F649EA060986E729
:102D38004FF0040C0CFA06F649EA06097FE700BFD3
:102D48000004014000100240000400480008004848
:102D5800000C00480010004800140048026811499F
:102D6800DFF844C0D3B2083B00B5A1FB03136245AA
:102D78004FEA1313426C98BFDFF830C0DFF830E039
:102D8800C0F84CE084BF08330CF2194C03F01F0361
:102D980022F00302012101FA03F36244826403650D
:102DA80000BD00BFCDCCCCCC0704024000080240D7
:102DB8008008024000286ED000B50168374B384AB9
:102DC800994283B053D9374BDFF8E8E0CB18A2FB20
:102DD80003231B099B0082680192C0E910E3C368C2
:102DE8001343026913434269134382694FF0020C8B
:102DF8001343C26980F825C0D1F800C01343026AA2
:102E08006FF30E1C134343EA0C030B60FFF7A6FF96
:102E1800019AD0F850C0B2F5804FD0E912E12FD016
:102E2800436803F07F02013B032BCEF80020C1F872
:102E380004C02BD81C4B1D4902F1FF3CD3180122BA
:102E480002FA0CF2DFF870C0C2659B00C0E9153CBD
:102E58004FF0000CC3F800C04A6400230122C3638A
:102E680080F8243080F82520184603B000BD104BA8
:102E7800DFF848E0CB18A2FB03231B099B00AAE755
:102E880000234360CEF80030C1F804C00023C0E935
:102E98001533C365E1E70120704700BF070402400E
:102EA800CDCCCCCCF8FBFDBF3F820010000902401E
:102EB800F8FFFDBF00040240400902400000024044
:102EC80090F824C0BCF1010F0BD04FF0010C80F832
:102ED80024C090F825C0BCF1010F04D0002380F86D
:102EE8002430022070474FF0020C30B580F825C01E
:102EF8004FF0000CC0F83CC0D0F800C0C46CDCF83F
:102F080000E02EF0010ECCF800E0D0E9145E656018
:102F1800BEF1000F02D0D0E916456560446C01256A
:102F280004F01F0405FA04F4056C6C60CCF8043056
:102F38008368102B036B0BBFCCF80820CCF8081063
:102F4800CCF80C10CCF80C20F3B1DCF8003043F0CE
:102F58000E03CCF80030836C1A68D20303D51A68C4
:102F680042F480721A60BEF1000F05D0DEF800301E
:102F780043F48073CEF80030DCF8003043F00103EE
:102F88000020CCF8003030BDDCF8003023F004031A
:102F9800CCF80030DCF8003043F00A03CCF80030FD
:102FA800D9E700BF10B5436C046CD0F800E0216885
:102FB800DEF800C003F01F0304229A400A4212D030
:102FC8001CF0040F0FD0DEF80030990605D4DEF8A7
:102FD800003023F00403CEF80030036B6260EBB1DD
:102FE800BDE81040184702229A400A4217D01CF048
:102FF800020F14D0DEF800309B0608D4DEF800304B
:1030080023F00A03CEF80030012380F82530C36A84
:103018006260002180F82410002BE1D110BD082245
:103028009A400A42FAD01CF0080FF7D0DEF80020C8
:10303800416B22F00E02CEF80020012202FA03F3BF
:103048004FF0000C6360C26380F824C080F825202C
:103058000029E3D0BDE81040084700BF2E4A136896
:1030680060B903F4C063B3F5806FD2F8803023F4FD
:103078008073C2F8803036D000207047B0F5007FEA
:1030880006D023F4C06343F48063136000207047C4
:1030980003F4C063B3F5806FD2F8803043F48073D3
:1030A800C2F88030E8D1136823F4C06343F4007396
:1030B800136053695B050ED5184B19491B683220FC
:1030C80000FB03F3A1FB03139B0C01335169490572
:1030D80001D5013BFAD1104B5B6913F4806F14BF23
:1030E800032000207047136823F4C06343F400737F
:1030F800136053695B05EED5084B09491B683220FC
:1031080000FB03F3A1FB03139B0C01335169490531
:10311800E1D5013BFAD1DEE700700040080000204D
:1031280083DE1B43024A936843F4804393607047ED
:10313800007000400749CA6803024FF6FF0003F415
:10314800E0630240134343F0BF6343F40033CB60B2
:10315800704700BF00ED00E0164BDB68C3F30223A5
:10316800A3F1030CBCF1040F00B519D84FF0FF3ED2
:10317800C3F107030EFA03F30EFA0CFE22EA0E025D
:10318800DB43194001FA0CF1114300284FEA011101
:103198000ADB00F1604000F5614080F8001300BDD3
:1031A80000220F239446ECE7034B00F00F00C318EE
:1031B800197600BD00ED00E0FCEC00E0002807DB1C
:1031C800044A4109012300F01F00834042F82130DE
:1031D800704700BF00E100E00138B0F1807F01D303
:1031E800012070474FF0E0230022586104484FF057
:1031F800F00C072180F823C09A61104619617047C6
:1032080000ED00E0036A026A22F0010230B50262B2
:10321800D0F804C082690C68DFF870E022F48032CC
:1032280022F0730222438C6823F00203704543EABC
:10323800040313D0DFF858E070450FD00EF5406E48
:1032480070450BD00EF5806E704507D00EF5806E78
:10325800704503D00EF5006E704510D123F0080EAE
:10326800036A23F004030362D1E90545CB682CF413
:10327800407C4EEA030344EA050E4EEA0C0C49680A
:10328800C0F804C082614163036230BD002C014074
:1032980000340140036A026A22F4807230B5026287
:1032A800D0F804C0C2690C68DFF874E022F48032F8
:1032B80022F0730222438C6823F40073704543EABA
:1032C800042314D0DFF85CE0704510D00EF5E05E02
:1032D80070450CD0DFF850E0704511D00EF5806EC7
:1032E80070450DD00EF5806E704511D108E023F4BD
:1032F800006E036A23F480630362CB684EEA0323FB
:10330800D1E905452CF4405C44EA050E4CEA0E1C54
:103318004968C0F804C0C261C163036230BD00BF20
:10332800002C01400034014000400140036A026A59
:1033380022F4805230B50262D0F804C0C2690C6829
:10334800DFF874E022F0807222F4E64242EA0422B6
:103358008C6823F40053704543EA043314D0DFF833
:103368005CE0704510D00EF5E05E70450CD0DFF8DB
:1033780050E0704511D00EF5806E70450DD00EF5F9
:10338800806E704511D108E023F4004E036A23F4DF
:1033980080430362CB684EEA0333D1E905452CF438
:1033A800404C44EA050E4CEA8E1C4968C0F804C03B
:1033B800C2610164036230BD002C01400034014049
:1033C80000400140036A026A22F4803210B50262AA
:1033D8008C464168026DDCF80040DFF860E022F4BA
:1033E800803222F070022243DCF8084023F40033D4
:1033F800704543EA044313D00EF5006E70450FD0B4
:103408000EF5406E70450BD00EF5806E704507D0F6
:103418000EF5806E704503D00EF5006E704505D12F
:10342800DCF8144021F4803141EA0421DCF804C0BE
:1034380041600265C0F848C0036210BD002C01401D
:10344800036A026A22F4801210B502628C4641684F
:10345800026DDCF80040DFF864E022F0807222F4AC
:10346800E04242EA0422DCF8084023F400137045E5
:1034780043EA045313D00EF5006E70450FD00EF5D5
:10348800406E70450BD00EF5806E704507D00EF576
:10349800806E704503D00EF5006E704505D1DCF8DE
:1034A800144021F4802141EA8421DCF804C0416001
:1034B8000265C0F84CC0036210BD00BF002C01407B
:1034C80010290AD8DFE801F0430909094B0909095D
:1034D800530909095B090909630090F84330012B76
:1034E80062D1022380F84330036801F01F01186A93
:1034F80001228A4020EA02001862186A364902430B
:103508008B421A624BD0354A934248D002F540624A
:10351800934244D002F58062934247D002F580621C
:10352800934243D002F50062934238D0B3F1804F02
:1035380041D199682A4A0A40062A06D0B2F5803F46
:1035480003D01A6842F001021A600020704790F810
:103558003E30012B28D1022380F83E30C4E790F892
:103568003F30012B20D1022380F83F30BCE790F890
:103578004030012B18D1022380F84030B4E790F88E
:103588004130012B10D1022380F84130ACE790F88C
:103598004230012B08D1022380F84230A4E75A6C4C
:1035A80042F400425A64C4E7012070475A6C42F45E
:1035B80000425A64C5E70B4A9342BAD002F58062CA
:1035C8009342B6D002F580629342B2D002F5A2329D
:1035D8009342B6D1ADE700BF002C01400034014052
:1035E8000700010000040040036800B51A6A01F0F2
:1035F8001F0E4FF0010C0CFA0EFC22EA0C021A62A4
:10360800344AD3F820C0C3F820C0934231D002F521
:10361800006293422DD002F54062934229D002F510
:103628008062934225D002F58062934221D002F550
:10363800006293421DD01A6A02F0113222F08852B9
:1036480052B9D3F820C044F244421CEA020F03D115
:103658001A6822F001021A6010291DD8DFE801F06B
:10366800261C1C1C2B1C1C1C301C1C1C351C1C1C4C
:1036780021001A6A02F0113222F08852002ADAD1A7
:10368800D3F820C044F244421CEA020FD3D15A6C4A
:1036980022F400425A64CEE7012380F84330002028
:1036A80000BD012380F84230002000BD012380F8CE
:1036B8003E30002000BD012380F83F30002000BDCF
:1036C800012380F84030002000BD012380F84130FC
:1036D800002000BD002C0140FFF7F2BEFFF784BFB9
:1036E800454A0368904210B42DD0B0F1804F2AD0DB
:1036F800424A904247D002F58062904243D002F598
:10370800806290423FD03E4A90425ED002F5E0523D
:1037180090426BD03B4A904248D002F5806290427A
:1037280044D0394A904241D002F5006290423DD0DF
:10373800D1F808C00A684969C0F82CC023F0800392
:103748000B43826216E04C68CA68D1F814C023F0B3
:103758007003234323F440731343274A8C68C462DD
:1037680023F080030C688462904243EA0C0301D181
:103778000A6902630268012142F00402026010BC77
:103788004161036070474A68CC68D1F808C023F0EB
:103798007003134323F440734A69234323F08003DF
:1037A80013430A68C0F82CC08262E3E7D1F80CC062
:1037B8004A698C68C46223F4407343EA0C0323F01B
:1037C800800313430A688262D2E74C68CA6823F010
:1037D8007003234323F440738C6813434A69C4621B
:1037E80023F0800313430A688262C1E74A6823F022
:1037F8007003134395E700BF002C0140000400400C
:1038080000340140004001400048014060B310B559
:1038180090F83D30044613B32146022384F83D3026
:1038280051F8040BFFF75CFF012384F8483084F853
:103838003E3084F83F3084F8403084F8413084F8D2
:10384800423084F8433084F8443084F8453084F8B2
:10385800463084F8473084F83D30002010BD80F8A9
:103868003C30FDF701FDD7E701207047036A026A83
:1038780022F0100230B50262D0F804C082690C68E8
:10388800DFF874E022F0807222F4E64242EA042271
:103898008C6823F02003704543EA041314D0DFF842
:1038A8005CE0704510D00EF5E05E70450CD0DFF896
:1038B80050E0704511D00EF5806E70450DD00EF5B4
:1038C800806E704511D108E023F0800E036A23F062
:1038D80040030362CB684EEA0313D1E905452CF493
:1038E800406C44EA050E4CEA8E0C4968C0F804C0E6
:1038F80082618163036230BD002C014000340140C5
:103908000040014090F83C30012B00F0988000B551
:10391800034683B0142A0CD8DFE802F02B0B0B0BFC
:103928003F0B0B0B540B0B0B680B0B0B7D0B0B0B93
:1039380011000120002283F83C2003B000BD186864
:1039480001910093FFF77CFD026D0199009B0969C5
:1039580042F400620265026D22F480620265026D23
:1039680042EA012202650020002283F83C2003B0CD
:1039780000BD186801910093FFF744FC8269019922
:10398800009B096942F008028261826922F0040200
:10399800826182690A438261E5E7186801910093B0
:1039A800FFF764FF82690199009B096942F400628C
:1039B8008261826922F480628261826942EA01221C
:1039C8008261D0E7186801910093FFF763FCC26930
:1039D8000199009B096942F00802C261C26922F09C
:1039E8000402C261C2690A43C261BCE71868019156
:1039F8000093FFF79BFCC2690199009B096942F497
:103A08000062C261C26922F48062C261C26942EA8C
:103A18000122C261A7E7186801910093FFF7D2FC61
:103A2800026D0199009B096942F008020265026D66
:103A380022F004020265026D0A43026593E7022040
:103A4800704700BF002941D190F84430012B49D17B
:103A5800022380F84430036801F00F01186A042239
:103A68008A4020EA02001862186A274902431A624B
:103A78005A6C8B4242F400425A6419D0B3F1804F19
:103A880016D0224A934213D002F5806293420FD097
:103A980002F5806293420BD002F59432934207D02C
:103AA80002F54062934203D002F58052934207D157
:103AB8009968174A0A40062A06D0B2F5803F03D013
:103AC8001A6842F001021A600020704704290BD0DE
:103AD800082911D090F84730012B03D1022380F830
:103AE8004730B8E70120704790F84530012BF9D1ED
:103AF800022380F84530AEE790F84630012BF1D12B
:103B0800022380F84630A6E7002C0140000400405C
:103B180007000100036800B51A6A01F00F0E4FF0A4
:103B2800040C0CFA0EFC22EA0C021A621A6A1A62D7
:103B38001A6A02F0113222F0885232B9D3F820C042
:103B480044F244421CEA020F21D01A6A02F01132F0
:103B580022F0885232B9D3F820C044F244421CEA19
:103B6800020F0FD0012319B980F84430002000BD9E
:103B7800042911D008290CBF80F8463080F8473056
:103B8800002000BD1A6822F001021A60EAE75A6CA8
:103B980022F400425A64D8E780F84530002000BD7E
:103BA800FFF750BFFFF7B6BF90F83C30012B5AD053
:103BB800D0F800C0022310B580F83D30DCF804309E
:103BC800DCF80820D1F800E01446284A944520D0B3
:103BD800274A94452AD002F5E052944519D023F09B
:103BE800007323F0700343EA0E03BCF1804FCCF856
:103BF800043028D18B6824F0800E4EEA0303CCF8F9
:103C080008300023012280F83D2080F83C30184617
:103C180010BD4A6823F47003134323F0007323F0A4
:103C280070034EEA0303CCF80430E3E723F4700290
:103C38004B681A4322F0007222F070024EEA020228
:103C4800CCF80420D6E70B4B9C45D3D003F5806312
:103C58009C45CFD003F580639C45CBD003F59A33C0
:103C68009C45CED1C6E70220704700BF002C01401A
:103C7800003401400004004090F83C30012B4AD049
:103C8800024610B4CB68DFF894C0D1E9010423F4EC
:103C98004073234323F480630C68034323F40063D5
:103CA8000869234323F480534C69034323F40053E6
:103CB800086B234323F480430343D1E9064023F4EC
:103CC800702343EA044323F080530343106860459C
:103CD80007D00CF5006C604503D00CF5E05C60453E
:103CE80012D18C6AD1F824C023F4700343EA045338
:103CF8000C6AC96A23F08073234323F0007343EAF4
:103D08000C0323F000530B430021436482F83C105A
:103D1800084610BC70470220704700BF002C0140C5
:103D2800436EE3B10368114A99689B6800B5C1F313
:103D380042614FEA537CDFF838E012F80C30525CED
:103D48001EF80CC01EF80110DB00D200B3FBFCF318
:103D5800B2FBF1F2A0F86A30A0F8682000BD012398
:103D6800A0F86A30A0F86830704700BF1C580008F7
:103D78001458000890F88430012B16D002682423C8
:103D8800C0F888301168D2F800C000232CF0010C6C
:103D980021F00051C2F800C0436611602022C0F82B
:103DA800882080F88430184670470220704700BF8A
:103DB80090F88420012A1CD030B52422046883B0EE
:103DC800C0F8882025682268019022F0010222604C
:103DD800A26822F060421143A160FFF7A1FF019B96
:103DE800256000202022C3F8882083F8840003B0CF
:103DF80030BD0220704700BF90F88420012A1CD0F3
:103E080030B52422046883B0C0F888202568226869
:103E1800019022F001022260A26822F06062114340
:103E2800A160FFF77DFF019B256000202022C3F8D9
:103E3800882083F8840003B030BD0220704700BF9B
:103E480000B50268844652E8003F23F4907342E8C4
:103E580000310029F7D1154802F1080353E8003F63
:103E6800034002F1080E4EE800310029F4D1DCF8D5
:103E78006C30012B08D000232022CCF88C20CCF801
:103E88007430CCF86C3000BD52E8003F23F01003CA
:103E980042E800310029EED052E8003F23F0100339
:103EA80042E800310029EFD1E5E700BFFEFFFFEF50
:103EB8002DE9F041D0F88840202C82B05ED10D4623
:103EC80001B11AB9012002B0BDE8F08121211F46D5
:103ED80000230446C0F89030C0F888100192FEF71D
:103EE800DBF8019AA4F85420A4F85620A268B2F589
:103EF800805F064646D04FF00008B4F85630206878
:103F0800D3B1C3691B0604D47A1C22D1C269130633
:103F1800FCD55DB315F8013B8362D4F8882002F024
:103F28002102212ACED1B4F85620013AA4F856200D
:103F3800B4F85630002BE4D1C3695A0604D47B1C6C
:103F480026D1C3695D06FCD52023C4F8883000203B
:103F5800B9E7FEF7A1F8801B874225D327B320686D
:103F68000368C3691906F4D5002DD3D1424632F847
:103F7800023BC3F3080390468362CEE7022002B0F7
:103F8800BDE8F0812269002AB5D1A8461546B4E7F4
:103F9800FEF782F8831B9F4206D32FB123681A6865
:103FA800DB695906F4D5CFE720230320C4F888300D
:103FB80002B0BDE8F08100BF704700BF704700BF86
:103FC800704700BF806A00B50368D0F88810D0F841
:103FD8008CE09A68120683B001D5212914D09B6819
:103FE8005B0602D5BEF1220F09D0D0F8903043F01D
:103FF8001003C0F89030FFF7E3FF03B000BD019055
:10400800FFF71EFF0198F0E7194651E8002F22F04C
:10401800C00241E8002C1946BCF1000FF5D103F1AC
:10402800080252E8002F22F4000203F1080C4CE8C1
:1040380000210029F3D12022C0F88820CFE700BF53
:10404800704700BF08B5836A01221A67DA6E012A31
:1040580013D1B3F85C1002684808A3F85E005268F0
:1040680092B2914228BFA3F85E20B3F85E20891A65
:10407800184689B2FFF7E4FF08BD1846FFF79EFF10
:1040880008BD00BFD0F800C0806ADCF8002012F03C
:10409800200208B528D10368A0F85E2053E8002F55
:1040A80022F4807243E800210029F7D103F10802C5
:1040B80052E8002F22F0010203F1080E4EE8002119
:1040C8000029F3D103F1080252E8002F22F0400240
:1040D80003F1080E4EE800210029F3D12022C0F890
:1040E8008C20C26E012A16D000230367C26E012AF3
:1040F80022D1A0F85E30DCF80430B0F85C109BB236
:10410800994288BFA0F85E30B0F85E30C91A89B20B
:10411800FFF796FF08BD53E8002F22F0100243E88E
:1041280000210029E0D053E8002F22F0100243E8D4
:1041380000210029EFD1D7E7FFF73EFF08BD00BFF8
:1041480038B504460368826800696169D3F800C01D
:1041580002430A43E0698E4902430CEA01010A431B
:104168001A605A68E168D4F824C022F440520A431D
:1041780088495A608B429968A26921F06E4121F4FE
:10418800306100F0A980256A2A430A439A60DA6AF6
:1041980022F00F0242EA0C02DA627F4A93423CD0D4
:1041A8007E4A934211D07E4A934200F089807D4A2C
:1041B800934244D07C4A934253D0012000234FF0CD
:1041C8000112C4E91D33A26638BD784BD3F8883094
:1041D80003F00C03082B55D00C2B4DD0042B39D0F1
:1041E800B0F5004F00F0CB80FEF7F4FA98B1D4F8A0
:1041F80024C063686E4A32F91C10B0FBF1F04FF628
:10420800EF7200EB5300B0FBF3F0A0F11003934200
:10421800D3D82368D8600020D0E7644BD3F888301F
:1042280003F00303022B2DD0032B25D0012B11D033
:10423800B0F5004F00F09680FEF7DEFAD6E75B4B4C
:10424800D3F8883003F0C003802B1BD0C02B13D0C9
:10425800402BC5D1B0F5004F00F09480FEF778F9F7
:10426800C4E7524BD3F8883003F44073B3F5007FAA
:1042780008D0B3F5407F70D1B0F5004F06D04FF4A9
:104288000040B6E7B0F5004F4A48B2D16168484BE4
:1042980033F91C20B0FBF2F24B0803EB42034FF654
:1042A800EF72B3FBF1F3A3F11001914285D823F02B
:1042B8000F02C3F34203216813439BB2CB60AAE702
:1042C8003A4BD3F8883003F03003202BDAD0302B68
:1042D800D2D0102BBED083E711439960DA6A3349F4
:1042E80022F00F0242EA0C02DA62D1F8883003F4B5
:1042F8004063B3F5006F3DD0B3F5406F45D0B3F5DB
:10430800806F39D1FEF724F9002884D0D4F824C06E
:104318006568274B05EB450133F81C20B0FBF2F329
:1043280099423FF64AAFB3EB053F3FF646AF00234D
:104338001946FBF74DFF4FF4807C034600216808BF
:104348002A46E3FB0C010023FBF742FF1A4BA0F5BA
:1043580040729A423FF631AF5BE7B3F5807F3FF496
:1043680079AF3DE7FEF748FA00283FF454AFD4F898
:1043780024C08BE70F48CBE7FEF72CFAC4E7FEF71B
:1043880029FAF1E7FEF7E4F8EEE74FF40040BFE75B
:10439800F369FFCF0080004000380140004400402E
:1043A80000480040004C004000500040001002400F
:1043B800245800080024F400FFFC0F00836A1A0741
:1043C80010B406D50168846B4A6822F4004222437F
:1043D8004A60DC0706D50168C46A4A6822F40032DC
:1043E80022434A60990706D50168046B4A6822F49B
:1043F800803222434A605A0706D50168446B4A68EE
:1044080022F4802222434A60DC0606D50168C46B88
:104418008A6822F4805222438A60990606D5016888
:10442800046C8A6822F4005222438A605A060BD52B
:104438000168D0F844C04A6822F4801242EA0C02AB
:10444800BCF5801F4A600AD01B0606D50268C16CFD
:10445800536823F400230B43536010BC70474A6829
:10446800846C22F4C00222434A60EDE7D0F800C011
:10447800F0B5DCF81CE031EA0E0E0CBF4FF0010E6F
:104488004FF0000E964583B00BD1089C01340BD138
:10449800DCF81C3031EA03030CBF012300239342EC
:1044A800F6D0002003B0F0BD1D4617460C46064660
:1044B800FDF7F2FD089B401B984225D823B33368CB
:1044C8001A6850070AD5802C08D0402C06D0DA6923
:1044D80012F008021AD1D969090508D4DB6934EA4F
:1044E80003030CBF012300239F42E1D0D9E74FF417
:1044F8000061196230460192FFF7A2FC019A86F822
:1045080084202023C6F890300320CBE708221A62C3
:104518003046FFF795FC002308220120C6F89020BA
:1045280086F88430BEE700BF10B5002284B0044688
:10453800C0F89020FDF7B0FD216803460868000721
:1045480010D40A6852071DD400232022C4F88820FA
:104558001846C4F88C20E3662367002384F8843067
:1045680004B010BD6FF07E41009100224FF400119D
:1045780020460393FFF77AFF039B60BB21680A6814
:104588005207E1D56FF07E4200924FF4800100227D
:104598002046FFF76BFF0028D6D0236853E8002F8A
:1045A80022F4907243E800210029F7D103F10802B0
:1045B80052E8002F22F0010203F1080040E8002130
:1045C8000029F3D12023C4F88C300320002384F879
:1045D800843004B010BD236853E8002F22F0800215
:1045E80043E800210029F7D12023C4F88830ECE7FC
:1045F80080B3D0F8883010B5044633B32268A16A76
:104608002423C4F88830136823F001031360C1B968
:104618002046FFF795FD012811D023685A6822F437
:1046280090425A609A6822F02A029A601A6842F008
:10463800010220461A60BDE81040FFF775BF01204F
:1046480010BD2046FFF7BAFEE2E780F88430FCF799
:104658007FFDD3E7012070474FF0000C222310B5EF
:10466800C0F890C004468165A0F85C20C0F88C3082
:10467800D0F88000A0B113460A462168C0F838C0B7
:10468800DFF878C0C0F82CC0DFF874C0C0F830C0BC
:10469800DFF870C0C0F834C02431FEF711FC28BB25
:1046A80023694BB1236853E8002F42F4807243E832
:1046B80000210029F7D100E0236803F1080252E83D
:1046C800002F42F0010203F1080040E80021002910
:1046D800F3D103F1080252E8002F42F0400203F13F
:1046E800080141E800200028F3D110BD1022202342
:1046F800C4F890200120C4F88C3010BD8D4000080B
:104708004D400008CD3F0008D0F88C30202B03D155
:1047180001B11AB90120704702207047D0F800C0D3
:104728000C4B00B59C454FF0000EC0F86CE00CD067
:10473800DCF804301B0208D55CE8003F43F08063D6
:104748004CE8003EBEF1000FF6D15DF804EBFFF730
:1047580083BF00BF00800040034AD2F8883043F48A
:104768007003C2F88830704700ED00E00D488546B8
:10477800FFF7F2FF0C480D490D4A002302E0D45818
:10478800C4500433C4188C42F9D30A4A0A4C002393
:1047980001E013600432A242FBD300F019F8FBF7E2
:1047A800CBFDFEE700000220000000200C000020E6
:1047B800345C00080C000020D89E0020FEE702446C
:1047C8000346934200D1704703F8011BF9E7000044
:1047D80070B50D4B0D4C00261D1BB6EBA50F09D16E
:1047E80000F0FCFF0A4C0B4B00261D1BB6EBA50F77
:1047F80005D170BD54F8043B98470136EDE754F8ED
:10480800043B98470136F1E72C5C00082C5C000853
:104818002C5C0008305C00080A44914200F1FF3328
:1048280000D1704710B511F8014B03F8014F9142C0
:10483800F9D110BD10EE103A194A23F00043934203
:104848001AD9B3F1FF4F02D330EE400A704700B5D2
:1048580083B0684600F0F0F800F0030001289DEDF1
:10486800000ADDED010A12D002280AD090B9012011
:1048780000F09AF803B000BDDFED0A0A002000F04E
:1048880093B8012000F090F8B1EE400AF2E700F08A
:104898000BF8EFE700F008F8B1EE400AEAE700BFCE
:1048A800D80F493F0000000010EE103A23F00043F3
:1048B800B3F1485F2ED2FDEEC07A17EE903A33B3CB
:1048C80060EE007A9FED307A9FED305ADFED305A76
:1048D8009FED306ADFED306AA7EE875A9FED2F7A99
:1048E800E7EE855AA7EEA56AA7EE867AE7EE876A0D
:1048F80066EEA76A60EEC00AB6EE007AE7EEA60A90
:10490800B7EE000AD7EE870A30EE600A7047B7EEB6
:10491800000A704760EE007A9FED1B7A9FED1B5AE4
:10492800DFED1B5A9FED1B6ADFED1B6A1C4AA7EEE1
:10493800875A93429FED197AE5EE275AA5EEA76AA2
:10494800A6EE277AE7EE276A66EEA76AD2D9154A55
:10495800934214D803F17F4307EE103AB7EE006A8A
:1049680036EE476A60EEC00AF6EE005A97EEA57A70
:10497800E7EEA60A37EE607A36EE470A7047B6EEDB
:10498800076AB5EE027AEDE74ED747ADF6740F31F8
:104998007CF293B4010DD037ABAA2A3D610BB6BAAD
:1049A8009999993E0000483F10EE103A23F00043D1
:1049B800B3F1485F04D2FDEEC07A17EE903A5BB3CC
:1049C80060EE007A9FED157ADFED155A9FED156AB6
:1049D800DFED156AE7EE875A9FED147AA5EEA76A10
:1049E80020EE275AE6EE276AA6EEA77A30B9DFED61
:1049F800106AE7EE876AA6EE850A704727EE457AC1
:104A0800F6EE006AA0EEA67ADFED0A6AD7EE270A6C
:104A1800E5EE260A30EE600A704700BFD3C92E2F94
:104A2800342FD7B21BEF3836010D50B98988083CAE
:104A3800ABAA2ABEABAA2A3E10B510EE104A8A4A83
:104A480024F00043934288B070D9884A934222D810
:104A580024F00043002C9FED867A864A23F00F034A
:104A680040F3E980934270EE477A09BF9FED827A5E
:104A7800DFED826ADFED826A77EEC77A37EEE67A93
:104A880077EEC77A80ED007A77EEE67AC0ED017AA4
:104A9800012008B010BD7B4A9342014654D9B3F1B6
:104AA800FF4F4AD2DA15863AA3EBC25307EE903A83
:104AB800BDEEE77ADFED746AB8EEC77A77EEC77AAB
:104AC8008DED057A67EEA67ABDEEE77AB8EEC77A7D
:104AD80077EEC77A8DED067A67EEA67AF5EE407A1C
:104AE800F1EE10FACDED077A40F09E80B5EE407AEF
:104AF800F1EE10FA40F09A800123644801900220F8
:104B0800009005A8029100F0D3F8002C0299C0DAB1
:104B180091ED007AD1ED017AB1EE477AF1EE677A3C
:104B280081ED007AC1ED017A4042B2E7002380EDC1
:104B3800000A4360002008B010BD70EE407AC0ED56
:104B4800017AC0ED007AF5E7CDE9023000F0A8F867
:104B58009FED4F7A9FED466AF6EE007AE0EE077A0F
:104B6800DDE90231FDEEE77A9FED447AF8EEE76A77
:104B780017EE900AA6EEC60A1F2866EE877A30EE70
:104B8800677A20DCDFF814C100F1FF3E24F0004210
:104B98005CF82EC022F0FF02624514D030EE470ABE
:104BA800002C30EE670A81ED007A81ED010ABFF62C
:104BB80070AFB1EE477AB1EE400A81ED007A81ED2F
:104BC800010A404265E717EE102AC2F3C752C2EB4A
:104BD800D352082AE2DD9FED287ADFED295AB0EE9C
:104BE800406AA6EEC76A70EE467AE6EEC77AD6EE57
:104BF800A57A36EE677A17EE102AC2F3C752C2EBCF
:104C0800E353192B14DD9FED237ADFED235AB0EE21
:104C1800460AA6EEC70A76EE407AE6EEC77AD6EEE0
:104C2800A57A30EE677AB9E7032366E7022364E7DB
:104C3800B0EE460AB2E7934270EE077A09BF9FEDDD
:104C48000E7ADFED0E6ADFED0E6A77EE877A37EEC1
:104C5800A67A77EEC77A80ED007A77EEA67AC0ED6D
:104C6800017A4FF0FF3014E7D80F493FE3CB1640E5
:104C7800800FC93FD00FC93F00443537434435370B
:104C880008A3852E800F494300008043D4580008AC
:104C980084F9223F00A3852E32318D245458000810
:104CA80010EE103A23F0004300EE103A704700BFB0
:104CB8002DE9F04F2DED068BDBB01C46964605938B
:104CC8006A9AC74B079153F8222002921EF1040FEB
:104CD800814604F1FF38C0F25682BEF1030348BF93
:104CE8000EF10403DB1003930133DB000993099BE6
:104CF800AEEB0302029B13EB080000F1F782039B63
:104D08009FEDBB7A6B9C0130A3EB08031EA91844E6
:104D18000491002BA4BF54F8235007EE905A03F1D6
:104D28000103ACBFF8EEE77AF0EE477A8342E1EC94
:104D3800017AEED1059B0299B8F1000F03EB010C43
:104D480046AE444609EB8301C0F2D3820498374645
:104D580000EB8305DFEDA67A28464B46F3EC016AA3
:104D680030ED017A8B42E6EE877AF7D1013464455B
:104D7800E7EC017A05F10405ECD1029CDFED999A84
:104D88009FED999ACDF820E009AB0DF1280A03EBC5
:104D98008403F4EE008A0AEB8407069393460D46D3
:104DA8000DEB840393ED460A002C4FEA840301932C
:104DB80015DDF318514660EE297AB0EE407AFDEE23
:104DC800E77A73ED016AF8EEE77AB342A7EEC97A9B
:104DD80037EEA60ABDEEC77AA1EC017AEBD15846A8
:104DE80000F0E2FAB0EE408A20EE280A00F04EFB0E
:104DF800F2EE007AA0EE678ABBF1000FBDEEC8AAFA
:104E0800F8EECA7A38EE678A6ADD601ECBF10803CD
:104E18005AF820E04EFA03FC0CFA03F31AEE102AB3
:104E2800AEEB0303CBF1070143FA01F16244002919
:104E38000AEE102A4AF8203000F3DC80B5EE408AEA
:104E4800F1EE10FA5DD1029B9C420BDD019B002024
:104E5800534453F8042DBB4240EA0200F9D100281C
:104E680040F02F81029B013B04F1010C5AF82330DA
:104E7800002B40F02481069B012153F8042D0131B9
:104E8800002AFAD02144039B019A03EB040E059BE8
:104E9800E0186B9B03EB8E0E049B03EB8000331D25
:104EA8001A44DEED017AF8EEE77AB8F1000F0EF158
:104EB800040EE0EC017ADFED4E7A09DB04464B463E
:104EC800F3EC016A34ED017AAB42E6EE877AF7D16A
:104ED8000CF1010C8C45E2EC017AE2DD0C465FE74F
:104EE80000F0D480F6EE007AB4EEE78AF1EE10FA1C
:104EF80080F22E81B5EE408AF1EE10FA4FF00001F3
:104F0800A1D0DDF820E05A468B46099B0192A3EB1D
:104F18000E00B0EE480A00F047FA9FED337A019A86
:104F2800B4EEC70AF1EE10FAC0F2A281DFED2D7AD5
:104F380060EE277A671CFDEEE77A0832F8EEE77A2A
:104F4800A7EEC70AFDEEE77ABDEEC00A10EE103AEA
:104F58004AF8243017EE903A4AF827301046B7EE50
:104F6800000A00F021FA002FB0EE407AC0F2D0819A
:104F78000AF10403311DDFED1B6A03EB870301EB24
:104F88008701BA0073ED017AF8EEE77A534567EEC8
:104F9800877A27EE267A61ED017AF3D1029C0DF12A
:104FA800C80C164401346546002096460F4ADFEDCA
:104FB800107A31460023984203F1010307DBF2EC33
:104FC800016AB1EC017A9C42E6EE877AF3D1B842E5
:104FD800E5EC017AA6F1040600F086800130E5E7E9
:104FE800185C00080000803B00008043EC5B000870
:104FF800000000000132002C0AEE102A40F36881FC
:1050080053464FF0000C53F8040B40BB0CF1010C55
:105018006445F8DCBBF1000F0EDDBBF1010F00F0B9
:105028008E80BBF1020F07D104F1FF3C5AF82C30F7
:1050380003F03F034AF82C3002297FF4FFAEF7EE65
:10504800007A37EEC88A00283FF4F8AEB7EE000AB7
:10505800584600F0A9F9022138EE408AEEE6C0F57C
:10506800807043F8040C0CF1010084425EDD53F8B3
:1050780004CB624601E053F8042B0130C2F1FF0271
:10508800844243F8042CF6DC0120C3E7631E5AF877
:105098002310C91100297FF7D1AE1AEE103A002C5F
:1050A80003F101030AEE103AAADC022900F061813B
:1050B800B5EE408AF1EE10FA3FF4D4AE21E761462E
:1050C800E1E6671EABF108025AF82730019D8B46CE
:1050D800002B40F02B8109AB1D4455F8043D013FDE
:1050E800083A002BF9D039E76A9B022B724673DC29
:1050F800002B4DDC11D10CF104035FED437A7344AE
:1051080033ED017A9C4577EE877AF9D1BBF1000F30
:1051180040F0CD80079BC3ED007A1AEE103A03F0F9
:1051280007005BB0BDEC068BBDE8F08FBBF1000F4C
:105138004ADDBBF1010F4FF001007FF472AF04F1BB
:10514800FF3C5AF82C3003F07F034AF82C3073E701
:105158001AEE103A002C03F101030AEE103AC8BF08
:1051680002213FF74DAFF7EE007A37EEC88AB5EE69
:10517800408AF1EE10FA3FF475AE5A46DDF820E0A9
:105188004FF0020BC1E60823099300230393AEE511
:105198000CF10403DDED327A1FED6B7A1A4452EDFF
:1051A800016A1346043A944537EE267AF7D1BBF1E3
:1051B800000F65D0079AF1EE476A77EEC77AC2ED1D
:1051C800006A002F62D16CE002297FF437AEF7EE57
:1051D800007A37EEC88A39E76A9B032B9DD10028ED
:1051E80000F0C4800CEB0E0494ED007A23462146AF
:1051F80051ED017AF0EE476A37EE277A084677EEE6
:10520800C77A043977EEA67A8C45C0ED007A00EDAE
:10521800017AEDD1012F00F0A98094ED007A73EDA9
:10522800017AF0EE476A37EE277A834277EEC77A3B
:1052380083ED007A77EEA67AC3ED017AEFD15FEDC0
:10524800947A1A44043332ED017A9A4277EE877AD7
:10525800F9D1DDED326A9DED337ABBF1000F29D12A
:10526800079BC3ED006A83ED017AC3ED027A54E728
:10527800BDEEC00A274610EE103A4AF824306DE613
:10528800079A77EEC77A82ED007A67B10122B3EC0C
:10529800017A0132BA4277EE877AF8DDBBF1000F66
:1052A80001D0F1EE677A079BC3ED017A35E7F1EE9D
:1052B800677A2FE7079BF1EE666AB1EE477AF1EE5F
:1052C800677AC3ED006A83ED017AC3ED027A24E7B9
:1052D800BBF1010F3ED0BBF1020F2FD002297FF4A2
:1052E800E7AEF7EE007A37EEC88AE1E61EAB049324
:1052F80020E500253346601C60451D6004F102046A
:105308003FF43BADA4455D6003F10803F3D134E5F8
:105318006A9B022B26DC002B36DC7FF4FEAEDFED29
:10532800217ABBF1000F3FF4F5AEC0E71046B7EEA7
:10533800000A00F039F8B0EE407A19E603F03F03AE
:1053480002294AF820307FF479ADF7EE007A37EE7B
:10535800C88A73E503F07F0302294AF820307FF4F6
:105368006DADF2E76A9B032B7FF4D7AEDFED0D7AC4
:105378006FE7F7EE007A37EEC88AB5EE408AF1EEAD
:1053880010FA3FF46FADBCE5DDED327ABBF1000FEA
:1053980004D0079A4FF00043136082E7079A00236E
:1053A800136080E70000000010EE103A33F000416F
:1053B8001A4624D0B1F1FF4F22D213F0FF4F22D169
:1053C800DFED2B7A2B4A60EE277A904217EE903A5F
:1053D80033DB4CF2503CC3F3C75160451A46A1F188
:1053E800190116DDDFED247ADFED246A002BB0EE1B
:1053F800677AB8BFF0EE667A27EE870A704770477B
:1054080030EE000A70474CF2503C60454FEAD151EB
:10541800E8DC0844FE28E5DC002815DC10F1160F4E
:1054280019DB193022F0FF4242EAC05207EE902AF7
:105438009FED130A27EE800A7047DFED127A07EE18
:10544800103A27EE270A704722F0FF4242EAC0537B
:1054580000EE103A7047DFED0B7ADFED0B6A002B98
:10546800B0EE677AB8BFF0EE667A27EE870A704723
:105478000000004CB03CFFFFCAF24971CAF249F182
:10548800000000336042A20D6042A28D10EE101A97
:10549800C1F3C7527F3A162A21F000431BDC002AC9
:1054A8001FDB1C481041014224D0DFED1B7A70EE4F
:1054B800277AF5EEC07AF1EE10FA1BDD4FF40003FF
:1054C80013410B4413EA210338BF0B4623EA0003B8
:1054D80000EE103A7047B3F1FF4F0BD330EE000ADD
:1054E8007047DFED0D7A70EE277AF5EEC07AF1EEAF
:1054F80010FA00DC7047002902DB9FED080AF9E783
:10550800DFED077A002BBFEE000A08BFB0EE670A8E
:10551800704700BFFFFF7F00CAF24971000000001A
:10552800000000802DE9F047089F154604468E4686
:105538001E46002B40F0D2808A424DD9B2FA82FC36
:10554800BCF1000F02FA0CF3CCF1200E18BF1D4677
:1055580020FA0EFE01FA0CF34EEA030E00FA0CF3E1
:105568000CBF8E461C464FEA1548A8B2BEFBF8F1A0
:10557800220C08FB11EE01FB00F342EA0E429342B3
:1055880006D9AA1801F1FF3E01D293421ED87146EE
:10559800D21AA4B2B2FBF8F308FB1322584344EA28
:1055A8000244A04206D92C1903F1FF3201D2A042CD
:1055B8000FD81346241A43EA014027B124FA0CF401
:1055C80000233C607B603146BDE8F08702392A44FD
:1055D800DEE7023B2C44EDE7002A71D0B2FA82F3F1
:1055E800DBB31E46C6F1200302FA06F521FA03F2E0
:1055F800B14020FA03F30B434FEA154E00FA06F4C4
:105608001FFA85FCB2FBFEF00EFB10211A0C00FB02
:105618000CF842EA0142904506D9AA1800F1FF3178
:1056280001D290454ED80846A2EB08029BB2B2FBC5
:10563800FEF10EFB112201FB0CFC43EA02439C45E0
:1056480006D9EB1801F1FF3201D29C453DD811462D
:10565800A3EB0C0341EA004101E08B1A01214FEA58
:10566800154E1FFA85FCB3FBFEF0220C0EFB10331F
:1056780000FB0CF842EA0342904506D9AA1800F14B
:10568800FF3301D2904523D81846A2EB0802A4B2F2
:10569800B2FBFEF30EFB132203FB0CFC44EA0244AC
:1056A800A44506D92C1903F1FF3201D2A44512D81A
:1056B8001346A4EB0C0443EA0040B4460E467CE7CC
:1056C8001F268FE702382A44AEE702392B44BFE78A
:1056D80002382A44D9E7023B2C44EAE78B4205D931
:1056E8000FB1C7E90001002630466CE7B3FA83FC26
:1056F800BCF1000F0FD18B4201D3824209D8841A22
:1057080061EB030301209E460FB1C7E9004E002656
:1057180059E76046F8E7CCF1200E03FA0CF322FAB9
:105728000EF521FA0EF41D4301FA0CF320FA0EF1DE
:1057380019434FEA154900FA0CF61FFA85F8B4FB2D
:10574800F9F009FB104A0C0C00FB08F344EA0A4480
:10575800A34202FA0CF206D92C1900F1FF3A01D241
:10576800A34235D85046E41A89B2B4FBF9F309FBD1
:10577800134403FB08F841EA0441884506D969182F
:1057880003F1FF3401D2884525D8234643EA004077
:10579800A1EB0801A0FB029841454C46434602D3C1
:1057A80006D14E4504D2B9EB020468EB0503013873
:1057B800002FACD0321B61EB030101FA0EFE22FA76
:1057C8000CF34EEA030321FA0CF1C7E900319EE716
:1057D80002382C44C7E7023B2944D7E7F8B500BF95
:1057E800F8BC08BC9E467047F8B500BFF8BC08BCBA
:0457F8009E46704712
:1057FC00484341313030315F4144435F535452454B
:10580C00414D5F56310A00000804020408010101F1
:10581C000101010307010000010002000400060061
:10582C0008000A000C00100020004000800000015D
:10583C000000000001020304000000000000000052
:10584C000102030406070809000FC93F000F494075
:10585C0000CB9640000FC9400053FB4000CB1641D3
:10586C0000ED2F41000F49410031624100537B4153
:10587C00003A8A4100CB9641005CA34100EDAF4158
:10588C00007EBC41000FC94100A0D5410031E2416E
:10589C0000C2EE410053FB4100F20342003A0A42BF
:1058AC000083104200CB164200141D42005C2342C0
:1058BC0000A5294200ED2F4200363642007E3C42C4
:1058CC0000C74242000F4942A2000000F90000004C
:1058DC00830000006E0000004E0000004400000039
:1058EC001500000029000000FC000000270000004B
:1058FC0057000000D1000000F5000000340000004B
:10590C00DD000000C0000000DB00000062000000B1
:10591C0095000000990000003C00000043000000CE
:10592C009000000041000000FE000000510000004B
:10593C0063000000AB000000DE000000BB000000B4
:10594C00C500000061000000B7000000240000004A
:10595C006E0000003A000000420000004D00000004
:10596C00D2000000E000000006000000490000002A
:10597C002E000000EA00000009000000D100000029
:10598C00920000001C000000FE0000001D00000042
:10599C00EB0000001C000000B1000000290000001A
:1059AC00A70000003E000000E8000000820000009C
:1059BC0035000000F50000002E000000BB000000C8
:1059CC004400000084000000E90000009C0000007E
:1059DC007000000026000000B40000005F00000012
:1059EC007E00000041000000390000009100000022
:1059FC00D6000000390000008300000053000000B6
:105A0C0039000000F40000009C000000840000003D
:105A1C005F0000008B000000BD000000F9000000DA
:105A2C00280000003B0000001F000000F8000000F0
:105A3C0097000000FF000000DE00000005000000E1
:105A4C00980000000F000000EF0000002F00000085
:105A5C00110000008B0000005A0000000A0000003A
:105A6C006D0000001F0000006D00000036000000FB
:105A7C007E000000CF00000027000000CB000000DB
:105A8C0009000000B70000004F00000046000000B5
:105A9C003F000000660000009E0000005F00000058
:105AAC00EA0000002D000000750000002700000037
:105ABC00BA000000C7000000EB000000E500000089
:105ACC00F10000007B0000003D000000070000001A
